00COTAHIST.2020BOVESPA 20200114                                                                                                                                                                                                                      
012020011402AALR3       010ALLIAR      ON      NM   R$  000000000219500000000022000000000002151000000000217400000000021850000000002184000000000218504137000000000000902300000000001962003000000000000000009999123100000010000000000000BRAALRACNOR6101
012020011402AAPL34      010APPLE       DRN          R$  000000001311000000000131730000000012942000000001307700000000129700000000012800000000001297000024000000000000010700000000000139931300000000000000009999123100000010000000000000BRAAPLBDR004131
012020011402ABCB4       010ABC BRASIL  PN      N2   R$  000000000205900000000020590000000002022000000000203200000000020390000000002030000000000203903823000000000000773500000000001571990500000000000000009999123100000010000000000000BRABCBACNPR4133
012020011402ABEV3       010AMBEV S/A   ON           R$  000000000192000000000019580000000001898000000000192000000000019100000000001906000000000191030841000000000021324400000000040945748300000000000000009999123100000010000000000000BRABEVACNOR1122
012020011402ABUD34      010AB INBEV    DRN          R$  000000003321600000000332160000000033216000000003321600000000332160000000000000000000000000000001000000000000000400000000000013286400000000000000009999123100000010000000000000BRABUDBDR009101
012020011402ADHM3       010ADVANCED-DH ON           R$  000000000027700000000003000000000000262000000000028300000000002800000000000279000000000028000578000000000000340400000000000096652500000000000000009999123100000010000000000000BRADHMACNOR9101
012020011402AFLT3       010AFLUENTE T  ON           R$  000000000112000000000011200000000001090000000000110500000000011100000000001100000000000111000009000000000000001200000000000001326300000000000000009999123100000010000000000000BRAFLTACNOR1114
012020011402AGRO3       010BRASILAGRO  ON      NM   R$  000000000198500000000020450000000001975000000000203200000000020320000000002032000000000203300452000000000000088900000000000180653500000000000000009999123100000010000000000000BRAGROACNOR7109
012020011402AHEB3       010SPTURIS     ON           R$  000000000300100000000030010000000003001000000000300100000000030010000000002388000000000300100001000000000000000100000000000000300100000000000000009999123100000010000000000000BRAHEBACNOR0105
012020011402ALPA3       010ALPARGATAS  ON      N1   R$  000000000276000000000027600000000002700000000000273100000000027410000000002741000000000276500302000000000000326700000000000892357400000000000000009999123100000010000000000000BRALPAACNOR0228
012020011402ALPA4       010ALPARGATAS  PN      N1   R$  000000000340000000000034530000000003375000000000342100000000034260000000003425000000000342804882000000000000972900000000003328411200000000000000009999123100000010000000000000BRALPAACNPR7228
012020011402ALSO3       010ALIANSCSONAEON      NM   R$  000000000534500000000054450000000005300000000000537600000000054450000000005401000000000544506609000000000001130200000000006076256800000000000000009999123100000010000000000000BRALSOACNOR5100
012020011402ALUP3       010ALUPAR      ON      N2   R$  000000000115000000000011570000000001131000000000115200000000011430000000001130000000000118800029000000000000013300000000000015334200000000000000009999123100000010000000000000BRALUPACNOR8110
012020011402ALUP4       010ALUPAR      PN      N2   R$  000000000085800000000008580000000000851000000000085300000000008520000000000849000000000085300045000000000000009700000000000008280000000000000000009999123100000010000000000000BRALUPACNPR5110
012020011402ALUP11      010ALUPAR      UNT     N2   R$  000000000288400000000028860000000002830000000000285900000000028590000000002858000000000287002732000000000000464700000000001328666100000000000000009999123100000010000000000000BRALUPCDAM15110
012020011402AMAR3       010LOJAS MARISAON      NM   R$  000000000143500000000014430000000001400000000000141400000000014190000000001410000000000141905515000000000002379000000000003364287700000000000000009999123100000010000000000000BRAMARACNOR4112
012020011402AMZO34      010AMAZON      DRN          R$  000000038666900000003866690000000386652000000038666500000003866520000000000000000000000000000002000000000000000500000000000193332800000000000000009999123100000010000000000000BRAMZOBDR002101
012020011402ANIM3       010ANIMA       ON      NM   R$  000000000321400000000032330000000003146000000000319300000000032000000000003193000000000320802607000000000000546300000000001744504300000000000000009999123100000010000000000000BRANIMACNOR6106
012020011402APER3       010ALPER S.A.  ON      NM   R$  000000000304600000000030990000000002966000000000302400000000030770000000003010000000000307700265000000000000048100000000000145457200000000000000009999123100000010000000000000BRAPERACNOR9101
012020011402ARZZ3       010AREZZO CO   ON      NM   R$  000000000631000000000064150000000006260000000000632800000000063000000000006298000000000630004850000000000000949200000000006007161000000000000000009999123100000010000000000000BRARZZACNOR3137
012020011402ATOM3       010ATOMPAR     ON           R$  000000000020000000000002030000000000195000000000019800000000001970000000000197000000000019800307000000000000212100000000000042164900000000000000009999123100000010000000000000BRATOMACNOR1103
012020011402ATTB34      010ATT INC     DRN ED       R$  000000001576000000000157600000000015760000000001576000000000157600000000000000000000001576000001000000000000000600000000000009456000000000000000009999123100000010000000000000BRATTBBDR007130
012020011402AZUL4       010AZUL        PN      N2   R$  000000000583000000000059190000000005793000000000586900000000059190000000005914000000000591909810000000000001929300000000011323325400000000000000009999123100000010000000000000BRAZULACNPR4100
012020011402B3SA3       010B3          ON      NM   R$  000000000443700000000044870000000004424000000000445800000000044650000000004458000000000446529398000000000010632600000000047408364200000000000000009999123100000010000000000000BRB3SAACNOR6109
012020011402BABA34      010ALIBABAGR   DRN          R$  000000009385600000000938560000000093856000000009385600000000938560000000000000000000000000000001000000000000001900000000000178326400000000000000009999123100000010000000000000BRBABABDR005100
012020011402BAHI3       010BAHEMA      ON      MA   R$  000000000956100000000100200000000009561000000000976000000000100200000000009566000000001005000007000000000000000700000000000006832300000000000000009999123100000010000000000000BRBAHIACNOR1071
012020011402BALM4       010BAUMER      PN           R$  000000000139200000000013920000000001110000000000121100000000012000000000001151000000000120000062000000000000020600000000000024961700000000000000009999123100000010000000000000BRBALMACNPR2050
012020011402BAUH4       010EXCELSIOR   PN           R$  000000000730000000000073800000000007250000000000730800000000072500000000007250000000000747000007000000000000000700000000000005116000000000000000009999123100000010000000000000BRBAUHACNPR3114
012020011402BAZA3       010AMAZONIA    ON           R$  000000000400000000000040000000000004000000000000400000000000040000000000003911000000000399900001000000000000000100000000000000400000000000000000009999123100000010000000000000BRBAZAACNOR0173
012020011402BBAS3       010BRASIL      ON      NM   R$  000000000502800000000050490000000004975000000000500000000000050150000000005014000000000501523729000000000008765000000000043831302300000000000000009999123100000010000000000000BRBBASACNOR3289
012020011402BBDC3       010BRADESCO    ON  EJ  N1   R$  000000000329600000000033120000000003259000000000328700000000033120000000003295000000000331207911000000000002083600000000006850308700000000000000009999123100000010000000000000BRBBDCACNOR1705
012020011402BBDC4       010BRADESCO    PN  EJ  N1   R$  000000000348300000000034850000000003434000000000345600000000034760000000003470000000000347630797000000000014231300000000049191694800000000000000009999123100000010000000000000BRBBDCACNPR8705
012020011402BBRK3       010BR BROKERS  ON      NM   R$  000000000055600000000005680000000000545000000000055400000000005500000000000550000000000056400300000000000000120900000000000067055800000000000000009999123100000010000000000000BRBBRKACNOR4113
012020011402BBSD11      010BB ETF SP DVCI           R$  000000000965400000000097040000000009632000000000963300000000096840000000009633000000000970400009000000000000010190000000000098165910000000000000009999123100000010000000000000BRBBSDCTF000100
012020011402BBSE3       010BBSEGURIDADEON  ER  NM   R$  000000000361700000000036640000000003612000000000364700000000036560000000003655000000000365612838000000000003673600000000013400257500000000000000009999123100000010000000000000BRBBSEACNOR5115
012020011402BCSA34      010SANTANDER   DRN          R$  000000000165200000000016520000000001652000000000165200000000016520000000000000000000000000000001000000000000000400000000000000660800000000000000009999123100000010000000000000BRBCSABDR005101
012020011402BEEF3       010MINERVA     ON      NM   R$  000000000145800000000014900000000001429000000000145100000000014450000000001445000000000144911427000000000004903400000000007118605400000000000000009999123100000010000000000000BRBEEFACNOR6108
012020011402BEES3       010BANESTES    ON           R$  000000000069400000000007090000000000690000000000069300000000006920000000000692000000000069900162000000000000071500000000000049616100000000000000009999123100000010000000000000BRBEESACNOR9333
012020011402BEES4       010BANESTES    PN           R$  000000000070000000000007090000000000685000000000069300000000007090000000000696000000000070800028000000000000004800000000000003328000000000000000009999123100000010000000000000BRBEESACNPR6258
012020011402BERK34      010BERKSHIRE   DRN          R$  000000009437000000000943700000000094008000000009434400000000940080000000075100000000009400800004000000000000001400000000000132081800000000000000009999123100000010000000000000BRBERKBDR002100
012020011402BGIP4       010BANESE      PN           R$  000000000374000000000038280000000003732000000000377200000000038280000000003690000000000383400006000000000000000600000000000002263200000000000000009999123100000010000000000000BRBGIPACNPR8197
012020011402BIDI3       010BANCO INTER ON      N2   R$  000000000180200000000018350000000001761000000000178300000000017880000000001781000000000180000581000000000000118900000000000212068200000000000000009999123100000010000000000000BRBIDIACNOR3104
012020011402BIDI4       010BANCO INTER PN      N2   R$  000000000179000000000018090000000001737000000000178400000000017800000000001780000000000178104794000000000001654800000000002953498800000000000000009999123100000010000000000000BRBIDIACNPR0108
012020011402BIDI11      010BANCO INTER UNT     N2   R$  000000000540800000000054910000000005310000000000536900000000053800000000005346000000000538001703000000000000353500000000001897949300000000000000009999123100000010000000000000BRBIDICDAXX3103
012020011402BIIB34      010BIOGEN      DRN          R$  000000002037800000000203780000000020378000000002037800000000203780000000000000000000000000000001000000000000000100000000000002037800000000000000009999123100000010000000000000BRBIIBBDR001101
012020011402BIOM3       010BIOMM       ON      MA   R$  000000000167400000000016740000000001631000000000165600000000016600000000001660000000000166400139000000000000030500000000000050536000000000000000009999123100000010000000000000BRBIOMACNOR2107
012020011402BKBR3       010BK BRASIL   ON      NM   R$  000000000179400000000018580000000001768000000000183500000000018260000000001825000000000183506843000000000001382000000000002536078200000000000000009999123100000010000000000000BRBKBRACNOR4102
012020011402BKNG34      010BOOKING     DRN          R$  000000003432000000000344950000000034320000000003434500000000344950000000020000000000000000000004000000000000003400000000000116775500000000000000009999123100000010000000000000BRBKNGBDR006100
012020011402BLAK34      010BLACKROCK   DRN          R$  000000003578100000000357810000000035781000000003578100000000357810000000020000000000000000000001000000000000016800000000000601120800000000000000009999123100000010000000000000BRBLAKBDR003115
012020011402BMEB3       010MERC BRASIL ON           R$  000000000131200000000013200000000001312000000000131600000000013200000000001320000000000138500002000000000000001000000000000001316000000000000000009999123100000010000000000000BRBMEBACNOR8195
012020011402BMEB4       010MERC BRASIL PN           R$  000000000134500000000014000000000001345000000000138000000000014000000000001360000000000140000031000000000000017800000000000024564600000000000000009999123100000010000000000000BRBMEBACNPR5200
012020011402BMGB4       010BANCO BMG   PN      N1   R$  000000000098000000000009960000000000970000000000098200000000009810000000000981000000000098203711000000000002711100000000002662440400000000000000009999123100000010000000000000BRBMGBACNPR0101
012020011402BMKS3       010BIC MONARK  ON           R$  000000002720000000000272000000000026901000000002705000000000270000000000026900000000002700000017000000000000000189000000000005112505000000000000009999123100000010000000000000BRBMKSACNOR9161
012020011402BNBR3       010NORD BRASIL ON           R$  000000000970000000000098000000000009700000000000976000000000098000000000009001000000000990000004000000000000000500000000000004880000000000000000009999123100000010000000000000BRBNBRACNOR8199
012020011402BOAC34      010BANK AMERICADRN          R$  000000001463200000000146320000000014632000000001463200000000146320000000000000000000001463200001000000000000000300000000000004389600000000000000009999123100000010000000000000BRBOACBDR004137
012020011402BOBR3       010BOMBRIL     ON           R$  000000000010000000000001000000000000100000000000010000000000001000000000000100000000000000000001000000000000002000000000000000200000000000000000009999123100000010000000000000BRBOBRACNOR6128
012020011402BOBR4       010BOMBRIL     PN           R$  000000000029000000000003160000000000280000000000029700000000003000000000000299000000000030102257000000000001932100000000000574685400000000000000009999123100000010000000000000BRBOBRACNPR3128
012020011402BOVA11      010ISHARES BOVACI           R$  000000001127500000000113400000000011230000000001129200000000113320000000011332000000001133546436000000000004378140000000049440939640000000000000009999123100000010000000000000BRBOVACTF003104
012020011402BOVB11      010ETF BRAD BOVCI           R$  000000001170000000000117670000000011670000000001173500000000117670000000011720000000001176700114000000000000108560000000001273987400000000000000009999123100000010000000000000BRBOVBCTF001100
012020011402BOVV11      010IT NOW IBOV CI           R$  000000001178000000000118260000000011720000000001182200000000118260000000011779000000001182600322000000000001508810000000017838495410000000000000009999123100000010000000000000BRBOVVCTF009100
012020011402BPAC3       010BTGP BANCO  ON  EJ  N2   R$  000000000398700000000039900000000003987000000000398900000000039900000000003501000000000400000003000000000000000300000000000001196700000000000000009999123100000010000000000000BRBPACACNOR7121
012020011402BPAC5       010BTGP BANCO  PNA EJ  N2   R$  000000000218900000000021890000000002189000000000218900000000021890000000002131000000000218900001000000000000000100000000000000218900000000000000009999123100000010000000000000BRBPACACNPA0121
012020011402BPAC11      010BTGP BANCO  UNT EJ  N2   R$  000000000763300000000076480000000007501000000000754500000000075010000000007501000000000750205095000000000001279200000000009652347000000000000000009999123100000010000000000000BRBPACUNT006106
012020011402BPAN4       010BANCO PAN   PN      N1   R$  000000000118000000000011800000000001146000000000115500000000011500000000001150000000000115206862000000000003202300000000003701025000000000000000009999123100000010000000000000BRBPANACNPR1107
012020011402BRAP3       010BRADESPAR   ON      N1   R$  000000000368100000000037290000000003681000000000371000000000037180000000003705000000000374000022000000000000003900000000000014472000000000000000009999123100000010000000000000BRBRAPACNOR5136
012020011402BRAP4       010BRADESPAR   PN      N1   R$  000000000400000000000040490000000003967000000000401500000000040280000000004001000000000402906494000000000001295400000000005201073900000000000000009999123100000010000000000000BRBRAPACNPR2136
012020011402BRAX11      010ISHARES BRAXCI           R$  000000000971500000000097600000000009677000000000973100000000097600000000009700000000000976000026000000000000004650000000000045249440000000000000009999123100000010000000000000BRBRAXCTF002100
012020011402BRDT3       010PETROBRAS BRON      NM   R$  000000000287500000000028860000000002830000000000286100000000028800000000002875000000000288020381000000000007573500000000021671881900000000000000009999123100000010000000000000BRBRDTACNOR1119
012020011402BRFS3       010BRF SA      ON      NM   R$  000000000367600000000037120000000003606000000000364900000000036550000000003637000000000365511907000000000003349500000000012225028100000000000000009999123100000010000000000000BRBRFSACNOR8119
012020011402BRGE3       010ALFA CONSORCON           R$  000000000134900000000013490000000001102000000000116600000000011510000000001112000000000118900019000000000000002600000000000003033800000000000000009999123100000010000000000000BRBRGEACNOR6202
012020011402BRGE8       010ALFA CONSORCPND          R$  000000000090000000000009990000000000900000000000090700000000009990000000000900000000000099900010000000000000001300000000000001180000000000000000009999123100000010000000000000BRBRGEACNPD3212
012020011402BRGE11      010ALFA CONSORCPNE          R$  000000000100500000000012000000000001005000000000107400000000012000000000001141000000000120000007000000000000000800000000000000859600000000000000009999123100000010000000000000BRBRGEACNPE1103
012020011402BRIV3       010ALFA INVEST ON           R$  000000000095100000000009510000000000931000000000094400000000009310000000000931000000000095000004000000000000000900000000000000849600000000000000009999123100000010000000000000BRBRIVACNOR6205
012020011402BRIV4       010ALFA INVEST PN           R$  000000000098100000000009990000000000981000000000098700000000009880000000000950000000000104900009000000000000002100000000000002073000000000000000009999123100000010000000000000BRBRIVACNPR3209
012020011402BRKM3       010BRASKEM     ON      N1   R$  000000000366500000000037500000000003470000000000362500000000035820000000003582000000000360000096000000000000019100000000000069241300000000000000009999123100000010000000000000BRBRKMACNOR1117
012020011402BRKM5       010BRASKEM     PNA     N1   R$  000000000341100000000035060000000003390000000000344100000000034270000000003423000000000342712001000000000002847300000000009799242700000000000000009999123100000010000000000000BRBRKMACNPA4117
012020011402BRKM6       010BRASKEM     PNB     N1   R$  000000000260000000000026000000000002600000000000260000000000026000000000002600000000000290000001000000000000000200000000000000520000000000000000009999123100000010000000000000BRBRKMACNPB2113
012020011402BRML3       010BR MALLS PARON      NM   R$  000000000189600000000019380000000001883000000000191500000000019220000000001922000000000192419858000000000009849700000000018862803600000000000000009999123100000010000000000000BRBRMLACNOR9115
012020011402BRPR3       010BR PROPERT  ON      NM   R$  000000000155200000000015700000000001538000000000155500000000015700000000001563000000000157107428000000000001931200000000003004226600000000000000009999123100000010000000000000BRBRPRACNOR9118
012020011402BRSR3       010BANRISUL    ON      N1   R$  000000000230000000000023510000000002280000000000231400000000023250000000002310000000000232500013000000000000001900000000000004397500000000000000009999123100000010000000000000BRBRSRACNOR3166
012020011402BRSR6       010BANRISUL    PNB     N1   R$  000000000212400000000021240000000002085000000000209800000000021090000000002099000000000210904856000000000001114600000000002339451100000000000000009999123100000010000000000000BRBRSRACNPB4169
012020011402BSEV3       010BIOSEV      ON      NM   R$  000000000041000000000004200000000000371000000000039500000000003950000000000387000000000039500679000000000000270200000000000106984800000000000000009999123100000010000000000000BRBSEVACNOR3102
012020011402BTOW3       010B2W DIGITAL ON      NM   R$  000000000685000000000071720000000006815000000000693100000000068350000000006835000000000685010314000000000002905500000000020138337400000000000000009999123100000010000000000000BRBTOWACNOR8110
012020011402BTTL3       010BATTISTELLA ON           R$  000000000066800000000007180000000000666000000000069100000000006800000000000660000000000069900034000000000000005500000000000003804300000000000000009999123100000010000000000000BRBTTLACNOR0108
012020011402CAMB3       010CAMBUCI     ON           R$  000000000065400000000007010000000000640000000000066100000000007010000000000690000000000070100248000000000000559700000000000370293600000000000000009999123100000010000000000000BRCAMBACNOR4119
012020011402CAML3       010CAMIL       ON      NM   R$  000000000093000000000009330000000000912000000000092500000000009280000000000917000000000092804267000000000001394400000000001290037900000000000000009999123100000010000000000000BRCAMLACNOR3108
012020011402CARD3       010CSU CARDSYSTON      NM   R$  000000000144000000000014400000000001368000000000139700000000013800000000001380000000000138502167000000000000726900000000001016080000000000000000009999123100000010000000000000BRCARDACNOR9116
012020011402CBEE3       010AMPLA ENERG ON           R$  000000000204000000000020490000000002040000000000204600000000020490000000001888000000000204900004000000000000000500000000000001023300000000000000009999123100000010000000000000BRCBEEACNOR3154
012020011402CCPR3       010CYRE COM-CCPON      NM   R$  000000000258000000000025900000000002535000000000255800000000025490000000002545000000000254902284000000000000442100000000001130991800000000000000009999123100000010000000000000BRCCPRACNOR9113
012020011402CCRO3       010CCR SA      ON      NM   R$  000000000183600000000019040000000001821000000000188100000000018910000000001891000000000189420889000000000006756500000000012711273000000000000000009999123100000010000000000000BRCCROACNOR2136
012020011402CEAB3       010CEA MODAS   ON      NM   R$  000000000167500000000017180000000001663000000000169700000000017150000000001715000000000171804859000000000002831800000000004808035200000000000000009999123100000010000000000000BRCEABACNOR1101
012020011402CEBR3       010CEB         ON           R$  000000000568200000000056820000000005681000000000568100000000056810000000005200000000000595000003000000000000001100000000000006249700000000000000009999123100000010000000000000BRCEBRACNOR5117
012020011402CEBR5       010CEB         PNA          R$  000000000639500000000064300000000006395000000000640300000000064300000000006430000000000680000003000000000000000400000000000002561500000000000000009999123100000010000000000000BRCEBRACNPA8116
012020011402CEBR6       010CEB         PNB          R$  000000000554000000000055400000000005540000000000554000000000055400000000005540000000000584900002000000000000000200000000000001108000000000000000009999123100000010000000000000BRCEBRACNPB6116
012020011402CEDO3       010CEDRO       ON      N1   R$  000000000102000000000013000000000001020000000000119000000000012950000000001246000000000129900034000000000000004000000000000004760600000000000000009999123100000010000000000000BRCEDOACNOR8096
012020011402CEDO4       010CEDRO       PN      N1   R$  000000000086000000000010150000000000842000000000090600000000009360000000000881000000000093600140000000000000027600000000000025019500000000000000009999123100000010000000000000BRCEDOACNPR5128
012020011402CEEB3       010COELBA      ON  EJ       R$  000000000440000000000044000000000004400000000000440000000000044000000000004040000000000440000001000000000000000100000000000000440000000000000000009999123100000010000000000000BRCEEBACNOR3179
012020011402CEGR3       010CEG         ON           R$  000000000450000000000045000000000004500000000000450000000000045000000000000000000000000450000001000000000000000100000000000000450000000000000000009999123100000010000000000000BRCEGRACNOR4136
012020011402CEPE5       010CELPE       PNA EJ       R$  000000000251000000000025100000000002510000000000251000000000025100000000002510000000000270000004000000000000001000000000000002510000000000000000009999123100000010000000000000BRCEPEACNPA6162
012020011402CESP3       010CESP        ON      N1   R$  000000000317000000000031700000000003105000000000314000000000031540000000003121000000000316400083000000000000019500000000000061234800000000000000009999123100000010000000000000BRCESPACNOR3168
012020011402CESP6       010CESP        PNB     N1   R$  000000000314300000000031860000000003110000000000315000000000031860000000003166000000000319105461000000000001079000000000003399914200000000000000009999123100000010000000000000BRCESPACNPB4127
012020011402CGAS3       010COMGAS      ON           R$  000000002400000000000240000000000024000000000002400000000000240000000000023000000000002500000004000000000000000400000000000009600000000000000000009999123100000010000000000000BRCGASACNOR0150
012020011402CGAS5       010COMGAS      PNA          R$  000000002134900000000262500000000021349000000002449000000000245700000000024570000000002474900154000000000000019600000000000480004600000000000000009999123100000010000000000000BRCGASACNPA3147
012020011402CGRA3       010GRAZZIOTIN  ON           R$  000000000288400000000028840000000002808000000000286700000000028700000000002781000000000288100010000000000000001600000000000004588500000000000000009999123100000010000000000000BRCGRAACNOR2070
012020011402CGRA4       010GRAZZIOTIN  PN           R$  000000000296700000000029680000000002906000000000294100000000029500000000002950000000000296000016000000000000003200000000000009412900000000000000009999123100000010000000000000BRCGRAACNPR9070
012020011402CHVX34      010CHEVRON     DRN          R$  000000002408000000000240800000000024080000000002408000000000240800000000000000000000002408000001000000000000000200000000000004816000000000000000009999123100000010000000000000BRCHVXBDR008135
012020011402CIEL3       010CIELO       ON      NM   R$  000000000074500000000007500000000000733000000000074100000000007490000000000748000000000074909551000000000006998400000000005190834800000000000000009999123100000010000000000000BRCIELACNOR3141
012020011402CLSC4       010CELESC      PN      N2   R$  000000000520000000000053100000000005150000000000518800000000053100000000005122000000000531000030000000000000012200000000000063299700000000000000009999123100000010000000000000BRCLSCACNPR3114
012020011402CMCS34      010COMCAST     DRN ED       R$  000000001898000000000190810000000018980000000001901300000000190810000000000000000000001908100002000000000000000600000000000011408200000000000000009999123100000010000000000000BRCMCSBDR008133
012020011402CMIG3       010CEMIG       ON      N1   R$  000000000171000000000017400000000001701000000000171900000000017200000000001717000000000172006815000000000002215400000000003808569500000000000000009999123100000010000000000000BRCMIGACNOR6223
012020011402CMIG4       010CEMIG       PN      N1   R$  000000000154000000000015620000000001526000000000154700000000015510000000001551000000000155328159000000000010027900000000015519941400000000000000009999123100000010000000000000BRCMIGACNPR3224
012020011402CNTO3       010CENTAURO    ON      NM   R$  000000000404500000000042020000000004026000000000417000000000041770000000004176000000000417706906000000000001956900000000008160918100000000000000009999123100000010000000000000BRCNTOACNOR5100
012020011402COCE3       010COELCE      ON           R$  000000000520000000000052000000000005200000000000520000000000052000000000005000000000000750000001000000000000000300000000000001560000000000000000009999123100000010000000000000BRCOCEACNOR0138
012020011402COCE5       010COELCE      PNA          R$  000000000638000000000063950000000006299000000000633500000000063850000000006340000000000638500071000000000000016300000000000103274500000000000000009999123100000010000000000000BRCOCEACNPA3139
012020011402COGN3       010COGNA ON    ON      NM   R$  000000000125900000000012790000000001244000000000126300000000012790000000001277000000000127917109000000000007126400000000009004715900000000000000009999123100000010000000000000BRCOGNACNOR2101
012020011402COLG34      010COLGATE     DRN          R$  000000002907500000000290750000000029075000000002907500000000290750000000000000000000000000000001000000000000000800000000000023260000000000000000009999123100000010000000000000BRCOLGBDR000134
012020011402COWC34      010COSTCO      DRN          R$  000000003105400000000310540000000031054000000003105400000000310540000000000000000000000000000001000000000000000500000000000015527000000000000000009999123100000010000000000000BRCOWCBDR006116
012020011402CPFE3       010CPFL ENERGIAON      NM   R$  000000000360000000000036000000000003518000000000354400000000035590000000003556000000000355910175000000000001939000000000006873683000000000000000009999123100000010000000000000BRCPFEACNOR0129
012020011402CPLE3       010COPEL       ON      N1   R$  000000000769900000000077480000000007613000000000768700000000077300000000007730000000000773501068000000000000180600000000001388384300000000000000009999123100000010000000000000BRCPLEACNOR8139
012020011402CPLE6       010COPEL       PNB     N1   R$  000000000743500000000075090000000007384000000000744400000000074440000000007444000000000746506866000000000001101700000000008202095000000000000000009999123100000010000000000000BRCPLEACNPB9136
012020011402CRDE3       010CR2         ON      NM   R$  000000000397500000000039750000000003968000000000397100000000039680000000003451000000000395800002000000000000000200000000000000794300000000000000009999123100000010000000000000BRCRDEACNOR1110
012020011402CRFB3       010CARREFOUR BRON      NM   R$  000000000234500000000023630000000002302000000000232300000000023400000000002327000000000234014294000000000003256800000000007566555700000000000000009999123100000010000000000000BRCRFBACNOR2105
012020011402CRIV3       010ALFA FINANC ON           R$  000000000060400000000006190000000000601000000000060500000000006180000000000602000000000061700013000000000000002600000000000001574600000000000000009999123100000010000000000000BRCRIVACNOR4193
012020011402CRIV4       010ALFA FINANC PN           R$  000000000069200000000006920000000000678000000000068400000000006850000000000685000000000069900014000000000000004600000000000003146600000000000000009999123100000010000000000000BRCRIVACNPR1202
012020011402CRPG3       010CRISTAL     ON           R$  000000000322000000000032200000000003220000000000322000000000032200000000002750000000000360000003000000000000000300000000000000966000000000000000009999123100000010000000000000BRCRPGACNOR0107
012020011402CRPG5       010CRISTAL     PNA          R$  000000000274000000000027790000000002720000000000274300000000027220000000002722000000000275000074000000000000028300000000000077628800000000000000009999123100000010000000000000BRCRPGACNPA3107
012020011402CRPG6       010CRISTAL     PNB          R$  000000000272200000000027220000000002722000000000272200000000027220000000002660000000000271000001000000000000000100000000000000272200000000000000009999123100000010000000000000BRCRPGACNPB1107
012020011402CSAN3       010COSAN       ON      NM   R$  000000000748100000000077310000000007433000000000760700000000077310000000007693000000000773309728000000000001595800000000012139638600000000000000009999123100000010000000000000BRCSANACNOR6119
012020011402CSMG3       010COPASA      ON      NM   R$  000000000671500000000067920000000006663000000000674800000000067780000000006778000000000679003687000000000000613400000000004139723300000000000000009999123100000010000000000000BRCSMGACNOR5154
012020011402CSNA3       010SID NACIONALON           R$  000000000150400000000015360000000001480000000000151300000000014830000000001482000000000148316129000000000013980000000000021152692700000000000000009999123100000010000000000000BRCSNAACNOR6251
012020011402CSRN3       010COSERN      ON  EJ       R$  000000000204900000000020490000000002049000000000204900000000020490000000000000000000000205000001000000000000000100000000000000204900000000000000009999123100000010000000000000BRCSRNACNOR0171
012020011402CSRN5       010COSERN      PNA EJ       R$  000000000210000000000021000000000002100000000000210000000000021000000000001800000000000357400001000000000000000100000000000000210000000000000000009999123100000010000000000000BRCSRNACNPA3171
012020011402CTGP34      010CITIGROUP   DRN          R$  000000003380800000000338080000000033808000000003380800000000338080000000000000000000003380800001000000000000000100000000000003380800000000000000009999123100000010000000000000BRCTGPBDR000136
012020011402CTKA3       010KARSTEN     ON           R$  000000000130000000000025000000000001300000000000197400000000018000000000001740000000000185800069000000000000009700000000000019152900000000000000009999123100000010000000000000BRCTKAACNOR0043
012020011402CTKA4       010KARSTEN     PN           R$  000000000155000000000020850000000001550000000000187100000000018100000000001810000000000195000099000000000000017400000000000032564000000000000000009999123100000010000000000000BRCTKAACNPR7043
012020011402CTNM3       010COTEMINAS   ON           R$  000000000160100000000016900000000001581000000000161100000000016680000000001600000000000166800021000000000000009100000000000014667000000000000000009999123100000010000000000000BRCTNMACNOR9130
012020011402CTNM4       010COTEMINAS   PN           R$  000000000108000000000010840000000001053000000000107600000000010770000000001071000000000107700056000000000000016400000000000017656600000000000000009999123100000010000000000000BRCTNMACNPR6129
012020011402CTSA3       010SANTANENSE  ON           R$  000000000068900000000006890000000000645000000000067200000000006700000000000652000000000067000020000000000000004200000000000002823800000000000000009999123100000010000000000000BRCTSAACNOR3059
012020011402CTSA4       010SANTANENSE  PN           R$  000000000069100000000006960000000000690000000000069200000000006960000000000652000000000069600007000000000000000700000000000000485000000000000000009999123100000010000000000000BRCTSAACNPR0059
012020011402CVCB3       010CVC BRASIL  ON      NM   R$  000000000417700000000042540000000004113000000000419600000000042500000000004248000000000425014845000000000003045900000000012782472100000000000000009999123100000010000000000000BRCVCBACNOR1112
012020011402CYRE3       010CYRELA REALTON      NM   R$  000000000320700000000032890000000003198000000000323000000000032500000000003248000000000325014151000000000004732300000000015289931500000000000000009999123100000010000000000000BRCYREACNOR7133
012020011402DIRR3       010DIRECIONAL  ON      NM   R$  000000000161900000000016620000000001595000000000163300000000016460000000001645000000000165005640000000000001318500000000002153132900000000000000009999123100000010000000000000BRDIRRACNOR0112
012020011402DISB34      010WALT DISNEY DRN          R$  000000005960000000000607060000000059130000000005922900000000598510000000055000000000007000000007000000000000007400000000000438300400000000000000009999123100000010000000000000BRDISBBDR006114
012020011402DIVO11      010IT NOW IDIV CI           R$  000000000696500000000070500000000006954000000000703600000000070500000000007000000000000705000096000000000000037710000000000265338050000000000000009999123100000010000000000000BRDIVOCTF002100
012020011402DMMO3       010DOMMO       ON           R$  000000000022200000000002230000000000203000000000021100000000002070000000000207000000000020807961000000000006234800000000001316232900000000000000009999123100000010000000000000BRDMMOACNOR0102
012020011402DOHL4       010DOHLER      PN           R$  000000000070700000000007150000000000707000000000070900000000007150000000000712000000000071500004000000000000000600000000000000425800000000000000009999123100000010000000000000BRDOHLACNPR9060
012020011402DTEX3       010DURATEX     ON      NM   R$  000000000177900000000017850000000001734000000000176100000000017700000000001770000000000177208253000000000006623300000000011670085700000000000000009999123100000010000000000000BRDTEXACNOR3128
012020011402EALT3       010ACO ALTONA  ON           R$  000000000131000000000013100000000001310000000000131000000000013100000000001251000000000135700003000000000000000600000000000000786000000000000000009999123100000010000000000000BREALTACNOR4132
012020011402EALT4       010ACO ALTONA  PN           R$  000000000071200000000007400000000000712000000000072000000000007190000000000715000000000071900144000000000000090800000000000065379600000000000000009999123100000010000000000000BREALTACNPR1132
012020011402ECOO11      010ISHARES ECOOCI           R$  000000001207200000000120720000000012025000000001203000000000120720000000012062000000001478400011000000000000000700000000000008421360000000000000009999123100000010000000000000BRECOOCTF008100
012020011402ECOR3       010ECORODOVIAS ON      NM   R$  000000000167400000000017360000000001671000000000171200000000017360000000001736000000000173717922000000000006015900000000010303175500000000000000009999123100000010000000000000BRECORACNOR8116
012020011402ECPR3       010ENCORPAR    ON           R$  000000000780000000000078000000000007800000000000780000000000078000000000001001000000001050000001000000000000000100000000000000780000000000000000009999123100000010000000000000BRECPRACNOR5111
012020011402ECPR4       010ENCORPAR    PN           R$  000000000809000000000080900000000008090000000000809000000000080900000000000000000000000810000001000000000000000100000000000000809000000000000000009999123100000010000000000000BRECPRACNPR2111
012020011402EGIE3       010ENGIE BRASILON      NM   R$  000000000535700000000054100000000005304000000000535200000000054100000000005404000000000541005662000000000001233300000000006601813500000000000000009999123100000010000000000000BREGIEACNOR9112
012020011402ELEK4       010ELEKEIROZ   PN           R$  000000000175000000000017500000000001750000000000175000000000017500000000001750000000000182000001000000000000000100000000000000175000000000000000009999123100000010000000000000BRELEKACNPR2124
012020011402ELET3       010ELETROBRAS  ON      N1   R$  000000000400500000000040400000000003820000000000394900000000039500000000003949000000000395023705000000000006804100000000026870698400000000000000009999123100000010000000000000BRELETACNOR6154
012020011402ELET6       010ELETROBRAS  PNB     N1   R$  000000000406800000000040850000000003899000000000400500000000040150000000004015000000000402016287000000000003238900000000012975002000000000000000009999123100000010000000000000BRELETACNPB7071
012020011402EMAE4       010EMAE        PN           R$  000000000369400000000038500000000003658000000000377700000000038000000000003798000000000380000177000000000000042500000000000160524500000000000000009999123100000010000000000000BREMAEACNPR1113
012020011402EMBR3       010EMBRAER     ON      NM   R$  000000000204700000000020470000000002015000000000203000000000020370000000002032000000000203810764000000000002511900000000005100632600000000000000009999123100000010000000000000BREMBRACNOR4189
012020011402ENAT3       010ENAUTA PART ON      NM   R$  000000000173200000000017440000000001708000000000172300000000017400000000001720000000000174003084000000000000781000000000001346403600000000000000009999123100000010000000000000BRENATACNOR0100
012020011402ENBR3       010ENERGIAS BR ON      NM   R$  000000000226700000000022710000000002246000000000225300000000022670000000002260000000000226710070000000000005225100000000011772411600000000000000009999123100000010000000000000BRENBRACNOR2128
012020011402ENEV3       010ENEVA       ON      NM   R$  000000000455000000000045840000000004521000000000456100000000045810000000004578000000000458104731000000000001373000000000006263340300000000000000009999123100000010000000000000BRENEVACNOR8104
012020011402ENGI3       010ENERGISA    ON      N2   R$  000000000131500000000013210000000001304000000000131200000000013090000000001305000000000131400029000000000000005200000000000006826500000000000000009999123100000010000000000000BRENGIACNOR0136
012020011402ENGI4       010ENERGISA    PN      N2   R$  000000000105100000000010510000000001033000000000104200000000010400000000001035000000000105000014000000000000003900000000000004067300000000000000009999123100000010000000000000BRENGIACNPR7132
012020011402ENGI11      010ENERGISA    UNT     N2   R$  000000000552500000000055250000000005443000000000548300000000055120000000005493000000000551505343000000000001147300000000006291402900000000000000009999123100000010000000000000BRENGICDAM16126
012020011402ENMT4       010ENERGISA MT PN           R$  000000000295000000000029990000000002950000000000297400000000029990000000002800000000000299900002000000000000000200000000000000594900000000000000009999123100000010000000000000BRENMTACNPR2113
012020011402EQIX34      010EQUINIX INC DRN          R$  000000004858600000000485860000000048586000000004858600000000485860000000000000000000000000000001000000000000000400000000000019434400000000000000009999123100000010000000000000BREQIXBDR002103
012020011402EQPA3       010EQTL PARA   ON           R$  000000000037100000000004200000000000366000000000039400000000004000000000000400000000000040600607000000000000354700000000000139965500000000000000009999123100000010000000000000BREQPAACNOR1100
012020011402EQPA5       010EQTL PARA   PNA          R$  000000000068100000000007000000000000681000000000069600000000007000000000000680000000000070000007000000000000001100000000000000766200000000000000009999123100000010000000000000BREQPAACNPA4100
012020011402EQPA7       010EQTL PARA   PNC          R$  000000000062800000000007090000000000628000000000068500000000007000000000000658000000000070000008000000000000001200000000000000823100000000000000009999123100000010000000000000BREQPAACNPC0100
012020011402EQTL3       010EQUATORIAL  ON      NM   R$  000000000239300000000024450000000002360000000000242200000000024450000000002443000000000244518645000000000005552300000000013450462300000000000000009999123100000010000000000000BREQTLACNOR0125
012020011402EUCA3       010EUCATEX     ON      N1   R$  000000000280000000000028000000000002140000000000238900000000025000000000002500000000000257000060000000000000008000000000000019112600000000000000009999123100000010000000000000BREUCAACNOR1151
012020011402EUCA4       010EUCATEX     PN      N1   R$  000000000083000000000008300000000000811000000000082000000000008250000000000825000000000082700244000000000000098000000000000080444500000000000000009999123100000010000000000000BREUCAACNPR8038
012020011402EVEN3       010EVEN        ON      NM   R$  000000000167800000000017620000000001666000000000171500000000017480000000001742000000000174807594000000000002529200000000004338857000000000000000009999123100000010000000000000BREVENACNOR8111
012020011402EXXO34      010EXXON MOBIL DRN          R$  000000000717900000000071790000000007179000000000717900000000071790000000000000000000000717900001000000000000001000000000000007179000000000000000009999123100000010000000000000BREXXOBDR006137
012020011402EZTC3       010EZTEC       ON      NM   R$  000000000563000000000057580000000005592000000000567200000000057430000000005726000000000574308801000000000002077600000000011786185000000000000000009999123100000010000000000000BREZTCACNOR0113
012020011402F1NI34      010FIDELITY NATDRN          R$  000000001480500000000148050000000014805000000001480500000000148050000000000000000000000000000001000000000000013200000000000195426000000000000000009999123100000010000000000000BRF1NIBDR004100
012020011402FBOK34      010FACEBOOK    DRN          R$  000000004630000000000463000000000045150000000004566800000000457500000000044400000000000000000006000000000000000700000000000031967600000000000000009999123100000010000000000000BRFBOKBDR006100
012020011402FCCQ11      010FIP CONQUESTCI           R$  000000000084900000000008490000000000849000000000084900000000008490000000000490000000000084900004000000000000000006000000000000005094000000000000009999123100000010000000000000BRFCCQCTF005100
012020011402FDES11      010FUNDES      CI           R$  000000000005000000000000500000000000050000000000005000000000000500000000000050000000000005600006000000000000022000000000000001100000000000000000009999123100000010000000000000BRFDESCTF005100
012020011402FESA3       010FERBASA     ON      N1   R$  000000000316000000000031600000000003160000000000316000000000031600000000002638000000000315700001000000000000000100000000000000316000000000000000009999123100000010000000000000BRFESAACNOR8170
012020011402FESA4       010FERBASA     PN      N1   R$  000000000201000000000020470000000002007000000000203300000000020400000000002040000000000204401242000000000000334500000000000680310600000000000000009999123100000010000000000000BRFESAACNPR5066
012020011402FIND11      010IT NOW IFNC CI           R$  000000001251000000000125560000000012477000000001251900000000125330000000012493000000001274500015000000000000001530000000000019155030000000000000009999123100000010000000000000BRFINDCTF007100
012020011402FLRY3       010FLEURY      ON  EJ  NM   R$  000000000310000000000031460000000003089000000000311800000000031460000000003144000000000314708668000000000001570000000000004895330900000000000000009999123100000010000000000000BRFLRYACNOR5126
012020011402FNAM11      010FINAM       CI *         R$  000000000001600000000000160000000000015000000000001500000000000160000000000015000000000001600105000000000096992000000000000001538498000000000000009999123100010000000000000000BRFNAMCTF013002
012020011402FNOR11      010FINOR       CI *         R$  000000000002200000000000230000000000022000000000002200000000000230000000000022000000000002300859000000000044965000000000000000992317000000000000009999123100010000000000000000BRFNORCTF013002
012020011402FPOR11      010FIP PORT SUDCI           R$  000000000046200000000004620000000000462000000000046200000000004620000000000462000000000054000002000000000000000101000000000000046662000000000000009999123100000010000000000000BRFPORCTF000101
012020011402FRAS3       010FRAS-LE     ON      N1   R$  000000000069300000000007000000000000688000000000069700000000006980000000000698000000000069900635000000000000263500000000000183916200000000000000009999123100000010000000000000BRFRASACNOR0149
012020011402FSPE11      010FISET PESCA CI           R$  000000000005400000000000630000000000053000000000005800000000000560000000000055000000000005700028000000000000050000000000000002936000000000000000009999123100000010000000000000BRFSPECTF017002
012020011402FSRF11      010FISET FL REFCI           R$  000000000002900000000000340000000000029000000000003100000000000310000000000030000000000003100264000000000001660000000000000052596000000000000000009999123100000010000000000000BRFSRFCTF010002
012020011402FSTU11      010FISET TUR   CI           R$  000000000004400000000000440000000000042000000000004200000000000420000000000042000000000004300016000000000000024000000000000001024000000000000000009999123100000010000000000000BRFSTUCTF015002
012020011402GBIO33      010BIOTOSCANA  DR3          R$  000000000099500000000009950000000000990000000000099200000000009930000000000993000000000099400482000000000000170100000000000168862400000000000000009999123100000010000000000000BRGBIOBDR008100
012020011402GEOO34      010GE          DRN          R$  000000000501000000000050110000000004995000000000500800000000049950000000004300000000000499500005000000000000005900000000000029547500000000000000009999123100000010000000000000BRGEOOBDR000138
012020011402GEPA4       010GER PARANAP PN           R$  000000000500300000000050740000000005003000000000502600000000050740000000005000000000000507800003000000000000000300000000000001508000000000000000009999123100000010000000000000BRGEPAACNPR9152
012020011402GFSA3       010GAFISA      ON      NM   R$  000000000094000000000009940000000000938000000000097600000000009720000000000971000000000097210760000000000008797800000000008589047600000000000000009999123100000010000000000000BRGFSAACNOR3117
012020011402GGBR3       010GERDAU      ON      N1   R$  000000000186800000000019250000000001828000000000185100000000018400000000001840000000000185000340000000000000083200000000000154049700000000000000009999123100000010000000000000BRGGBRACNOR1172
012020011402GGBR4       010GERDAU      PN      N1   R$  000000000218100000000022160000000002130000000000215600000000021420000000002142000000000214326177000000000016094400000000034711909600000000000000009999123100000010000000000000BRGGBRACNPR8172
012020011402GNDI3       010INTERMEDICA ON      NM   R$  000000000699700000000070920000000006880000000000699100000000070920000000007032000000000709212053000000000002291000000000016017159800000000000000009999123100000010000000000000BRGNDIACNOR2101
012020011402GOAU3       010GERDAU MET  ON      N1   R$  000000000093900000000009590000000000931000000000094300000000009410000000000931000000000094100295000000000000084900000000000080127800000000000000009999123100000010000000000000BRGOAUACNOR1249
012020011402GOAU4       010GERDAU MET  PN      N1   R$  000000000103900000000010450000000001011000000000102400000000010150000000001015000000000101612119000000000010723900000000010988359200000000000000009999123100000010000000000000BRGOAUACNPR8250
012020011402GOGL34      010ALPHABET    DRN A        R$  000000002393800000000239380000000023680000000002380400000000237000000000023100000000002370000013000000000000004100000000000097599100000000000000009999123100000010000000000000BRGOGLBDR001100
012020011402GOGL35      010ALPHABET    DRN C        R$  000000002371400000000237140000000023714000000002371400000000237140000000000000000000002371400001000000000000000100000000000002371400000000000000009999123100000010000000000000BRGOGLBDR019100
012020011402GOLL4       010GOL         PN      N2   R$  000000000379900000000038390000000003755000000000379300000000037990000000003799000000000380013678000000000003268200000000012398157500000000000000009999123100000010000000000000BRGOLLACNPR4125
012020011402GOVE11      010IT NOW IGCT CI           R$  000000000514500000000051500000000005140000000000514800000000051500000000005150000000000516500007000000000000001670000000000008598800000000000000009999123100000010000000000000BRGOVECTF004100
012020011402GPIV33      010GP INVEST   DR3          R$  000000000065000000000006740000000000650000000000066500000000006700000000000661000000000067000138000000000000195400000000000130078600000000000000009999123100000010000000000000BRGPIVBDR003104
012020011402GRND3       010GRENDENE    ON      NM   R$  000000000123000000000012490000000001220000000000123800000000012440000000001242000000000124405453000000000002717100000000003363928600000000000000009999123100000010000000000000BRGRNDACNOR3157
012020011402GSGI34      010GOLDMANSACHSDRN          R$  000000001028000000000102800000000010280000000001028000000000102800000000000000000000000000000001000000000000000100000000000001028000000000000000009999123100000010000000000000BRGSGIBDR008137
012020011402GSHP3       010GENERALSHOPPON  EG  NM   R$  000000000790000000000081080000000007820000000000796500000000078200000000007820000000000790000094000000000000011900000000000094784600000000000000009999123100000010000000000000BRGSHPACNOR7102
012020011402GUAR3       010GUARARAPES  ON           R$  000000000274100000000027940000000002718000000000277100000000027820000000002781000000000278202038000000000000599800000000001662635600000000000000009999123100000010000000000000BRGUARACNOR4165
012020011402HAGA3       010HAGA S/A    ON           R$  000000000052000000000005500000000000500000000000052000000000005050000000000451000000000051500070000000000000018200000000000009477600000000000000009999123100000010000000000000BRHAGAACNOR7103
012020011402HAGA4       010HAGA S/A    PN           R$  000000000029600000000003220000000000296000000000031200000000003190000000000317000000000031900867000000000000531600000000000166287400000000000000009999123100000010000000000000BRHAGAACNPR4103
012020011402HAPV3       010HAPVIDA     ON  EJ  NM   R$  000000000622100000000062610000000006056000000000615800000000062500000000006235000000000625013867000000000002590500000000015953167100000000000000009999123100000010000000000000BRHAPVACNOR4104
012020011402HBOR3       010HELBOR      ON      NM   R$  000000000049700000000005050000000000487000000000049600000000004960000000000495000000000049710497000000000005836500000000002899378700000000000000009999123100000010000000000000BRHBORACNOR3113
012020011402HETA4       010HERCULES    PN           R$  000000000080200000000010500000000000800000000000092600000000009700000000000910000000000097000082000000000000024000000000000022244800000000000000009999123100000010000000000000BRHETAACNPR9136
012020011402HGTX3       010CIA HERING  ON      NM   R$  000000000329100000000033400000000003229000000000330000000000033300000000003327000000000333013086000000000002527100000000008341591700000000000000009999123100000010000000000000BRHGTXACNOR9150
012020011402HOME34      010HOME DEPOT  DRN          R$  000000004635200000000463520000000046181000000004623800000000461810000000000000000000000000000002000000000000000900000000000041614200000000000000009999123100000010000000000000BRHOMEBDR002131
012020011402HONB34      010HONEYWELL   DRN          R$  000000007476600000000747660000000074766000000007476600000000747660000000000000000000000000000001000000000000000100000000000007476600000000000000009999123100000010000000000000BRHONBBDR006124
012020011402HYPE3       010HYPERA      ON      NM   R$  000000000372100000000037810000000003672000000000373500000000037810000000003774000000000378113299000000000003720900000000013898647800000000000000009999123100000010000000000000BRHYPEACNOR0120
012020011402IDNT3       010IDEIASNET   ON           R$  000000000040100000000004130000000000382000000000039700000000003840000000000383000000000038400971000000000000714800000000000284006200000000000000009999123100000010000000000000BRIDNTACNOR5113
012020011402IDVL3       010INDUSVAL    ON      N2   R$  000000000038000000000004580000000000367000000000041200000000003960000000000396000000000039701472000000000001103600000000000454896000000000000000009999123100000010000000000000BRIDVLACNOR5130
012020011402IDVL4       010INDUSVAL    PN      N2   R$  000000000048000000000006400000000000480000000000056800000000005600000000000550000000000056001453000000000000778500000000000442528000000000000000009999123100000010000000000000BRIDVLACNPR2130
012020011402IGTA3       010IGUATEMI    ON      NM   R$  000000000564000000000056960000000005557000000000559700000000056150000000005614000000000561911243000000000001830500000000010247090900000000000000009999123100000010000000000000BRIGTAACNOR5122
012020011402IRBR3       010IRBBRASIL REON      NM   R$  000000000413500000000041780000000004095000000000414500000000041240000000004124000000000413913393000000000004126600000000017108263200000000000000009999123100000010000000000000BRIRBRACNOR4106
012020011402ISUS11      010IT NOW ISE  CI           R$  000000000422200000000042650000000004220000000000426400000000042650000000000000000000000426500003000000000000022660000000000096644020000000000000009999123100000010000000000000BRISUSCTF003100
012020011402ITLC34      010INTEL       DRN          R$  000000002457200000000245720000000024572000000002457200000000245720000000000000000000002457200001000000000000000200000000000004914400000000000000009999123100000010000000000000BRITLCBDR005136
012020011402ITSA3       010ITAUSA      ON      N1   R$  000000000137400000000013750000000001353000000000136200000000013750000000001367000000000137700624000000000000180600000000000245979700000000000000009999123100000010000000000000BRITSAACNOR0396
012020011402ITSA4       010ITAUSA      PN      N1   R$  000000000135200000000013680000000001337000000000135200000000013680000000001367000000000136823522000000000017342300000000023456378900000000000000009999123100000010000000000000BRITSAACNPR7396
012020011402ITUB3       010ITAUUNIBANCOON      N1   R$  000000000308300000000030920000000003035000000000305200000000030680000000003068000000000306901665000000000000385600000000001176959200000000000000009999123100000010000000000000BRITUBACNOR4263
012020011402ITUB4       010ITAUUNIBANCOPN      N1   R$  000000000349200000000035060000000003463000000000348500000000035060000000003505000000000350639725000000000018433300000000064246036300000000000000009999123100000010000000000000BRITUBACNPR1263
012020011402IVVB11      010ISHARE SP500CI           R$  000000001461400000000146840000000014500000000001456600000000145440000000014505000000001454400797000000000000074750000000001088829390000000000000009999123100000010000000000000BRIVVBCTF001100
012020011402JBDU3       010J B DUARTE  ON           R$  000000000041000000000004200000000000350000000000037200000000003700000000000370000000000037800078000000000000024100000000000008985600000000000000009999123100000010000000000000BRJBDUACNOR6142
012020011402JBDU4       010J B DUARTE  PN           R$  000000000021500000000002300000000000214000000000022000000000002220000000000222000000000022500201000000000000140700000000000031014600000000000000009999123100000010000000000000BRJBDUACNPR3142
012020011402JBSS3       010JBS         ON      NM   R$  000000000287500000000028950000000002837000000000285600000000028700000000002865000000000287024926000000000010732000000000030660995100000000000000009999123100000010000000000000BRJBSSACNOR8114
012020011402JFEN3       010JOAO FORTES ON           R$  000000000048800000000005100000000000465000000000049500000000005050000000000504000000000050500703000000000000360200000000000178310400000000000000009999123100000010000000000000BRJFENACNOR0057
012020011402JHSF3       010JHSF PART   ON      NM   R$  000000000083500000000008640000000000828000000000084900000000008610000000000860000000000086108972000000000004630700000000003934174200000000000000009999123100000010000000000000BRJHSFACNOR2115
012020011402JNJB34      010JOHNSON     DRN          R$  000000006030400000000604640000000060304000000006038400000000604640000000000000000000000000000002000000000000000200000000000012076800000000000000009999123100000010000000000000BRJNJBBDR002132
012020011402JPMC34      010JPMORGAN    DRN ED       R$  000000002899900000000289990000000028712000000002875500000000287250000000000000000000002872500004000000000000001300000000000037382000000000000000009999123100000010000000000000BRJPMCBDR009132
012020011402JPSA3       010JEREISSATI  ON           R$  000000000408100000000041330000000004070000000000409000000000040700000000004070000000000410001249000000000000213700000000000874086000000000000000009999123100000010000000000000BRJPSAACNOR6102
012020011402JSLG3       010JSL         ON  EJ  NM   R$  000000000316800000000032180000000003137000000000318300000000031900000000003187000000000319002928000000000000657500000000002093047100000000000000009999123100000010000000000000BRJSLGACNOR2113
012020011402KEPL3       010KEPLER WEBERON           R$  000000000305000000000030800000000003014000000000304600000000030390000000003009000000000303900256000000000000056400000000000171812200000000000000009999123100000010000000000000BRKEPLACNOR1048
012020011402KHCB34      010KRAFT HEINZ DRN          R$  000000001288000000000128800000000012880000000001288000000000128800000000013000000000001399000001000000000000000300000000000003864000000000000000009999123100000010000000000000BRKHCBBDR007118
012020011402KLBN3       010KLABIN S/A  ON      N2   R$  000000000043600000000004360000000000430000000000043300000000004340000000000434000000000043500712000000000000273800000000000118584000000000000000009999123100000010000000000000BRKLBNACNOR2155
012020011402KLBN4       010KLABIN S/A  PN      N2   R$  000000000040500000000004190000000000402000000000041000000000004150000000000415000000000041602706000000000001325600000000000543683500000000000000009999123100000010000000000000BRKLBNACNPR9155
012020011402KLBN11      010KLABIN S/A  UNT     N2   R$  000000000205000000000021100000000002034000000000208400000000021080000000002105000000000210820827000000000006003400000000012513382700000000000000009999123100000010000000000000BRKLBNCDAM18127
012020011402LAME3       010LOJAS AMERICON  EJ  N1   R$  000000000209000000000021660000000002075000000000214900000000021600000000002160000000000216105908000000000002748500000000005909032300000000000000009999123100000010000000000000BRLAMEACNOR9202
012020011402LAME4       010LOJAS AMERICPN  EJ  N1   R$  000000000271100000000028120000000002710000000000277100000000027870000000002775000000000278819020000000000007234700000000020053564200000000000000009999123100000010000000000000BRLAMEACNPR6202
012020011402LCAM3       010LOCAMERICA  ON      NM   R$  000000000244500000000024660000000002432000000000244200000000024400000000002437000000000244009193000000000003302200000000008064957800000000000000009999123100000010000000000000BRLCAMACNOR3131
012020011402LEVE3       010METAL LEVE  ON  EJ  NM   R$  000000000303600000000031000000000003001000000000306300000000031000000000003079000000000310001336000000000000231800000000000710161800000000000000009999123100000010000000000000BRLEVEACNOR2187
012020011402LIGT3       010LIGHT S/A   ON      NM   R$  000000000233200000000023340000000002274000000000229800000000022960000000002295000000000229710041000000000002724000000000006261811100000000000000009999123100000010000000000000BRLIGTACNOR2120
012020011402LINX3       010LINX        ON      NM   R$  000000000357000000000036490000000003467000000000358300000000036490000000003649000000000365007752000000000001405700000000005037798700000000000000009999123100000010000000000000BRLINXACNOR0117
012020011402LLIS3       010LE LIS BLANCON      NM   R$  000000000167500000000016790000000001646000000000165500000000016790000000001660000000000167900454000000000000157700000000000261101600000000000000009999123100000010000000000000BRLLISACNOR4113
012020011402LOGG3       010LOG COM PROPON      NM   R$  000000000317100000000032500000000003149000000000319600000000032490000000003240000000000324901763000000000000399600000000001277209800000000000000009999123100000010000000000000BRLOGGACNOR7102
012020011402LOGN3       010LOG-IN      ON      NM   R$  000000000240000000000025890000000002363000000000250000000000025700000000002570000000000257306992000000000002446900000000006118482500000000000000009999123100000010000000000000BRLOGNACNOR3104
012020011402LPSB3       010LOPES BRASILON      NM   R$  000000000101000000000010100000000000989000000000100200000000009990000000000998000000000099902777000000000000923100000000000925145800000000000000009999123100000010000000000000BRLPSBACNOR0111
012020011402LREN3       010LOJAS RENNERON      NM   R$  000000000584500000000058650000000005676000000000574000000000057630000000005762000000000576324601000000000005573600000000031996756800000000000000009999123100000010000000000000BRLRENACNOR1200
012020011402LUXM4       010TREVISA     PN           R$  000000000280000000000028000000000002800000000000280000000000028000000000002748000000000275000001000000000000000100000000000000280000000000000000009999123100000010000000000000BRLUXMACNPR4045
012020011402MATB11      010IT NOW IMAT CI           R$  000000000394000000000039400000000003897000000000392000000000039000000000003650000000000450000032000000000000002750000000000010782220000000000000009999123100000010000000000000BRMATBCTF001100
012020011402MDIA3       010M.DIASBRANCOON      NM   R$  000000000398500000000039850000000003926000000000394500000000039420000000003942000000000394604704000000000001867300000000007367147500000000000000009999123100000010000000000000BRMDIAACNOR7118
012020011402MDTC34      010MEDTRONIC   DRN          R$  000000002417800000000241780000000024178000000002417800000000241780000000000000000000000000000001000000000000000100000000000002417800000000000000009999123100000010000000000000BRMDTCBDR004115
012020011402MEAL3       010IMC S/A     ON      NM   R$  000000000082000000000008360000000000804000000000081200000000008320000000000831000000000083206305000000000008673600000000007045659100000000000000009999123100000010000000000000BRMEALACNOR9105
012020011402MELI34      010MERCADOLIBREDRN          R$  000000002840000000000284000000000026914000000002704500000000270840000000026800000000000000000012000000000000020200000000000546319600000000000000009999123100000010000000000000BRMELIBDR006100
012020011402MGEL4       010MANGELS INDLPN           R$  000000000082900000000008300000000000825000000000082900000000008290000000000750000000000082900011000000000000006600000000000005472800000000000000009999123100000010000000000000BRMGELACNPR3147
012020011402MGLU3       010MAGAZ LUIZA ON      NM   R$  000000000540000000000055050000000005360000000000541500000000054000000000005400000000000540525011000000000008295200000000044925245200000000000000009999123100000010000000000000BRMGLUACNOR2115
012020011402MILS3       010MILLS       ON      NM   R$  000000000107300000000010930000000001036000000000106300000000010760000000001069000000000107602589000000000000923800000000000982455800000000000000009999123100000010000000000000BRMILSACNOR2112
012020011402MMMC34      0103M          DRN          R$  000000001880000000000188150000000018800000000001880700000000188150000000000000000000000000000003000000000000001000000000000018807500000000000000009999123100000010000000000000BRMMMCBDR000131
012020011402MNDL3       010MUNDIAL     ON           R$  000000000352000000000036500000000003400000000000351700000000036500000000003525000000000365000007000000000000001200000000000004220900000000000000009999123100000010000000000000BRMNDLACNOR4107
012020011402MNPR3       010MINUPAR     ON           R$  000000000058000000000006150000000000580000000000059600000000006050000000000592000000000061000031000000000000008400000000000005007400000000000000009999123100000010000000000000BRMNPRACNOR5122
012020011402MOAR3       010MONT ARANHA ON           R$  000000001770100000000177010000000017701000000001770100000000177010000000017700000000002000000001000000000000000100000000000001770100000000000000009999123100000010000000000000BRMOARACNOR5209
012020011402MOVI3       010MOVIDA      ON  EJ  NM   R$  000000000205000000000020690000000002035000000000205400000000020650000000002064000000000206502966000000000000878900000000001805509600000000000000009999123100000010000000000000BRMOVIACNOR0111
012020011402MRFG3       010MARFRIG     ON      NM   R$  000000000111800000000011480000000001117000000000113300000000011360000000001135000000000113626206000000000014562000000000016507290000000000000000009999123100000010000000000000BRMRFGACNOR0109
012020011402MRVE3       010MRV         ON      NM   R$  000000000215000000000022060000000002135000000000216900000000022050000000002204000000000220513006000000000004690900000000010178408700000000000000009999123100000010000000000000BRMRVEACNOR2120
012020011402MSCD34      010MASTERCARD  DRN ED       R$  000000012900700000001290070000000129007000000012900700000001290070000000000000000000000000000001000000000000000600000000000077404200000000000000009999123100000010000000000000BRMSCDBDR006135
012020011402MSFT34      010MICROSOFT   DRN          R$  000000006752800000000675650000000067016000000006743000000000670160000000000000000000006701600006000000000000001100000000000074174000000000000000009999123100000010000000000000BRMSFTBDR005136
012020011402MTSA4       010METISA      PN           R$  000000000245100000000025000000000002450000000000246600000000024900000000002450000000000249000030000000000000006600000000000016276500000000000000009999123100000010000000000000BRMTSAACNPR9055
012020011402MULT3       010MULTIPLAN   ON      N2   R$  000000000335100000000034110000000003322000000000336700000000034000000000003399000000000340025362000000000004593400000000015467215100000000000000009999123100000010000000000000BRMULTACNOR5127
012020011402MYPK3       010IOCHP-MAXIONON      NM   R$  000000000238100000000024270000000002366000000000239300000000023790000000002378000000000238706231000000000001370600000000003279908000000000000000009999123100000010000000000000BRMYPKACNOR7147
012020011402NEOE3       010NEOENERGIA  ON  EJ  NM   R$  000000000249500000000025380000000002462000000000250500000000025000000000002495000000000250106412000000000001490400000000003733536400000000000000009999123100000010000000000000BRNEOEACNOR3110
012020011402NFLX34      010NETFLIX     DRN          R$  000000014017600000001401760000000140176000000014017600000001401760000000000000000000000000000001000000000000000200000000000028035200000000000000009999123100000010000000000000BRNFLXBDR000101
012020011402NORD3       010NORDON MET  ON           R$  000000000049900000000005130000000000460000000000048100000000005000000000000471000000000049800014000000000000002400000000000001155000000000000000009999123100000010000000000000BRNORDACNOR7135
012020011402NTCO3       010GRUPO NATURAON      NM   R$  000000000432000000000044260000000004308000000000439700000000044260000000004422000000000442817775000000000004145300000000018230693000000000000000009999123100000010000000000000BRNTCOACNOR5100
012020011402NVDC34      010NVIDIA CORP DRN          R$  000000002570200000000257020000000025702000000002570200000000257020000000000000000000000000000001000000000000001100000000000028272200000000000000009999123100000010000000000000BRNVDCBDR008103
012020011402ODPV3       010ODONTOPREV  ON      NM   R$  000000000168100000000017250000000001679000000000169400000000017250000000001722000000000172603852000000000001088100000000001843944400000000000000009999123100000010000000000000BRODPVACNOR4173
012020011402OFSA3       010OUROFINO S/AON      NM   R$  000000000439000000000044400000000004355000000000440200000000044300000000004430000000000444000104000000000000016200000000000071314700000000000000009999123100000010000000000000BROFSAACNOR7109
012020011402OMGE3       010OMEGA GER   ON      NM   R$  000000000409800000000041060000000004019000000000408200000000040900000000004087000000000409102337000000000000346000000000001412679500000000000000009999123100000010000000000000BROMGEACNOR0101
012020011402PARD3       010IHPARDINI   ON      NM   R$  000000000305400000000031000000000003024000000000305900000000030570000000003057000000000306401686000000000000278600000000000852464100000000000000009999123100000010000000000000BRPARDACNOR1112
012020011402PCAR3       010P.ACUCAR-CBDON      N1   R$  000000000909000000000095000000000008710000000000903600000000087100000000008708000000000000000005000000000000000600000000000005422000000000000000009999123100000010000000000000BRPCARACNOR3162
012020011402PCAR4       010P.ACUCAR-CBDPN      N1   R$  000000000895400000000090940000000008862000000000899400000000090100000000009008000000000903010026000000000001742800000000015676200300000000000000009999123100000010000000000000BRPCARACNPR0155
012020011402PEPB34      010PEPSICO INC DRN          R$  000000005640100000000564010000000056401000000005640100000000564010000000000000000000000000000001000000000000000100000000000005640100000000000000009999123100000010000000000000BRPEPBBDR005129
012020011402PETR3       010PETROBRAS   ON      N2   R$  000000000319600000000032140000000003145000000000317200000000031830000000003172000000000318416306000000000006752000000000021421490900000000000000009999123100000010000000000000BRPETRACNOR9190
012020011402PETR4       010PETROBRAS   PN      N2   R$  000000000302300000000030270000000002977000000000299800000000030000000000002999000000000300070173000000000039796500000000119348094100000000000000009999123100000010000000000000BRPETRACNPR6196
012020011402PFIZ34      010PFIZER      DRN          R$  000000001657900000000165790000000016579000000001657900000000165790000000000000000000001657900001000000000000000200000000000003315800000000000000009999123100000010000000000000BRPFIZBDR006137
012020011402PFRM3       010PROFARMA    ON      NM   R$  000000000071200000000007150000000000695000000000070400000000007000000000000700000000000070301700000000000000663700000000000467542900000000000000009999123100000010000000000000BRPFRMACNOR1112
012020011402PIBB11      010IT NOW PIBB CI           R$  000000001978400000000198410000000019652000000001975400000000197880000000019788000000001987500191000000000000020180000000000398639480000000000000009999123100000010000000000000BRPIBBCTF005101
012020011402PINE4       010PINE        PN      N2   R$  000000000046100000000004700000000000450000000000045600000000004520000000000452000000000045500741000000000000455300000000000207943800000000000000009999123100000010000000000000BRPINEACNPR8144
012020011402PLAS3       010PLASCAR PARTON           R$  000000000079600000000009700000000000752000000000085100000000007990000000000772000000000082300248000000000000061400000000000052303500000000000000009999123100000010000000000000BRPLASACNOR2106
012020011402PMAM3       010PARANAPANEMAON      NM   R$  000000000279900000000028500000000002744000000000278600000000027750000000002751000000000277500354000000000000117400000000000327084500000000000000009999123100000010000000000000BRPMAMACNOR3037
012020011402PNVL3       010DIMED       ON           R$  000000006199800000000619980000000061998000000006199800000000619980000000049200000000006150000001000000000000000100000000000006199800000000000000009999123100000010000000000000BRPNVLACNOR9195
012020011402PNVL4       010DIMED       PN           R$  000000004800000000000480000000000048000000000004800000000000480000000000047000000000004780000001000000000000000100000000000004800000000000000000009999123100000010000000000000BRPNVLACNPR6195
012020011402POMO3       010MARCOPOLO   ON      N2   R$  000000000041800000000004340000000000415000000000042500000000004250000000000425000000000042700476000000000000286800000000000121976400000000000000009999123100000010000000000000BRPOMOACNOR0085
012020011402POMO4       010MARCOPOLO   PN      N2   R$  000000000044600000000004730000000000439000000000046100000000004730000000000471000000000047311081000000000012401300000000005720901100000000000000009999123100000010000000000000BRPOMOACNPR7085
012020011402POSI3       010POSITIVO TECON      NM   R$  000000000100300000000010190000000000992000000000099900000000009920000000000991000000000099202252000000000000682200000000000681813600000000000000009999123100000010000000000000BRPOSIACNOR9111
012020011402PPLA11      010PPLA        UNT          R$  000000000011100000000001280000000000111000000000011600000000001120000000000112000000000011303743000000000008559300000000000993765500000000000000009999123100000010000000000000BRPPLAUNT007100
012020011402PRIO3       010PETRORIO    ON      NM   R$  000000000392100000000041110000000003890000000000403500000000041110000000004109000000000411111567000000000002883200000000011635818100000000000000009999123100000010000000000000BRPRIOACNOR1102
012020011402PSSA3       010PORTO SEGUROON      NM   R$  000000000640000000000065090000000006400000000000647300000000065090000000006495000000000650904709000000000000785000000000005081400300000000000000009999123100000010000000000000BRPSSAACNOR7140
012020011402PTBL3       010PORTOBELLO  ON      NM   R$  000000000057300000000005830000000000560000000000057400000000005800000000000580000000000058101615000000000000672200000000000386124200000000000000009999123100000010000000000000BRPTBLACNOR8124
012020011402PTNT4       010PETTENATI   PN           R$  000000000052300000000005310000000000517000000000052600000000005260000000000526000000000052700108000000000000064900000000000034196800000000000000009999123100000010000000000000BRPTNTACNPR3044
012020011402QCOM34      010QUALCOMM    DRN          R$  000000003755900000000375590000000037559000000003755900000000375590000000000000000000000000000001000000000000000700000000000026291300000000000000009999123100000010000000000000BRQCOMBDR007132
012020011402QUAL3       010QUALICORP   ON      NM   R$  000000000417900000000043320000000004154000000000424700000000042960000000004271000000000429715071000000000004195100000000017819660300000000000000009999123100000010000000000000BRQUALACNOR6112
012020011402RADL3       010RAIADROGASILON      NM   R$  000000001119300000000114050000000011047000000001126000000000114050000000011382000000001140505056000000000000969200000000010913717600000000000000009999123100000010000000000000BRRADLACNOR0133
012020011402RAIL3       010RUMO S.A.   ON      NM   R$  000000000258500000000026090000000002562000000000258500000000025800000000002580000000000259012477000000000003856900000000009973787700000000000000009999123100000010000000000000BRRAILACNOR9101
012020011402RANI3       010CELUL IRANI ON           R$  000000000043000000000004300000000000411000000000042100000000004180000000000412000000000041800043000000000000019600000000000008254500000000000000009999123100000010000000000000BRRANIACNOR5051
012020011402RANI4       010CELUL IRANI PN           R$  000000000044400000000004440000000000423000000000043200000000004230000000000423000000000044000011000000000000001900000000000000822200000000000000009999123100000010000000000000BRRANIACNPR2052
012020011402RAPT3       010RANDON PART ON      N1   R$  000000000114000000000011500000000001130000000000114700000000011490000000001141000000000114900106000000000000033800000000000038796100000000000000009999123100000010000000000000BRRAPTACNOR7152
012020011402RAPT4       010RANDON PART PN      N1   R$  000000000145000000000014760000000001432000000000145300000000014560000000001454000000000145610634000000000003551400000000005162639600000000000000009999123100000010000000000000BRRAPTACNPR4152
012020011402RCSL3       010RECRUSUL    ON           R$  000000000023500000000002800000000000230000000000025200000000002700000000000268000000000027000711000000000000432900000000000109122400000000000000009999123100000010000000000000BRRCSLACNOR4130
012020011402RCSL4       010RECRUSUL    PN           R$  000000000022500000000002670000000000223000000000024200000000002640000000000264000000000026508890000000000004735100000000001148871400000000000000009999123100000010000000000000BRRCSLACNPR1130
012020011402RDNI3       010RNI         ON      NM   R$  000000000159100000000016490000000001590000000000162200000000016140000000001607000000000161400044000000000000012400000000000020114900000000000000009999123100000010000000000000BRRDNIACNOR9112
012020011402REDE3       010REDE ENERGIAON           R$  000000000089000000000008960000000000890000000000089400000000008960000000000862000000000089600015000000000000006000000000000005367500000000000000009999123100000010000000000000BRREDEACNOR7113
012020011402RENT3       010LOCALIZA    ON      NM   R$  000000000478400000000048200000000004745000000000478400000000048200000000004815000000000482020281000000000005628500000000026926943000000000000000009999123100000010000000000000BRRENTACNOR4176
012020011402RLOG3       010COSAN LOG   ON      NM   R$  000000000234500000000023450000000002296000000000232500000000023300000000002322000000000233002618000000000000488500000000001136078500000000000000009999123100000010000000000000BRRLOGACNOR4106
012020011402ROMI3       010INDS ROMI   ON      NM   R$  000000000182100000000018630000000001812000000000184400000000018540000000001850000000000185400719000000000000171700000000000316723000000000000000009999123100000010000000000000BRROMIACNOR8171
012020011402RPAD3       010ALFA HOLDINGON           R$  000000000069500000000007000000000000656000000000067300000000006580000000000658000000000069000006000000000000000700000000000000471600000000000000009999123100000010000000000000BRRPADACNOR1196
012020011402RPAD6       010ALFA HOLDINGPNB          R$  000000000096900000000009690000000000969000000000096900000000009690000000000603000000000096500001000000000000001100000000000001065900000000000000009999123100000010000000000000BRRPADACNPB2196
012020011402RSID3       010ROSSI RESID ON      NM   R$  000000000092900000000009700000000000911000000000094100000000009280000000000928000000000093400580000000000000333100000000000313604700000000000000009999123100000010000000000000BRRSIDACNOR8119
012020011402SANB3       010SANTANDER BRON  EDJ      R$  000000000248500000000024850000000002410000000000242300000000024200000000002420000000000244000109000000000000018400000000000044599700000000000000009999123100000010000000000000BRSANBACNOR8151
012020011402SANB4       010SANTANDER BRPN  EDJ      R$  000000000220000000000022120000000002161000000000217800000000021840000000002175000000000218400183000000000000028700000000000062515800000000000000009999123100000010000000000000BRSANBACNPR5151
012020011402SANB11      010SANTANDER BRUNT EDJ      R$  000000000465300000000046830000000004555000000000458700000000046020000000004602000000000460507788000000000002317500000000010631252200000000000000009999123100000010000000000000BRSANBCDAM13144
012020011402SAPR3       010SANEPAR     ON      N2   R$  000000000206900000000020960000000002029000000000205200000000020600000000002043000000000208000212000000000000027100000000000055627000000000000000009999123100000010000000000000BRSAPRACNOR9148
012020011402SAPR4       010SANEPAR     PN      N2   R$  000000000198100000000019840000000001964000000000197400000000019660000000001966000000000197602811000000000000589600000000001164040600000000000000009999123100000010000000000000BRSAPRACNPR6148
012020011402SAPR11      010SANEPAR     UNT     N2   R$  000000000999500000000100240000000009888000000000997700000000100000000000009999000000001001301932000000000000307700000000003069989000000000000000009999123100000010000000000000BRSAPRCDAM13107
012020011402SBSP3       010SABESP      ON      NM   R$  000000000600100000000061530000000006001000000000609200000000061210000000006121000000000612318401000000000003278200000000019974015300000000000000009999123100000010000000000000BRSBSPACNOR5156
012020011402SBUB34      010STARBUCKS   DRN          R$  000000003773400000000377340000000037734000000003773400000000377340000000000000000000000000000001000000000000000700000000000026413800000000000000009999123100000010000000000000BRSBUBBDR005127
012020011402SCAR3       010SAO CARLOS  ON      NM   R$  000000000497400000000052050000000004900000000000505000000000051000000000005003000000000510000057000000000000009100000000000045958600000000000000009999123100000010000000000000BRSCARACNOR7127
012020011402SEER3       010SER EDUCA   ON      NM   R$  000000000287000000000029940000000002846000000000292400000000029940000000002993000000000299403040000000000000564200000000001650035200000000000000009999123100000010000000000000BRSEERACNOR5114
012020011402SGPS3       010SPRINGS     ON      NM   R$  000000000139900000000014150000000001380000000000140100000000014000000000001392000000000140000301000000000000129300000000000181254400000000000000009999123100000010000000000000BRSGPSACNOR4104
012020011402SHOW3       010TIME FOR FUNON      NM   R$  000000000063400000000006420000000000617000000000062900000000006170000000000617000000000062200791000000000000268600000000000169207600000000000000009999123100000010000000000000BRSHOWACNOR7105
012020011402SHUL4       010SCHULZ      PN           R$  000000000112000000000011320000000001105000000000111700000000011140000000001114000000000111700731000000000000230200000000000257184100000000000000009999123100000010000000000000BRSHULACNPR4135
012020011402SLCE3       010SLC AGRICOLAON      NM   R$  000000000248300000000025040000000002414000000000246200000000024590000000002458000000000245904989000000000001122600000000002764863900000000000000009999123100000010000000000000BRSLCEACNOR2113
012020011402SMAL11      010ISHARES SMALCI           R$  000000001417700000000143200000000014117000000001422300000000143200000000014310000000001432008194000000000000272920000000003881890590000000000000009999123100000010000000000000BRSMALCTF002100
012020011402SMLS3       010SMILES      ON      NM   R$  000000000406000000000040890000000004000000000000405100000000040890000000004073000000000408902769000000000000469400000000001901606700000000000000009999123100000010000000000000BRSMLSACNOR1108
012020011402SMTO3       010SAO MARTINHOON      NM   R$  000000000252600000000026150000000002526000000000258800000000026020000000002602000000000260307861000000000001537900000000003980795500000000000000009999123100000010000000000000BRSMTOACNOR3116
012020011402SPXI11      010IT NOW SPXI CI           R$  000000001445800000000146070000000014177000000001422200000000141980000000013951000000001419800034000000000000006100000000000086754760000000000000009999123100000010000000000000BRSPXICTF003100
012020011402SQIA3       010SINQIA      ON      NM   R$  000000000245100000000025240000000002441000000000248300000000025000000000002499000000000250002559000000000000805800000000002001418500000000000000009999123100000010000000000000BRSQIAACNOR6102
012020011402SSFO34      010SALESFORCE  DRN          R$  000000003787100000000378710000000037871000000003787100000000378710000000000000000000000000000001000000000000000700000000000026509700000000000000009999123100000010000000000000BRSSFOBDR003100
012020011402STBP3       010SANTOS BRP  ON      NM   R$  000000000084500000000008450000000000829000000000083700000000008370000000000836000000000083805846000000000002230600000000001867235100000000000000009999123100000010000000000000BRSTBPACNOR3116
012020011402SULA3       010SUL AMERICA ON      N2   R$  000000000257700000000026790000000002508000000000257000000000025120000000002511000000000258900022000000000000003100000000000007968600000000000000009999123100000010000000000000BRSULAACNOR2138
012020011402SULA4       010SUL AMERICA PN      N2   R$  000000000185000000000019000000000001835000000000185200000000018390000000001850000000000249900015000000000000002800000000000005187600000000000000009999123100000010000000000000BRSULAACNPR9138
012020011402SULA11      010SUL AMERICA UNT     N2   R$  000000000629100000000064390000000006235000000000634500000000064390000000006415000000000644014376000000000002261600000000014351220800000000000000009999123100000010000000000000BRSULACDAM12138
012020011402SUZB3       010SUZANO S.A. ON      NM   R$  000000000447500000000045050000000004420000000000447000000000044250000000004425000000000442825797000000000005938500000000026547576900000000000000009999123100000010000000000000BRSUZBACNOR0124
012020011402TAEE3       010TAESA       ON      N2   R$  000000000102800000000010330000000001017000000000102100000000010240000000001024000000000102700164000000000000024900000000000025442200000000000000009999123100000010000000000000BRTAEEACNOR9129
012020011402TAEE4       010TAESA       PN      N2   R$  000000000101500000000010340000000001011000000000101900000000010190000000001016000000000102300245000000000000055600000000000056658300000000000000009999123100000010000000000000BRTAEEACNPR6129
012020011402TAEE11      010TAESA       UNT     N2   R$  000000000307100000000030810000000003036000000000306100000000030810000000003058000000000308308185000000000002082800000000006377031000000000000000009999123100000010000000000000BRTAEECDAM10129
012020011402TASA3       010TAURUS ARMASON      N2   R$  000000000051800000000005340000000000493000000000051000000000005060000000000506000000000050700304000000000000180000000000000091932100000000000000009999123100000010000000000000BRTASAACNOR7100
012020011402TASA4       010TAURUS ARMASPN      N2   R$  000000000061600000000006200000000000585000000000060000000000005870000000000587000000000058802360000000000001651000000000000992000400000000000000009999123100000010000000000000BRTASAACNPR4100
012020011402TCSA3       010TECNISA     ON      NM   R$  000000000019100000000001950000000000187000000000019000000000001940000000000194000000000019511540000000000031298100000000005969142400000000000000009999123100000010000000000000BRTCSAACNOR3111
012020011402TECN3       010TECHNOS     ON      NM   R$  000000000033800000000003500000000000335000000000034000000000003360000000000336000000000033800798000000000000533400000000000181658200000000000000009999123100000010000000000000BRTECNACNOR6106
012020011402TELB3       010TELEBRAS    ON           R$  000000000960200000000096020000000009602000000000960200000000096020000000009602000000001019000006000000000000001000000000000009602000000000000000009999123100000010000000000000BRTELBACNOR2139
012020011402TELB4       010TELEBRAS    PN           R$  000000000285000000000028510000000002750000000000280100000000027900000000002772000000000279800060000000000000012600000000000035299100000000000000009999123100000010000000000000BRTELBACNPR9139
012020011402TEND3       010TENDA       ON      NM   R$  000000000334300000000034890000000003308000000000343700000000034890000000003482000000000348907053000000000001381600000000004748963900000000000000009999123100000010000000000000BRTENDACNOR4107
012020011402TESA3       010TERRA SANTA ON      NM   R$  000000000244400000000024500000000002380000000000242200000000023800000000002380000000000240000163000000000000029700000000000071944700000000000000009999123100000010000000000000BRTESAACNOR9101
012020011402TGMA3       010TEGMA       ON      NM   R$  000000000399900000000040300000000003961000000000400500000000040300000000004025000000000403001482000000000000211000000000000845230900000000000000009999123100000010000000000000BRTGMAACNOR7133
012020011402TIET3       010AES TIETE E ON      N2   R$  000000000039000000000003930000000000375000000000038700000000003910000000000391000000000039200596000000000000258200000000000099995500000000000000009999123100000010000000000000BRTIETACNOR0122
012020011402TIET4       010AES TIETE E PN      N2   R$  000000000029000000000002940000000000289000000000029000000000002940000000000292000000000029400608000000000000458300000000000133335200000000000000009999123100000010000000000000BRTIETACNPR7122
012020011402TIET11      010AES TIETE E UNT     N2   R$  000000000155700000000015680000000001535000000000155500000000015680000000001562000000000156807873000000000001851500000000002880159700000000000000009999123100000010000000000000BRTIETCDAM15122
012020011402TIMP3       010TIM PART S/AON      NM   R$  000000000163000000000016440000000001617000000000162900000000016400000000001630000000000164008262000000000005710400000000009303467800000000000000009999123100000010000000000000BRTIMPACNOR1113
012020011402TOTS3       010TOTVS       ON      NM   R$  000000000696500000000070330000000006892000000000695800000000069650000000006957000000000696513030000000000002179100000000015163721100000000000000009999123100000010000000000000BRTOTSACNOR8133
012020011402TRIS3       010TRISUL      ON      NM   R$  000000000168600000000016980000000001639000000000166000000000016650000000001664000000000166505406000000000001536000000000002550979100000000000000009999123100000010000000000000BRTRISACNOR4112
012020011402TRPL3       010TRAN PAULISTON      N1   R$  000000000279300000000028850000000002793000000000287400000000028770000000002803000000000287700009000000000000002200000000000006323300000000000000009999123100000010000000000000BRTRPLACNOR4174
012020011402TRPL4       010TRAN PAULISTPN      N1   R$  000000000224000000000022530000000002222000000000223400000000022360000000002236000000000223706669000000000001506200000000003365024400000000000000009999123100000010000000000000BRTRPLACNPR1174
012020011402TSLA34      010TESLA INC   DRN          R$  000000005550000000000561500000000055285000000005565500000000561500000000048000000000000000000006000000000000000600000000000033393100000000000000009999123100000010000000000000BRTSLABDR008100
012020011402TUPY3       010TUPY        ON      NM   R$  000000000263100000000026890000000002628000000000266800000000026770000000002670000000000267701839000000000000391600000000001044963700000000000000009999123100000010000000000000BRTUPYACNOR1175
012020011402U1BE34      010UBER TECH INDRN          R$  000000001444600000000144460000000014446000000001444600000000144460000000000000000000000000000002000000000000001200000000000017335200000000000000009999123100000010000000000000BRU1BEBDR009100
012020011402UCAS3       010UNICASA     ON      NM   R$  000000000062000000000006350000000000614000000000062300000000006300000000000626000000000063001043000000000000476800000000000297405000000000000000009999123100000010000000000000BRUCASACNOR1106
012020011402UGPA3       010ULTRAPAR    ON      NM   R$  000000000253000000000025680000000002501000000000254100000000025600000000002559000000000256023202000000000007616300000000019357867000000000000000009999123100000010000000000000BRUGPAACNOR8145
012020011402UNIP3       010UNIPAR      ON           R$  000000000354400000000036300000000003544000000000360100000000036250000000003595000000000362500164000000000000112100000000000403760700000000000000009999123100000010000000000000BRUNIPACNOR7191
012020011402UNIP6       010UNIPAR      PNB          R$  000000000353200000000036150000000003518000000000359700000000036130000000003605000000000361400810000000000000153200000000000551187500000000000000009999123100000010000000000000BRUNIPACNPB8191
012020011402USIM3       010USIMINAS    ON      N1   R$  000000000099600000000010000000000000990000000000099700000000009990000000000992000000000099900105000000000000047600000000000047488700000000000000009999123100000010000000000000BRUSIMACNOR3159
012020011402USIM5       010USIMINAS    PNA     N1   R$  000000000095700000000009650000000000949000000000095700000000009580000000000957000000000095811207000000000011799500000000011300968400000000000000009999123100000010000000000000BRUSIMACNPA6161
012020011402VALE3       010VALE        ON      NM   R$  000000000553000000000056350000000005500000000000559600000000055640000000005564000000000556546860000000000027817000000000155680213000000000000000009999123100000010000000000000BRVALEACNOR0199
012020011402VERZ34      010VERIZON     DRN ED       R$  000000002444400000000244440000000024444000000002444400000000244440000000000000000000002444400001000000000000000200000000000004888800000000000000009999123100000010000000000000BRVERZBDR008132
012020011402VIGT11      010FIP VINCI IECI           R$  000000001102100000000112620000000010870000000001094600000000109000000000010900000000001125000199000000000000012777000000000139861324000000000000009999123100000010000000000000BRVIGTCTF004100
012020011402VISA34      010VISA INC    DRN          R$  000000008100100000000810010000000081001000000008100100000000810010000000000000000000000000000001000000000000000200000000000016200200000000000000009999123100000010000000000000BRVISABDR000128
012020011402VIVA3       010VIVARA S.A. ON      NM   R$  000000000300000000000030440000000002990000000000301400000000030300000000003021000000000303002709000000000000723900000000002181879400000000000000009999123100000010000000000000BRVIVAACNOR0101
012020011402VIVT3       010TELEF BRASILON           R$  000000000519000000000052940000000005129000000000517800000000052940000000005148000000000529400408000000000000046900000000000242875100000000000000009999123100000010000000000000BRVIVTACNOR0148
012020011402VIVT4       010TELEF BRASILPN           R$  000000000586800000000058680000000005782000000000582200000000058450000000005833000000000584505160000000000001091700000000006355993900000000000000009999123100000010000000000000BRVIVTACNPR7148
012020011402VLID3       010VALID       ON      NM   R$  000000000174800000000018460000000001746000000000181100000000018460000000001845000000000184604219000000000001410000000000002554569800000000000000009999123100000010000000000000BRVLIDACNOR5134
012020011402VULC3       010VULCABRAS   ON      NM   R$  000000000092800000000009410000000000918000000000092900000000009340000000000934000000000093503349000000000000799300000000000743266300000000000000009999123100000010000000000000BRVULCACNOR2149
012020011402VVAR3       010VIAVAREJO   ON      NM   R$  000000000127000000000013360000000001261000000000131200000000013350000000001331000000000133562870000000000062864700000000082527652300000000000000009999123100000010000000000000BRVVARACNOR1109
012020011402WALM34      010WAL MART    DRN          R$  000000001201100000000120110000000012011000000001201100000000120110000000000000000000001201100001000000000000000300000000000003603300000000000000009999123100000010000000000000BRWALMBDR005137
012020011402WEGE3       010WEG         ON      NM   R$  000000000344400000000035000000000003409000000000346100000000035000000000003493000000000350014915000000000005027000000000017401322100000000000000009999123100000010000000000000BRWEGEACNOR0195
012020011402WFCO34      010WELLS FARGO DRN          R$  000000002100900000000210090000000020422000000002057500000000204220000000000000000000002042200003000000000000000500000000000010287500000000000000009999123100000010000000000000BRWFCOBDR009138
012020011402WHRL3       010WHIRLPOOL   ON           R$  000000000091900000000009900000000000919000000000094300000000009850000000000935000000000098500038000000000000009900000000000009341500000000000000009999123100000010000000000000BRWHRLACNOR5122
012020011402WHRL4       010WHIRLPOOL   PN           R$  000000000100000000000010010000000000990000000000099600000000009910000000000995000000000099700047000000000000021000000000000020916800000000000000009999123100000010000000000000BRWHRLACNPR2122
012020011402WIZS3       010WIZ S.A.    ON      NM   R$  000000000148000000000015050000000001475000000000148700000000014870000000001485000000000148703819000000000000715400000000001064091400000000000000009999123100000010000000000000BRWIZSACNOR1104
012020011402WLMM3       010WLM IND COM ON           R$  000000000170200000000017020000000001650000000000169100000000016500000000001361000000000175000005000000000000000500000000000000845700000000000000009999123100000010000000000000BRWLMMACNOR6101
012020011402WLMM4       010WLM IND COM PN           R$  000000000170200000000017500000000001702000000000172200000000017500000000001750000000000184900003000000000000000500000000000000861200000000000000009999123100000010000000000000BRWLMMACNPR3101
012020011402WSON33      010WILSON SONS DR3          R$  000000000470000000000047000000000004699000000000469900000000047000000000004688000000000470000012000000000000004000000000000018799900000000000000009999123100000010000000000000BRWSONBDR009112
012020011402XBOV11      010CAIXAETFXBOVCI           R$  000000001180000000000118000000000011505000000001158800000000115420000000011541000000001179000005000000000000000050000000000000579430000000000000009999123100000010000000000000BRXBOVCTF005100
012020011402XPIE11      010FIP XP INFRACI           R$  000000001016000000000103500000000010090000000001011100000000100900000000010090000000001034900032000000000000007932000000000080204150000000000000009999123100000010000000000000BRXPIECTF003101
012020011402XPOM11      010FIP XP OMEGACI           R$  000000001026000000000105000000000010260000000001049500000000105000000000010261000000001058000021000000000000001220000000000012804047000000000000009999123100000010000000000000BRXPOMCTF004119
012020011402YDUQ3       010YDUQS PART  ON      NM   R$  000000000477100000000048700000000004728000000000482500000000048700000000004867000000000487010341000000000002586400000000012481885600000000000000009999123100000010000000000000BRYDUQACNOR3100
012020011405AZEV3       010AZEVEDO     ON           R$  000000000084800000000009490000000000820000000000088900000000008380000000000838000000000089000169000000000000058800000000000052286400000000000000009999123100000010000000000000BRAZEVACNOR0117
012020011405AZEV4       010AZEVEDO     PN           R$  000000000053800000000005670000000000526000000000054900000000005540000000000550000000000055400441000000000000211900000000000116419100000000000000009999123100000010000000000000BRAZEVACNPR7117
