00COTAHIST.2020BOVESPA 20200113                                                                                                                                                                                                                      
012020011302A1LX34      010ALEXION PHARDRN          R$  000000002333500000000233350000000023335000000002333500000000233350000000000000000000000000000001000000000000000900000000000021001500000000000000009999123100000010000000000000BRA1LXBDR002100
012020011302AALL34      010AMERICAN AIRDRN          R$  000000001125600000000112560000000011256000000001125600000000112560000000000000000000000000000001000000000000000100000000000001125600000000000000009999123100000010000000000000BRAALLBDR003114
012020011302AALR3       010ALLIAR      ON      NM   R$  000000000209600000000021930000000002096000000000214500000000021880000000002181000000000218905276000000000001170300000000002511410900000000000000009999123100000010000000000000BRAALRACNOR6101
012020011302AAPL34      010APPLE       DRN          R$  000000001271000000000131800000000012710000000001305700000000131800000000013100000000001318000016000000000000017500000000000228499400000000000000009999123100000010000000000000BRAAPLBDR004131
012020011302ABCB4       010ABC BRASIL  PN  EJ  N2   R$  000000000204000000000020590000000002022000000000204500000000020580000000002050000000000205903125000000000000589900000000001206380000000000000000009999123100000010000000000000BRABCBACNPR4133
012020011302ABEV3       010AMBEV S/A   ON           R$  000000000189300000000019350000000001891000000000191700000000019210000000001914000000000192133356000000000019314500000000037032938700000000000000009999123100000010000000000000BRABEVACNOR1122
012020011302ABTT34      010ABBOTT      DRN          R$  000000000882000000000088200000000008760000000000880500000000087600000000000000000000000000000002000000000000000400000000000003522000000000000000009999123100000010000000000000BRABTTBDR007132
012020011302ACNB34      010ACCENTURE   DRN          R$  000000008614500000000861450000000086145000000008614500000000861450000000000000000000000000000001000000000000000100000000000008614500000000000000009999123100000010000000000000BRACNBBDR006109
012020011302ADBE34      010ADOBE INC   DRN          R$  000000002868300000000286830000000028661000000002867400000000286610000000000000000000000000000002000000000000001600000000000045879600000000000000009999123100000010000000000000BRADBEBDR003100
012020011302ADHM3       010ADVANCED-DH ON           R$  000000000030300000000003030000000000270000000000028300000000002750000000000275000000000027600877000000000000537500000000000152433600000000000000009999123100000010000000000000BRADHMACNOR9101
012020011302AFLT3       010AFLUENTE T  ON           R$  000000000112200000000011220000000001085000000000111100000000011190000000001093000000000111900019000000000000003000000000000003333700000000000000009999123100000010000000000000BRAFLTACNOR1114
012020011302AGRO3       010BRASILAGRO  ON      NM   R$  000000000195100000000019950000000001948000000000197500000000019850000000001975000000000198500482000000000000061800000000000122104800000000000000009999123100000010000000000000BRAGROACNOR7109
012020011302AHEB3       010SPTURIS     ON           R$  000000000300300000000030030000000002999000000000300100000000030010000000002388000000000300100010000000000000001900000000000005702300000000000000009999123100000010000000000000BRAHEBACNOR0105
012020011302ALPA3       010ALPARGATAS  ON      N1   R$  000000000273000000000027650000000002710000000000272400000000027370000000002710000000000273700018000000000000005300000000000014439700000000000000009999123100000010000000000000BRALPAACNOR0228
012020011302ALPA4       010ALPARGATAS  PN      N1   R$  000000000337700000000034190000000003346000000000339300000000033890000000003389000000000340004819000000000001256100000000004263100500000000000000009999123100000010000000000000BRALPAACNPR7228
012020011302ALSO3       010ALIANSCSONAEON      NM   R$  000000000530200000000054740000000005273000000000537200000000053600000000005348000000000536008566000000000001403200000000007538017900000000000000009999123100000010000000000000BRALSOACNOR5100
012020011302ALUP3       010ALUPAR      ON      N2   R$  000000000113100000000011750000000001131000000000115400000000011350000000001135000000000117700050000000000000005600000000000006463500000000000000009999123100000010000000000000BRALUPACNOR8110
012020011302ALUP4       010ALUPAR      PN      N2   R$  000000000084900000000008490000000000832000000000084500000000008450000000000837000000000084500053000000000000009800000000000008286200000000000000009999123100000010000000000000BRALUPACNPR5110
012020011302ALUP11      010ALUPAR      UNT     N2   R$  000000000284900000000028690000000002801000000000284400000000028690000000002861000000000286902844000000000000523900000000001490378500000000000000009999123100000010000000000000BRALUPCDAM15110
012020011302AMAR3       010LOJAS MARISAON      NM   R$  000000000143000000000014400000000001413000000000143100000000014370000000001437000000000143804158000000000001599600000000002289818700000000000000009999123100000010000000000000BRAMARACNOR4112
012020011302AMZO34      010AMAZON      DRN          R$  000000039427800000003942780000000392892000000039346900000003928920000000000000000000000000000004000000000000000400000000000157387700000000000000009999123100000010000000000000BRAMZOBDR002101
012020011302ANIM3       010ANIMA       ON      NM   R$  000000000320000000000032140000000003163000000000319900000000032140000000003196000000000321401801000000000000333000000000001065476800000000000000009999123100000010000000000000BRANIMACNOR6106
012020011302APER3       010ALPER S.A.  ON      NM   R$  000000000304300000000030840000000003010000000000303800000000030330000000003022000000000303300216000000000000041700000000000126696700000000000000009999123100000010000000000000BRAPERACNOR9101
012020011302ARMT34      010ARCELOR     DRN          R$  000000000350800000000035080000000003508000000000350800000000035080000000000000000000000000000001000000000000000500000000000001754000000000000000009999123100000010000000000000BRARMTBDR008117
012020011302ARZZ3       010AREZZO CO   ON      NM   R$  000000000617000000000063240000000006170000000000628900000000062800000000006279000000000628004754000000000000954300000000006002371200000000000000009999123100000010000000000000BRARZZACNOR3137
012020011302ATOM3       010ATOMPAR     ON           R$  000000000020000000000002090000000000193000000000019900000000001970000000000197000000000019800792000000000000587700000000000117327200000000000000009999123100000010000000000000BRATOMACNOR1103
012020011302ATTB34      010ATT INC     DRN ED       R$  000000001572000000000158290000000015720000000001576300000000158290000000000000000000001582900002000000000000000500000000000007881800000000000000009999123100000010000000000000BRATTBBDR007130
012020011302AVGO34      010BROADCOM INCDRN          R$  000000002483300000000248330000000024833000000002483300000000248330000000000000000000000000000001000000000000000300000000000007449900000000000000009999123100000010000000000000BRAVGOBDR003103
012020011302AXPB34      010AMERICAN EXPDRN ED       R$  000000005324700000000535150000000053247000000005333600000000535150000000000000000000000000000002000000000000000600000000000032001800000000000000009999123100000010000000000000BRAXPBBDR007131
012020011302AZUL4       010AZUL        PN      N2   R$  000000000575000000000058390000000005742000000000580200000000058300000000005830000000000583109265000000000002184900000000012678147000000000000000009999123100000010000000000000BRAZULACNPR4100
012020011302B3SA3       010B3          ON  EDJ NM   R$  000000000448400000000044840000000004414000000000444900000000044350000000004433000000000443527627000000000010782700000000047973052000000000000000009999123100000010000000000000BRB3SAACNOR6109
012020011302BABA34      010ALIBABAGR   DRN          R$  000000009573900000000959600000000095739000000009584600000000958370000000000000000000000000000004000000000000000900000000000086262100000000000000009999123100000010000000000000BRBABABDR005100
012020011302BAHI3       010BAHEMA      ON      MA   R$  000000000995000000000099500000000009900000000000992500000000099000000000009900000000000999900002000000000000000200000000000001985000000000000000009999123100000010000000000000BRBAHIACNOR1071
012020011302BALM4       010BAUMER      PN           R$  000000000103900000000014450000000001016000000000126000000000012650000000001262000000000137500119000000000000029500000000000037179900000000000000009999123100000010000000000000BRBALMACNPR2050
012020011302BAUH4       010EXCELSIOR   PN           R$  000000000734000000000073400000000007200000000000728000000000072000000000007200000000000747400003000000000000000300000000000002184000000000000000009999123100000010000000000000BRBAUHACNPR3114
012020011302BAZA3       010AMAZONIA    ON           R$  000000000395000000000039990000000003940000000000395200000000039990000000003911000000000399900005000000000000000700000000000002766900000000000000009999123100000010000000000000BRBAZAACNOR0173
012020011302BBAS3       010BRASIL      ON      NM   R$  000000000499800000000050500000000004961000000000501500000000050420000000005036000000000504231787000000000014181900000000071131064600000000000000009999123100000010000000000000BRBBASACNOR3289
012020011302BBDC3       010BRADESCO    ON  EJ  N1   R$  000000000327500000000033190000000003272000000000330100000000033050000000003300000000000330709582000000000002069400000000006832986800000000000000009999123100000010000000000000BRBBDCACNOR1705
012020011302BBDC4       010BRADESCO    PN  EJ  N1   R$  000000000347800000000034950000000003457000000000348000000000034800000000003478000000000348031218000000000016318400000000056790845200000000000000009999123100000010000000000000BRBBDCACNPR8705
012020011302BBRK3       010BR BROKERS  ON      NM   R$  000000000053500000000005620000000000534000000000054900000000005560000000000549000000000055600315000000000000110500000000000060686400000000000000009999123100000010000000000000BRBBRKACNOR4113
012020011302BBSD11      010BB ETF SP DVCI           R$  000000000961300000000096680000000009590000000000965000000000096680000000009510000000000000000008000000000000004210000000000040628820000000000000009999123100000010000000000000BRBBSDCTF000100
012020011302BBSE3       010BBSEGURIDADEON  ER  NM   R$  000000000364300000000036670000000003571000000000360800000000036130000000003612000000000361318136000000000004647100000000016771040200000000000000009999123100000010000000000000BRBBSEACNOR5115
012020011302BEEF3       010MINERVA     ON      NM   R$  000000000134200000000014560000000001342000000000141200000000014560000000001453000000000145616287000000000006495300000000009176270300000000000000009999123100000010000000000000BRBEEFACNOR6108
012020011302BEES3       010BANESTES    ON  EJ       R$  000000000069200000000007130000000000684000000000069600000000006930000000000688000000000069800158000000000000056100000000000039067700000000000000009999123100000010000000000000BRBEESACNOR9333
012020011302BEES4       010BANESTES    PN  EJ       R$  000000000069600000000007150000000000696000000000070300000000007000000000000699000000000070500019000000000000005500000000000003868400000000000000009999123100000010000000000000BRBEESACNPR6258
012020011302BERK34      010BERKSHIRE   DRN          R$  000000009450600000000950330000000094506000000009477000000000947730000000075100000000009477300003000000000000000500000000000047385100000000000000009999123100000010000000000000BRBERKBDR002100
012020011302BGIP4       010BANESE      PN           R$  000000000376100000000038350000000003744000000000377200000000038350000000003720000000000384000004000000000000000500000000000001886000000000000000009999123100000010000000000000BRBGIPACNPR8197
012020011302BIDI3       010BANCO INTER ON      N2   R$  000000000181700000000018350000000001743000000000181100000000018020000000001800000000000180901578000000000000355400000000000643762100000000000000009999123100000010000000000000BRBIDIACNOR3104
012020011302BIDI4       010BANCO INTER PN      N2   R$  000000000182000000000018590000000001783000000000182100000000017990000000001797000000000179908938000000000003298800000000006007158100000000000000009999123100000010000000000000BRBIDIACNPR0108
012020011302BIDI11      010BANCO INTER UNT     N2   R$  000000000547900000000055800000000005307000000000545400000000054140000000005409000000000541503150000000000000635100000000003464052800000000000000009999123100000010000000000000BRBIDICDAXX3103
012020011302BIIB34      010BIOGEN      DRN          R$  000000002020000000000202000000000020200000000002020000000000202000000000000000000000000000000001000000000000000100000000000002020000000000000000009999123100000010000000000000BRBIIBBDR001101
012020011302BIOM3       010BIOMM       ON      MA   R$  000000000171400000000017140000000001646000000000167000000000016480000000001648000000000165000189000000000000068100000000000113741200000000000000009999123100000010000000000000BRBIOMACNOR2107
012020011302BKBR3       010BK BRASIL   ON      NM   R$  000000000174200000000017980000000001730000000000176200000000017980000000001798000000000179901718000000000000424300000000000747835400000000000000009999123100000010000000000000BRBKBRACNOR4102
012020011302BKNG34      010BOOKING     DRN          R$  000000003460000000000346000000000034600000000003460000000000346000000000000000000000000000000001000000000000000100000000000003460000000000000000009999123100000010000000000000BRBKNGBDR006100
012020011302BMEB4       010MERC BRASIL PN           R$  000000000135500000000013750000000001340000000000134500000000013700000000001347000000000137000028000000000000012700000000000017083900000000000000009999123100000010000000000000BRBMEBACNPR5200
012020011302BMGB4       010BANCO BMG   PN      N1   R$  000000000093000000000009830000000000929000000000094400000000009760000000000976000000000097807692000000000006790000000000006412622600000000000000009999123100000010000000000000BRBMGBACNPR0101
012020011302BMIN4       010MERC INVEST PN           R$  000000000197000000000019700000000001962000000000196800000000019620000000001960000000000215000004000000000000000500000000000000984200000000000000009999123100000010000000000000BRBMINACNPR1170
012020011302BMKS3       010BIC MONARK  ON           R$  000000002710000000000283000000000027000000000002714600000000283000000000026501000000002830000004000000000000000015000000000000407200000000000000009999123100000010000000000000BRBMKSACNOR9161
012020011302BMYB34      010BRISTOLMYERSDRN ED       R$  000000002747600000000274760000000027476000000002747600000000274760000000000000000000000000000001000000000000000100000000000002747600000000000000009999123100000010000000000000BRBMYBBDR000125
012020011302BOAC34      010BANK AMERICADRN          R$  000000001442300000000145560000000014423000000001446100000000145560000000000000000000001455600002000000000000000700000000000010122700000000000000009999123100000010000000000000BRBOACBDR004137
012020011302BOBR4       010BOMBRIL     PN           R$  000000000022900000000002800000000000229000000000025500000000002780000000000277000000000027901750000000000001882100000000000480679200000000000000009999123100000010000000000000BRBOBRACNPR3128
012020011302BONY34      010BNY MELLON  DRN          R$  000000002111400000000211140000000021114000000002111400000000211140000000000000000000000000000001000000000000000100000000000002111400000000000000009999123100000010000000000000BRBONYBDR001117
012020011302BOVA11      010ISHARES BOVACI           R$  000000001115000000000113080000000011150000000001126100000000113080000000011298000000001130844235000000000005051680000000056891977000000000000000009999123100000010000000000000BRBOVACTF003104
012020011302BOVB11      010ETF BRAD BOVCI           R$  000000001160000000000117280000000011600000000001172200000000117260000000011726000000001187700078000000000000098130000000001150365400000000000000009999123100000010000000000000BRBOVBCTF001100
012020011302BOVV11      010IT NOW IBOV CI           R$  000000001161500000000117900000000011615000000001177300000000117850000000011785000000001180000478000000000000472970000000005568693480000000000000009999123100000010000000000000BRBOVVCTF009100
012020011302BOXP34      010BOSTON PROP DRN          R$  000000000563900000000056390000000005639000000000563900000000056390000000000000000000000000000001000000000000001000000000000005639000000000000000009999123100000010000000000000BRBOXPBDR008118
012020011302BPAC3       010BTGP BANCO  ON  EJ  N2   R$  000000000388000000000040000000000003880000000000392800000000040000000000003960000000000475000005000000000000000500000000000001964000000000000000009999123100000010000000000000BRBPACACNOR7121
012020011302BPAC5       010BTGP BANCO  PNA EJ  N2   R$  000000000210000000000021500000000002100000000000213200000000021300000000002130000000000220000006000000000000000700000000000001493000000000000000009999123100000010000000000000BRBPACACNPA0121
012020011302BPAC11      010BTGP BANCO  UNT EJ  N2   R$  000000000764000000000077400000000007618000000000767400000000076330000000007631000000000766008013000000000001522800000000011687114400000000000000009999123100000010000000000000BRBPACUNT006106
012020011302BPAN4       010BANCO PAN   PN      N1   R$  000000000114600000000011800000000001142000000000116500000000011700000000001169000000000117004159000000000002223400000000002592414900000000000000009999123100000010000000000000BRBPANACNPR1107
012020011302BRAP3       010BRADESPAR   ON      N1   R$  000000000354100000000036590000000003541000000000361800000000036500000000003650000000000366200031000000000000012400000000000044867900000000000000009999123100000010000000000000BRBRAPACNOR5136
012020011302BRAP4       010BRADESPAR   PN      N1   R$  000000000388000000000040040000000003878000000000395700000000039900000000003975000000000399011683000000000002426600000000009602751700000000000000009999123100000010000000000000BRBRAPACNPR2136
012020011302BRAX11      010ISHARES BRAXCI           R$  000000000970000000000097700000000009633000000000970000000000097100000000009695000000000972200023000000000000002100000000000020370630000000000000009999123100000010000000000000BRBRAXCTF002100
012020011302BRDT3       010PETROBRAS BRON      NM   R$  000000000284500000000028930000000002818000000000286600000000028790000000002878000000000287918651000000000008537600000000024469016600000000000000009999123100000010000000000000BRBRDTACNOR1119
012020011302BRFS3       010BRF SA      ON      NM   R$  000000000363600000000036780000000003635000000000366100000000036700000000003667000000000367010474000000000003905500000000014298429800000000000000009999123100000010000000000000BRBRFSACNOR8119
012020011302BRGE3       010ALFA CONSORCON           R$  000000000110000000000012190000000001100000000000114500000000012190000000001095000000000121900013000000000000001500000000000001718000000000000000009999123100000010000000000000BRBRGEACNOR6202
012020011302BRGE8       010ALFA CONSORCPND          R$  000000000092000000000010000000000000900000000000094000000000010000000000000910000000000102000003000000000000000300000000000000282000000000000000009999123100000010000000000000BRBRGEACNPD3212
012020011302BRGE12      010ALFA CONSORCPNF          R$  000000000053100000000006270000000000531000000000059300000000006270000000000617000000000062500009000000000000001000000000000000593200000000000000009999123100000010000000000000BRBRGEACNPF8096
012020011302BRIV3       010ALFA INVEST ON           R$  000000000098900000000009890000000000920000000000098500000000009850000000000903000000000098000013000000000000002600000000000002562700000000000000009999123100000010000000000000BRBRIVACNOR6205
012020011302BRIV4       010ALFA INVEST PN           R$  000000000102200000000010220000000001022000000000102200000000010220000000001022000000000109800001000000000000000100000000000000102200000000000000009999123100000010000000000000BRBRIVACNPR3209
012020011302BRKM3       010BRASKEM     ON      N1   R$  000000000380000000000038800000000003561000000000373000000000036100000000003610000000000366800167000000000000038500000000000143614300000000000000009999123100000010000000000000BRBRKMACNOR1117
012020011302BRKM5       010BRASKEM     PNA     N1   R$  000000000350900000000035570000000003385000000000348200000000034000000000003400000000000341015241000000000004289300000000014938612300000000000000009999123100000010000000000000BRBRKMACNPA4117
012020011302BRML3       010BR MALLS PARON      NM   R$  000000000186000000000019040000000001857000000000188600000000019040000000001900000000000190416798000000000005267500000000009935645900000000000000009999123100000010000000000000BRBRMLACNOR9115
012020011302BRPR3       010BR PROPERT  ON      NM   R$  000000000154800000000015560000000001527000000000154000000000015560000000001540000000000155604174000000000001636000000000002520387500000000000000009999123100000010000000000000BRBRPRACNOR9118
012020011302BRSR3       010BANRISUL    ON      N1   R$  000000000227100000000023250000000002271000000000229600000000023250000000002300000000000232400013000000000000002300000000000005282200000000000000009999123100000010000000000000BRBRSRACNOR3166
012020011302BRSR6       010BANRISUL    PNB     N1   R$  000000000211300000000021280000000002091000000000210900000000021150000000002113000000000211505461000000000001483300000000003128884500000000000000009999123100000010000000000000BRBRSRACNPB4169
012020011302BSEV3       010BIOSEV      ON      NM   R$  000000000036100000000004250000000000361000000000040300000000003900000000000389000000000039001025000000000000450900000000000182019800000000000000009999123100000010000000000000BRBSEVACNOR3102
012020011302BTOW3       010B2W DIGITAL ON      NM   R$  000000000667000000000069170000000006631000000000681200000000069170000000006915000000000691705593000000000001352800000000009215444200000000000000009999123100000010000000000000BRBTOWACNOR8110
012020011302BTTL3       010BATTISTELLA ON           R$  000000000065900000000006710000000000652000000000066100000000006520000000000652000000000066800020000000000000005500000000000003639700000000000000009999123100000010000000000000BRBTTLACNOR0108
012020011302CAMB3       010CAMBUCI     ON           R$  000000000068000000000006810000000000650000000000065100000000006500000000000649000000000065000156000000000000190600000000000124256600000000000000009999123100000010000000000000BRCAMBACNOR4119
012020011302CAML3       010CAMIL       ON      NM   R$  000000000093900000000009470000000000928000000000093500000000009300000000000929000000000093005144000000000001422600000000001331342200000000000000009999123100000010000000000000BRCAMLACNOR3108
012020011302CARD3       010CSU CARDSYSTON      NM   R$  000000000141700000000014550000000001397000000000142700000000014390000000001433000000000143901912000000000000767300000000001095222700000000000000009999123100000010000000000000BRCARDACNOR9116
012020011302CATP34      010CATERPILLAR DRN          R$  000000006068500000000610860000000060685000000006088500000000610860000000000000000000000000000002000000000000000200000000000012177100000000000000009999123100000010000000000000BRCATPBDR003133
012020011302CBEE3       010AMPLA ENERG ON           R$  000000000199000000000020900000000001990000000000203500000000020700000000001950000000000200000007000000000000000700000000000001425000000000000000009999123100000010000000000000BRCBEEACNOR3154
012020011302CCPR3       010CYRE COM-CCPON      NM   R$  000000000260300000000026200000000002563000000000259200000000025900000000002587000000000259001490000000000000283100000000000734038600000000000000009999123100000010000000000000BRCCPRACNOR9113
012020011302CCRO3       010CCR SA      ON      NM   R$  000000000181600000000018300000000001794000000000180800000000018300000000001828000000000183031069000000000009012300000000016294821700000000000000009999123100000010000000000000BRCCROACNOR2136
012020011302CEAB3       010CEA MODAS   ON  EJ  NM   R$  000000000164900000000016850000000001644000000000166200000000016800000000001679000000000168004973000000000002402600000000003995357200000000000000009999123100000010000000000000BRCEABACNOR1101
012020011302CEBR5       010CEB         PNA          R$  000000000629900000000062990000000006299000000000629900000000062990000000006299000000000639500004000000000000000400000000000002519600000000000000009999123100000010000000000000BRCEBRACNPA8116
012020011302CEBR6       010CEB         PNB          R$  000000000546300000000054640000000005463000000000546300000000054630000000005450000000000554000003000000000000000300000000000001639000000000000000009999123100000010000000000000BRCEBRACNPB6116
012020011302CEDO4       010CEDRO       PN      N1   R$  000000000082600000000008260000000000810000000000081800000000008110000000000810000000000082700027000000000000007100000000000005809400000000000000009999123100000010000000000000BRCEDOACNPR5128
012020011302CEPE5       010CELPE       PNA EJ       R$  000000000260000000000026000000000002600000000000260000000000026000000000002500000000000270000001000000000000000100000000000000260000000000000000009999123100000010000000000000BRCEPEACNPA6162
012020011302CESP3       010CESP        ON      N1   R$  000000000313200000000031960000000003121000000000315300000000031740000000003130000000000317600082000000000000052300000000000164907100000000000000009999123100000010000000000000BRCESPACNOR3168
012020011302CESP6       010CESP        PNB     N1   R$  000000000317000000000031850000000003120000000000314500000000031430000000003143000000000314707308000000000001381400000000004345756200000000000000009999123100000010000000000000BRCESPACNPB4127
012020011302CGAS3       010COMGAS      ON           R$  000000002000300000000209010000000020003000000002045200000000209010000000020901000000002250000002000000000000000200000000000004090400000000000000009999123100000010000000000000BRCGASACNOR0150
012020011302CGAS5       010COMGAS      PNA          R$  000000002149900000000217340000000019400000000002091200000000213500000000021350000000002145000117000000000000014800000000000309502500000000000000009999123100000010000000000000BRCGASACNPA3147
012020011302CGRA3       010GRAZZIOTIN  ON           R$  000000000282100000000028470000000002790000000000282400000000028460000000002793000000000284800013000000000000001500000000000004236300000000000000009999123100000010000000000000BRCGRAACNOR2070
012020011302CGRA4       010GRAZZIOTIN  PN           R$  000000000292500000000029680000000002875000000000293800000000029680000000002941000000000296800026000000000000006600000000000019392900000000000000009999123100000010000000000000BRCGRAACNPR9070
012020011302CHCM34      010CHARTER COMMDRN          R$  000000004251500000000425150000000042515000000004251500000000425150000000000000000000000000000001000000000000000100000000000004251500000000000000009999123100000010000000000000BRCHCMBDR001100
012020011302CHME34      010CME GROUP   DRN          R$  000000002117600000000211760000000021176000000002117600000000211760000000000000000000000000000001000000000000000100000000000002117600000000000000009999123100000010000000000000BRCHMEBDR007103
012020011302CHVX34      010CHEVRON     DRN          R$  000000002418300000000241830000000024183000000002418300000000241830000000000000000000002418300001000000000000000100000000000002418300000000000000009999123100000010000000000000BRCHVXBDR008135
012020011302CIEL3       010CIELO       ON  EJ  NM   R$  000000000074300000000007570000000000739000000000074500000000007430000000000743000000000074412548000000000011458700000000008540041800000000000000009999123100000010000000000000BRCIELACNOR3141
012020011302CLSC4       010CELESC      PN  EJ  N2   R$  000000000515000000000051990000000005149000000000515000000000051990000000005050000000000520000055000000000000030700000000000158129700000000000000009999123100000010000000000000BRCLSCACNPR3114
012020011302CMCS34      010COMCAST     DRN ED       R$  000000001901000000000190610000000018865000000001898900000000190610000000000000000000000000000003000000000000002600000000000049373900000000000000009999123100000010000000000000BRCMCSBDR008133
012020011302CMIG3       010CEMIG       ON      N1   R$  000000000167200000000017140000000001672000000000169900000000017000000000001700000000000170205975000000000001815400000000003085408000000000000000009999123100000010000000000000BRCMIGACNOR6223
012020011302CMIG4       010CEMIG       PN      N1   R$  000000000150000000000015400000000001500000000000152800000000015350000000001531000000000153524963000000000010626100000000016240247400000000000000009999123100000010000000000000BRCMIGACNPR3224
012020011302CNTO3       010CENTAURO    ON      NM   R$  000000000393500000000040550000000003919000000000399500000000040260000000004026000000000404007212000000000001839000000000007347581300000000000000009999123100000010000000000000BRCNTOACNOR5100
012020011302COCA34      010COCA COLA   DRN          R$  000000002335100000000233510000000023351000000002335100000000233510000000000000000000000000000001000000000000000300000000000007005300000000000000009999123100000010000000000000BRCOCABDR002133
012020011302COCE3       010COELCE      ON           R$  000000000520800000000052080000000005208000000000520800000000052080000000005200000000000750000001000000000000000300000000000001562400000000000000009999123100000010000000000000BRCOCEACNOR0138
012020011302COCE5       010COELCE      PNA          R$  000000000640000000000064350000000006387000000000640500000000063870000000006387000000000640700143000000000000017600000000000112734700000000000000009999123100000010000000000000BRCOCEACNPA3139
012020011302COGN3       010COGNA ON    ON      NM   R$  000000000122000000000012700000000001212000000000125200000000012550000000001254000000000125527986000000000013486000000000016892611200000000000000009999123100000010000000000000BRCOGNACNOR2101
012020011302COPH34      010COPHILLIPS  DRN          R$  000000000674200000000067660000000006742000000000675100000000067660000000000000000000000000000002000000000000002200000000000014854000000000000000009999123100000010000000000000BRCOPHBDR009132
012020011302COWC34      010COSTCO      DRN          R$  000000003117100000000312360000000031089000000003115000000000312360000000000000000000000000000003000000000000002200000000000068531800000000000000009999123100000010000000000000BRCOWCBDR006116
012020011302CPFE3       010CPFL ENERGIAON      NM   R$  000000000359600000000036250000000003572000000000359900000000035860000000003586000000000358813176000000000003147100000000011326635900000000000000009999123100000010000000000000BRCPFEACNOR0129
012020011302CPLE3       010COPEL       ON      N1   R$  000000000752500000000076670000000007472000000000760700000000076600000000007660000000000767100935000000000000149500000000001137273300000000000000009999123100000010000000000000BRCPLEACNOR8139
012020011302CPLE6       010COPEL       PNB     N1   R$  000000000719100000000074200000000007165000000000732200000000074200000000007402000000000742005581000000000001027000000000007520097200000000000000009999123100000010000000000000BRCPLEACNPB9136
012020011302CRFB3       010CARREFOUR BRON      NM   R$  000000000236600000000024190000000002343000000000237400000000023430000000002343000000000234916126000000000005034400000000011954275800000000000000009999123100000010000000000000BRCRFBACNOR2105
012020011302CRIV3       010ALFA FINANC ON           R$  000000000062300000000006230000000000623000000000062300000000006230000000000611000000000062300005000000000000001200000000000000747600000000000000009999123100000010000000000000BRCRIVACNOR4193
012020011302CRIV4       010ALFA FINANC PN           R$  000000000069700000000007050000000000693000000000070000000000006930000000000693000000000070400023000000000000007200000000000005041500000000000000009999123100000010000000000000BRCRIVACNPR1202
012020011302CRPG3       010CRISTAL     ON           R$  000000000320000000000032000000000003200000000000320000000000032000000000002750000000000315000001000000000000000300000000000000960000000000000000009999123100000010000000000000BRCRPGACNOR0107
012020011302CRPG5       010CRISTAL     PNA          R$  000000000258000000000028150000000002580000000000270600000000027330000000002733000000000274400150000000000000054100000000000146417100000000000000009999123100000010000000000000BRCRPGACNPA3107
012020011302CRPG6       010CRISTAL     PNB          R$  000000000258000000000026400000000002579000000000259600000000026400000000002619000000000265000009000000000000002100000000000005453100000000000000009999123100000010000000000000BRCRPGACNPB1107
012020011302CSAB4       010SEG AL BAHIAPN           R$  000000000450200000000045020000000004502000000000450200000000045020000000004501000000000500000001000000000000000100000000000000450200000000000000009999123100000010000000000000BRCSABACNPR8057
012020011302CSAN3       010COSAN       ON      NM   R$  000000000728800000000074920000000007288000000000744000000000074920000000007492000000000749509347000000000001512400000000011252615400000000000000009999123100000010000000000000BRCSANACNOR6119
012020011302CSCO34      010CISCO       DRN ED       R$  000000001984600000000198460000000019846000000001984600000000198460000000000000000000000000000001000000000000000100000000000001984600000000000000009999123100000010000000000000BRCSCOBDR004136
012020011302CSMG3       010COPASA      ON      NM   R$  000000000667100000000067800000000006608000000000666300000000067150000000006715000000000672704490000000000000885800000000005902588100000000000000009999123100000010000000000000BRCSMGACNOR5154
012020011302CSNA3       010SID NACIONALON           R$  000000000143100000000015120000000001431000000000147900000000015070000000001506000000000150721094000000000013116300000000019411213000000000000000009999123100000010000000000000BRCSNAACNOR6251
012020011302CTGP34      010CITIGROUP   DRN          R$  000000003347200000000334720000000033472000000003347200000000334720000000000000000000003347200001000000000000000100000000000003347200000000000000009999123100000010000000000000BRCTGPBDR000136
012020011302CTKA3       010KARSTEN     ON           R$  000000000125000000000012500000000001250000000000125000000000012500000000001051000000000125000001000000000000000100000000000000125000000000000000009999123100000010000000000000BRCTKAACNOR0043
012020011302CTKA4       010KARSTEN     PN           R$  000000000142300000000015500000000001360000000000146000000000015500000000001550000000000164900051000000000000012000000000000017527800000000000000009999123100000010000000000000BRCTKAACNPR7043
012020011302CTNM3       010COTEMINAS   ON           R$  000000000157600000000017100000000001530000000000156400000000016010000000001551000000000163100029000000000000003900000000000006102300000000000000009999123100000010000000000000BRCTNMACNOR9130
012020011302CTNM4       010COTEMINAS   PN           R$  000000000109500000000011270000000001031000000000109900000000010800000000001080000000000108500183000000000000053100000000000058407000000000000000009999123100000010000000000000BRCTNMACNPR6129
012020011302CTSA3       010SANTANENSE  ON           R$  000000000066700000000006990000000000665000000000067400000000006690000000000669000000000068000055000000000000009800000000000006612100000000000000009999123100000010000000000000BRCTSAACNOR3059
012020011302CTSA4       010SANTANENSE  PN           R$  000000000069600000000006960000000000696000000000069600000000006960000000000645000000000069500002000000000000000300000000000000208800000000000000009999123100000010000000000000BRCTSAACNPR0059
012020011302CVCB3       010CVC BRASIL  ON      NM   R$  000000000421500000000042910000000004151000000000418800000000041600000000004159000000000416013713000000000003094800000000012962465100000000000000009999123100000010000000000000BRCVCBACNOR1112
012020011302CYRE3       010CYRELA REALTON      NM   R$  000000000317800000000032400000000003157000000000321200000000032250000000003213000000000322515644000000000005493100000000017645927900000000000000009999123100000010000000000000BRCYREACNOR7133
012020011302DASA3       010DASA        ON  EJ       R$  000000000550000000000055000000000005425000000000543100000000054250000000005700000000000702500002000000000000001200000000000006517500000000000000009999123100000010000000000000BRDASAACNOR1119
012020011302DDNB34      010DUPONT N INCDRN          R$  000000002502000000000250200000000025018000000002501900000000250180000000000000000000000000000002000000000000000400000000000010007800000000000000009999123100000010000000000000BRDDNBBDR008102
012020011302DIRR3       010DIRECIONAL  ON      NM   R$  000000000159800000000016160000000001570000000000160100000000016070000000001604000000000160804327000000000000777700000000001245308100000000000000009999123100000010000000000000BRDIRRACNOR0112
012020011302DISB34      010WALT DISNEY DRN          R$  000000006012000000000604900000000059600000000005974100000000596000000000059600000000007000000006000000000000002300000000000137405100000000000000009999123100000010000000000000BRDISBBDR006114
012020011302DIVO11      010IT NOW IDIV CI           R$  000000000689900000000069700000000006899000000000694400000000069480000000006948000000000697200105000000000000017350000000000120479600000000000000009999123100000010000000000000BRDIVOCTF002100
012020011302DMMO3       010DOMMO       ON           R$  000000000024100000000002420000000000217000000000022700000000002200000000000220000000000022106698000000000005645000000000001284208300000000000000009999123100000010000000000000BRDMMOACNOR0102
012020011302DTEX3       010DURATEX     ON      NM   R$  000000000178000000000017900000000001756000000000177400000000017720000000001769000000000177511010000000000002448300000000004345694600000000000000009999123100000010000000000000BRDTEXACNOR3128
012020011302EALT4       010ACO ALTONA  PN           R$  000000000069300000000007110000000000693000000000070400000000007060000000000702000000000070600392000000000000081600000000000057460800000000000000009999123100000010000000000000BREALTACNPR1132
012020011302ECOO11      010ISHARES ECOOCI           R$  000000001201500000000121100000000011995000000001203700000000121100000000011900000000001211000004000000000000000050000000000000601890000000000000009999123100000010000000000000BRECOOCTF008100
012020011302ECOR3       010ECORODOVIAS ON      NM   R$  000000000164100000000016790000000001630000000000164500000000016650000000001662000000000166511778000000000002185200000000003595817500000000000000009999123100000010000000000000BRECORACNOR8116
012020011302EGIE3       010ENGIE BRASILON      NM   R$  000000000523900000000053690000000005239000000000532200000000053360000000005336000000000534906846000000000001193000000000006349696800000000000000009999123100000010000000000000BREGIEACNOR9112
012020011302ELEK4       010ELEKEIROZ   PN           R$  000000000176500000000017650000000001765000000000176500000000017650000000001735000000000177800002000000000000000200000000000000353000000000000000009999123100000010000000000000BRELEKACNPR2124
012020011302ELET3       010ELETROBRAS  ON      N1   R$  000000000401000000000040600000000003985000000000402300000000040200000000004013000000000402013423000000000003047700000000012263736100000000000000009999123100000010000000000000BRELETACNOR6154
012020011302ELET6       010ELETROBRAS  PNB     N1   R$  000000000405100000000041200000000004044000000000408000000000040790000000004078000000000407915832000000000002656800000000010841946700000000000000009999123100000010000000000000BRELETACNPB7071
012020011302EMAE4       010EMAE        PN           R$  000000000369300000000036940000000003679000000000369100000000036940000000003694000000000369800052000000000000009900000000000036544900000000000000009999123100000010000000000000BREMAEACNPR1113
012020011302EMBR3       010EMBRAER     ON      NM   R$  000000000201100000000020530000000002008000000000204000000000020460000000002045000000000204712435000000000002421400000000004941075100000000000000009999123100000010000000000000BREMBRACNOR4189
012020011302ENAT3       010ENAUTA PART ON      NM   R$  000000000168000000000017510000000001680000000000172700000000017390000000001721000000000173904149000000000001179000000000002036723400000000000000009999123100000010000000000000BRENATACNOR0100
012020011302ENBR3       010ENERGIAS BR ON  EJ  NM   R$  000000000226800000000022980000000002246000000000226600000000022670000000002265000000000226711956000000000002414700000000005471953800000000000000009999123100000010000000000000BRENBRACNOR2128
012020011302ENEV3       010ENEVA       ON      NM   R$  000000000456900000000046250000000004551000000000456900000000045600000000004559000000000456007950000000000001754500000000008017322900000000000000009999123100000010000000000000BRENEVACNOR8104
012020011302ENGI3       010ENERGISA    ON      N2   R$  000000000134400000000013450000000001315000000000132300000000013150000000001315000000000132600037000000000000004900000000000006486100000000000000009999123100000010000000000000BRENGIACNOR0136
012020011302ENGI4       010ENERGISA    PN      N2   R$  000000000105000000000010600000000001049000000000105400000000010580000000000950000000000108500031000000000000007500000000000007909500000000000000009999123100000010000000000000BRENGIACNPR7132
012020011302ENGI11      010ENERGISA    UNT     N2   R$  000000000555400000000055890000000005499000000000553400000000055260000000005526000000000553005087000000000001228300000000006798003900000000000000009999123100000010000000000000BRENGICDAM16126
012020011302ENMA3B      010CEMAR       ON      MB   R$  000000000500000000000050000000000005000000000000500000000000050000000000004400000000000500000001000000000000000100000000000000500000000000000000009999123100000010000000000000BRENMAACNOR5118
012020011302ENMT3       010ENERGISA MT ON           R$  000000000299900000000029990000000002999000000000299900000000029990000000002800000000000300000001000000000000000100000000000000299900000000000000009999123100000010000000000000BRENMTACNOR5110
012020011302EQPA3       010EQTL PARA   ON           R$  000000000034700000000003650000000000347000000000035800000000003640000000000362000000000036400102000000000000047500000000000017039900000000000000009999123100000010000000000000BREQPAACNOR1100
012020011302EQPA5       010EQTL PARA   PNA          R$  000000000064200000000006420000000000640000000000064100000000006400000000000630000000000067000003000000000000000300000000000000192400000000000000009999123100000010000000000000BREQPAACNPA4100
012020011302EQPA7       010EQTL PARA   PNC          R$  000000000062300000000006280000000000623000000000062400000000006280000000000628000000000071000003000000000000000600000000000000374800000000000000009999123100000010000000000000BREQPAACNPC0100
012020011302EQTL3       010EQUATORIAL  ON      NM   R$  000000000238900000000024230000000002385000000000239900000000023890000000002389000000000239917850000000000008970800000000021526668000000000000000009999123100000010000000000000BREQTLACNOR0125
012020011302EUCA3       010EUCATEX     ON      N1   R$  000000000326300000000033000000000003000000000000320000000000030000000000002850000000000300000044000000000000006500000000000020805900000000000000009999123100000010000000000000BREUCAACNOR1151
012020011302EUCA4       010EUCATEX     PN      N1   R$  000000000083000000000008370000000000817000000000082700000000008300000000000823000000000083000293000000000000105500000000000087292700000000000000009999123100000010000000000000BREUCAACNPR8038
012020011302EVEN3       010EVEN        ON      NM   R$  000000000166900000000016940000000001649000000000167200000000016800000000001679000000000168007624000000000002010000000000003362428900000000000000009999123100000010000000000000BREVENACNOR8111
012020011302EXXO34      010EXXON MOBIL DRN          R$  000000000719300000000072600000000007193000000000722600000000072600000000000000000000000726000002000000000000000800000000000005781200000000000000009999123100000010000000000000BREXXOBDR006137
012020011302EZTC3       010EZTEC       ON      NM   R$  000000000564800000000056850000000005601000000000563500000000056150000000005615000000000564712242000000000002402800000000013541937200000000000000009999123100000010000000000000BREZTCACNOR0113
012020011302F1NI34      010FIDELITY NATDRN          R$  000000001478000000000147800000000014780000000001478000000000147800000000000000000000000000000001000000000000001300000000000019214000000000000000009999123100000010000000000000BRF1NIBDR004100
012020011302FBOK34      010FACEBOOK    DRN          R$  000000004500000000000460060000000045000000000004583700000000459140000000044400000000000000000006000000000000001800000000000082506800000000000000009999123100000010000000000000BRFBOKBDR006100
012020011302FCCQ11      010FIP CONQUESTCI           R$  000000000075100000000008000000000000740000000000074600000000008000000000000680000000000084900006000000000000000111000000000000082863000000000000009999123100000010000000000000BRFCCQCTF005100
012020011302FESA3       010FERBASA     ON      N1   R$  000000000320000000000032000000000003200000000000320000000000032000000000002850000000000315000001000000000000000100000000000000320000000000000000009999123100000010000000000000BRFESAACNOR8170
012020011302FESA4       010FERBASA     PN      N1   R$  000000000200300000000020110000000001976000000000199200000000020070000000001999000000000200701764000000000000412300000000000821687900000000000000009999123100000010000000000000BRFESAACNPR5066
012020011302FIND11      010IT NOW IFNC CI           R$  000000001228100000000126000000000012280000000001251600000000125100000000012510000000001272000019000000000000000880000000000011014520000000000000009999123100000010000000000000BRFINDCTF007100
012020011302FLRY3       010FLEURY      ON  EJ  NM   R$  000000000314100000000031410000000003088000000000310600000000031000000000003099000000000310212162000000000002049200000000006366140300000000000000009999123100000010000000000000BRFLRYACNOR5126
012020011302FNAM11      010FINAM       CI *         R$  000000000001500000000000160000000000015000000000001500000000000160000000000015000000000001600082000000000042824000000000000000660464000000000000009999123100010000000000000000BRFNAMCTF013002
012020011302FNOR11      010FINOR       CI *         R$  000000000002200000000000230000000000022000000000002200000000000230000000000022000000000002301015000000000005075000000000000000115952000000000000009999123100010000000000000000BRFNORCTF013002
012020011302FPOR11      010FIP PORT SUDCI           R$  000000000050000000000005000000000000450000000000046600000000004500000000000450000000000054000007000000000000000379000000000000176715000000000000009999123100000010000000000000BRFPORCTF000101
012020011302FRAS3       010FRAS-LE     ON      N1   R$  000000000068200000000006970000000000681000000000069000000000006930000000000693000000000069500516000000000000200500000000000138437700000000000000009999123100000010000000000000BRFRASACNOR0149
012020011302FRIO3       010METALFRIO   ON      NM   R$  000000000610000000000061000000000006100000000000610000000000061000000000006100000000000650000002000000000000145100000000000885110000000000000000009999123100000010000000000000BRFRIOACNOR2110
012020011302FSPE11      010FISET PESCA CI           R$  000000000005800000000000620000000000055000000000005800000000000550000000000055000000000005700022000000000000032000000000000001863000000000000000009999123100000010000000000000BRFSPECTF017002
012020011302FSRF11      010FISET FL REFCI           R$  000000000002900000000000300000000000028000000000002900000000000300000000000029000000000003000113000000000000400000000000000011679000000000000000009999123100000010000000000000BRFSRFCTF010002
012020011302FSTU11      010FISET TUR   CI           R$  000000000004200000000000460000000000041000000000004300000000000430000000000041000000000004200034000000000000067000000000000002892000000000000000009999123100000010000000000000BRFSTUCTF015002
012020011302GBIO33      010BIOTOSCANA  DR3          R$  000000000099300000000009950000000000990000000000099200000000009930000000000992000000000099300687000000000000189600000000000188091800000000000000009999123100000010000000000000BRGBIOBDR008100
012020011302GDBR34      010GEN DYNAMICSDRN          R$  000000007561000000000756440000000075610000000007562700000000756440000000000000000000000000000002000000000000000200000000000015125400000000000000009999123100000010000000000000BRGDBRBDR002117
012020011302GEOO34      010GE          DRN          R$  000000000498500000000050540000000004985000000000501400000000050540000000004300000000000505400002000000000000000700000000000003510200000000000000009999123100000010000000000000BRGEOOBDR000138
012020011302GEPA3       010GER PARANAP ON           R$  000000000440000000000044000000000004400000000000440000000000044000000000004508000000000549900002000000000000000400000000000001760000000000000000009999123100000010000000000000BRGEPAACNOR2145
012020011302GEPA4       010GER PARANAP PN           R$  000000000500600000000051280000000004989000000000502800000000050780000000005078000000000513200009000000000000000900000000000004525300000000000000009999123100000010000000000000BRGEPAACNPR9152
012020011302GFSA3       010GAFISA      ON      NM   R$  000000000092500000000009590000000000925000000000094100000000009430000000000941000000000094309264000000000007086900000000006674239900000000000000009999123100000010000000000000BRGFSAACNOR3117
012020011302GGBR3       010GERDAU      ON      N1   R$  000000000180000000000018740000000001792000000000183300000000018600000000001860000000000186700332000000000000080300000000000147262900000000000000009999123100000010000000000000BRGGBRACNOR1172
012020011302GGBR4       010GERDAU      PN      N1   R$  000000000212200000000022020000000002120000000000216900000000021840000000002183000000000218418756000000000010442700000000022653220200000000000000009999123100000010000000000000BRGGBRACNPR8172
012020011302GILD34      010GILEAD      DRN          R$  000000001333300000000133330000000013333000000001333300000000133330000000000000000000000000000001000000000000001700000000000022666100000000000000009999123100000010000000000000BRGILDBDR000115
012020011302GNDI3       010INTERMEDICA ON      NM   R$  000000000688200000000070440000000006882000000000698400000000069960000000006994000000000699917093000000000004089900000000028567378800000000000000009999123100000010000000000000BRGNDIACNOR2101
012020011302GOAU3       010GERDAU MET  ON      N1   R$  000000000090600000000009350000000000906000000000092400000000009350000000000935000000000093600282000000000000094600000000000087419200000000000000009999123100000010000000000000BRGOAUACNOR1249
012020011302GOAU4       010GERDAU MET  PN      N1   R$  000000000099500000000010400000000000995000000000101900000000010400000000001034000000000104012227000000000011435000000000011655062700000000000000009999123100000010000000000000BRGOAUACNPR8250
012020011302GOGL34      010ALPHABET    DRN A        R$  000000002369900000000239210000000023699000000002384000000000239210000000023200000000000000000012000000000000005000000000000119202800000000000000009999123100000010000000000000BRGOGLBDR001100
012020011302GOGL35      010ALPHABET    DRN C        R$  000000002373300000000237330000000023733000000002373300000000237330000000000000000000000000000001000000000000000300000000000007119900000000000000009999123100000010000000000000BRGOGLBDR019100
012020011302GOLL4       010GOL         PN      N2   R$  000000000372100000000038200000000003720000000000378300000000038000000000003791000000000380014291000000000004686100000000017731833800000000000000009999123100000010000000000000BRGOLLACNPR4125
012020011302GOVE11      010IT NOW IGCT CI           R$  000000000510100000000051400000000005101000000000510500000000051310000000005136000000000516500005000000000000000310000000000001582720000000000000009999123100000010000000000000BRGOVECTF004100
012020011302GPIV33      010GP INVEST   DR3          R$  000000000068000000000006800000000000668000000000067400000000006680000000000668000000000067700007000000000000006400000000000004317400000000000000009999123100000010000000000000BRGPIVBDR003104
012020011302GPRK34      010GEOPARK LTD DRN          R$  000000000833900000000083390000000008339000000000833900000000083390000000000000000000000000000001000000000000000900000000000007505100000000000000009999123100000010000000000000BRGPRKBDR007101
012020011302GRND3       010GRENDENE    ON      NM   R$  000000000123500000000012500000000001227000000000123500000000012300000000001229000000000123004524000000000001115100000000001378037300000000000000009999123100000010000000000000BRGRNDACNOR3157
012020011302GSGI34      010GOLDMANSACHSDRN          R$  000000001019400000000101940000000010194000000001019400000000101940000000000000000000000000000001000000000000000100000000000001019400000000000000009999123100000010000000000000BRGSGIBDR008137
012020011302GSHP3       010GENERALSHOPPON  EG  NM   R$  000000000820000000000084600000000007600000000000794800000000084000000000008100000000000840000461000000000000087900000000000698676600000000000000009999123100000010000000000000BRGSHPACNOR7102
012020011302GUAR3       010GUARARAPES  ON  EJ       R$  000000000267100000000027500000000002664000000000272800000000027400000000002740000000000274103920000000000001744700000000004759876700000000000000009999123100000010000000000000BRGUARACNOR4165
012020011302HAGA3       010HAGA S/A    ON           R$  000000000048800000000005000000000000484000000000049000000000005000000000000500000000000050600027000000000000010900000000000005343900000000000000009999123100000010000000000000BRHAGAACNOR7103
012020011302HAGA4       010HAGA S/A    PN           R$  000000000026300000000002930000000000261000000000027400000000002930000000000292000000000029300716000000000000466700000000000127969100000000000000009999123100000010000000000000BRHAGAACNPR4103
012020011302HAPV3       010HAPVIDA     ON  EJ  NM   R$  000000000620000000000062670000000006165000000000622000000000062390000000006238000000000623911904000000000002208700000000013738801800000000000000009999123100000010000000000000BRHAPVACNOR4104
012020011302HBOR3       010HELBOR      ON      NM   R$  000000000046800000000004970000000000468000000000048600000000004950000000000494000000000049507067000000000007473300000000003635107200000000000000009999123100000010000000000000BRHBORACNOR3113
012020011302HBTS5       010HABITASUL   PNA          R$  000000000120000000000012000000000001200000000000120000000000012000000000001112000000000124800003000000000000000500000000000000600000000000000000009999123100000010000000000000BRHBTSACNPA3123
012020011302HETA4       010HERCULES    PN           R$  000000000081000000000008490000000000810000000000082300000000008350000000000772000000000084900009000000000000001400000000000001152900000000000000009999123100000010000000000000BRHETAACNPR9136
012020011302HGTX3       010CIA HERING  ON      NM   R$  000000000318700000000033240000000003102000000000321800000000032870000000003279000000000328717726000000000004469600000000014386241900000000000000009999123100000010000000000000BRHGTXACNOR9150
012020011302HOME34      010HOME DEPOT  DRN          R$  000000004630000000000463000000000046300000000004630000000000463000000000000000000000000000000001000000000000002300000000000106490000000000000000009999123100000010000000000000BRHOMEBDR002131
012020011302HONB34      010HONEYWELL   DRN          R$  000000007517600000000755110000000075176000000007531000000000755110000000000000000000000000000002000000000000000500000000000037655000000000000000009999123100000010000000000000BRHONBBDR006124
012020011302HPQB34      010HP COMPANY  DRN          R$  000000000889000000000088900000000008890000000000889000000000088900000000000000000000000000000001000000000000001000000000000008890000000000000000009999123100000010000000000000BRHPQBBDR006130
012020011302HYPE3       010HYPERA      ON      NM   R$  000000000360300000000037260000000003603000000000368300000000037190000000003717000000000371911132000000000002730600000000010058042000000000000000009999123100000010000000000000BRHYPEACNOR0120
012020011302I1VZ34      010INVESCO LTD DRN          R$  000000000733000000000073300000000007330000000000733000000000073300000000000000000000000000000001000000000000000100000000000000733000000000000000009999123100000010000000000000BRI1VZBDR008100
012020011302IBMB34      010IBM         DRN          R$  000000005651900000000565190000000056519000000005651900000000565190000000000000000000000000000001000000000000000200000000000011303800000000000000009999123100000010000000000000BRIBMBBDR003132
012020011302IDNT3       010IDEIASNET   ON           R$  000000000033400000000003830000000000331000000000036700000000003820000000000381000000000038201183000000000000889700000000000326539000000000000000009999123100000010000000000000BRIDNTACNOR5113
012020011302IDVL3       010INDUSVAL    ON      N2   R$  000000000034500000000003700000000000344000000000035400000000003600000000000360000000000036200185000000000000134700000000000047782400000000000000009999123100000010000000000000BRIDVLACNOR5130
012020011302IDVL4       010INDUSVAL    PN      N2   R$  000000000040200000000004700000000000400000000000044400000000004430000000000440000000000044300299000000000000185800000000000082607500000000000000009999123100000010000000000000BRIDVLACNPR2130
012020011302IGTA3       010IGUATEMI    ON      NM   R$  000000000549500000000056600000000005492000000000560500000000056330000000005630000000000563307441000000000001829200000000010254365000000000000000009999123100000010000000000000BRIGTAACNOR5122
012020011302INTU34      010INTUIT INC  DRN ED       R$  000000002874000000000287400000000028740000000002874000000000287400000000000000000000000000000001000000000000000100000000000002874000000000000000009999123100000010000000000000BRINTUBDR003103
012020011302IRBR3       010IRBBRASIL REON      NM   R$  000000000414000000000042440000000004109000000000418200000000041520000000004150000000000415224026000000000008633900000000036107978200000000000000009999123100000010000000000000BRIRBRACNOR4106
012020011302ISUS11      010IT NOW ISE  CI           R$  000000000419700000000042210000000004197000000000419900000000042210000000004215000000000000000008000000000000003000000000000012599760000000000000009999123100000010000000000000BRISUSCTF003100
012020011302ITLC34      010INTEL       DRN          R$  000000002473400000000249000000000024734000000002478100000000249000000000000000000000000000000002000000000000000700000000000017347000000000000000009999123100000010000000000000BRITLCBDR005136
012020011302ITSA3       010ITAUSA      ON      N1   R$  000000000135500000000013720000000001348000000000136200000000013700000000001367000000000137000705000000000000221800000000000302197200000000000000009999123100000010000000000000BRITSAACNOR0396
012020011302ITSA4       010ITAUSA      PN      N1   R$  000000000134700000000013590000000001339000000000135100000000013530000000001352000000000135328897000000000023038400000000031138806100000000000000009999123100000010000000000000BRITSAACNPR7396
012020011302ITUB3       010ITAUUNIBANCOON  ED  N1   R$  000000000306000000000030950000000003047000000000307500000000030830000000003073000000000308301316000000000000340600000000001047578200000000000000009999123100000010000000000000BRITUBACNOR4263
012020011302ITUB4       010ITAUUNIBANCOPN  ED  N1   R$  000000000350200000000035400000000003474000000000351200000000035060000000003505000000000350644776000000000029200700000000102565122200000000000000009999123100000010000000000000BRITUBACNPR1263
012020011302IVVB11      010ISHARE SP500CI           R$  000000001440000000000146050000000014400000000001454200000000146050000000014555000000001460500678000000000000110830000000001611702150000000000000009999123100000010000000000000BRIVVBCTF001100
012020011302JBDU3       010J B DUARTE  ON           R$  000000000040000000000004100000000000371000000000038700000000004000000000000381000000000040000108000000000000037900000000000014698200000000000000009999123100000010000000000000BRJBDUACNOR6142
012020011302JBDU4       010J B DUARTE  PN           R$  000000000022600000000002360000000000212000000000022100000000002170000000000216000000000022100318000000000000251300000000000055753700000000000000009999123100000010000000000000BRJBDUACNPR3142
012020011302JBSS3       010JBS         ON      NM   R$  000000000282700000000028730000000002821000000000285200000000028730000000002872000000000287325264000000000009904200000000028246804200000000000000009999123100000010000000000000BRJBSSACNOR8114
012020011302JFEN3       010JOAO FORTES ON           R$  000000000046000000000004950000000000460000000000047800000000004800000000000478000000000048000878000000000000444200000000000212566200000000000000009999123100000010000000000000BRJFENACNOR0057
012020011302JHSF3       010JHSF PART   ON      NM   R$  000000000081600000000008460000000000811000000000083100000000008400000000000834000000000084011563000000000007488300000000006225147700000000000000009999123100000010000000000000BRJHSFACNOR2115
012020011302JNJB34      010JOHNSON     DRN          R$  000000006024000000000605690000000060180000000006023400000000604240000000000000000000006042400004000000000000001500000000000090351300000000000000009999123100000010000000000000BRJNJBBDR002132
012020011302JPMC34      010JPMORGAN    DRN ED       R$  000000002819000000000285370000000028190000000002822000000000285370000000000000000000000000000010000000000000018400000000000519266000000000000000009999123100000010000000000000BRJPMCBDR009132
012020011302JPSA3       010JEREISSATI  ON           R$  000000000399500000000041000000000003991000000000404500000000040580000000004058000000000409200988000000000000226000000000000914307600000000000000009999123100000010000000000000BRJPSAACNOR6102
012020011302JSLG3       010JSL         ON  EJ  NM   R$  000000000315000000000031990000000003113000000000316700000000031700000000003167000000000317003932000000000000812400000000002573671900000000000000009999123100000010000000000000BRJSLGACNOR2113
012020011302KEPL3       010KEPLER WEBERON           R$  000000000309400000000030940000000003035000000000305500000000030500000000003039000000000305000230000000000000067700000000000206860300000000000000009999123100000010000000000000BRKEPLACNOR1048
012020011302KLBN3       010KLABIN S/A  ON      N2   R$  000000000043500000000004390000000000429000000000043400000000004360000000000435000000000043600698000000000000240200000000000104285700000000000000009999123100000010000000000000BRKLBNACNOR2155
012020011302KLBN4       010KLABIN S/A  PN      N2   R$  000000000038100000000004030000000000381000000000039600000000004030000000000402000000000040302438000000000001037800000000000411764300000000000000009999123100000010000000000000BRKLBNACNPR9155
012020011302KLBN11      010KLABIN S/A  UNT     N2   R$  000000000195300000000020490000000001953000000000202300000000020450000000002044000000000204522910000000000006228900000000012603658500000000000000009999123100000010000000000000BRKLBNCDAM18127
012020011302LAME3       010LOJAS AMERICON  EJ  N1   R$  000000000204000000000020900000000002040000000000207500000000020900000000002087000000000209102869000000000000770500000000001598897600000000000000009999123100000010000000000000BRLAMEACNOR9202
012020011302LAME4       010LOJAS AMERICPN  EJ  N1   R$  000000000265600000000027070000000002642000000000268900000000026990000000002698000000000270016884000000000005211200000000014013833500000000000000009999123100000010000000000000BRLAMEACNPR6202
012020011302LCAM3       010LOCAMERICA  ON  EJ  NM   R$  000000000244400000000024970000000002442000000000246400000000024450000000002442000000000244511748000000000004247300000000010467565900000000000000009999123100000010000000000000BRLCAMACNOR3131
012020011302LEVE3       010METAL LEVE  ON  EJ  NM   R$  000000000298300000000030500000000002968000000000302800000000030450000000003036000000000304501824000000000000335100000000001014880500000000000000009999123100000010000000000000BRLEVEACNOR2187
012020011302LIGT3       010LIGHT S/A   ON      NM   R$  000000000236000000000023740000000002326000000000233900000000023380000000002338000000000233907128000000000001600800000000003744580300000000000000009999123100000010000000000000BRLIGTACNOR2120
012020011302LILY34      010LILLY       DRN          R$  000000002884100000000288410000000028841000000002884100000000288410000000000000000000000000000001000000000000000200000000000005768200000000000000009999123100000010000000000000BRLILYBDR006131
012020011302LINX3       010LINX        ON      NM   R$  000000000345000000000036440000000003430000000000354500000000035370000000003522000000000353706639000000000001349300000000004783569400000000000000009999123100000010000000000000BRLINXACNOR0117
012020011302LLIS3       010LE LIS BLANCON      NM   R$  000000000168500000000016890000000001650000000000167300000000016560000000001656000000000166200200000000000000115800000000000193826600000000000000009999123100000010000000000000BRLLISACNOR4113
012020011302LOGG3       010LOG COM PROPON      NM   R$  000000000317300000000032330000000003160000000000318800000000031680000000003166000000000316801740000000000000328500000000001047514800000000000000009999123100000010000000000000BRLOGGACNOR7102
012020011302LOGN3       010LOG-IN      ON      NM   R$  000000000236900000000023980000000002334000000000236800000000023900000000002390000000000239203425000000000000843200000000001996936000000000000000009999123100000010000000000000BRLOGNACNOR3104
012020011302LPSB3       010LOPES BRASILON      NM   R$  000000000099000000000010160000000000982000000000099900000000010000000000000999000000000100002764000000000000976200000000000975370800000000000000009999123100000010000000000000BRLPSBACNOR0111
012020011302LREN3       010LOJAS RENNERON      NM   R$  000000000573500000000058370000000005732000000000579300000000058370000000005832000000000583714978000000000003699300000000021432625100000000000000009999123100000010000000000000BRLRENACNOR1200
012020011302LUXM4       010TREVISA     PN           R$  000000000279800000000027980000000002798000000000279800000000027980000000002600000000000279800001000000000000000200000000000000559600000000000000009999123100000010000000000000BRLUXMACNPR4045
012020011302MATB11      010IT NOW IMAT CI           R$  000000000385000000000039130000000003770000000000385900000000039080000000003871000000000520000030000000000000006140000000000023699970000000000000009999123100000010000000000000BRMATBCTF001100
012020011302MCDC34      010MCDONALDS   DRN          R$  000000002136600000000214530000000021366000000002136700000000214530000000019500000000000000000002000000000000004600000000000098292300000000000000009999123100000010000000000000BRMCDCBDR000137
012020011302MDIA3       010M.DIASBRANCOON  EJ  NM   R$  000000000400300000000040180000000003969000000000399400000000039690000000003969000000000397407267000000000002076600000000008295703100000000000000009999123100000010000000000000BRMDIAACNOR7118
012020011302MDLZ34      010MONDELEZ INTDRN          R$  000000001133700000000113370000000011337000000001133700000000113370000000000000000000000000000001000000000000000100000000000001133700000000000000009999123100000010000000000000BRMDLZBDR002118
012020011302MDTC34      010MEDTRONIC   DRN          R$  000000002427500000000242750000000024275000000002427500000000242750000000000000000000000000000001000000000000000300000000000007282500000000000000009999123100000010000000000000BRMDTCBDR004115
012020011302MEAL3       010IMC S/A     ON      NM   R$  000000000082400000000008300000000000810000000000081700000000008140000000000813000000000081403554000000000001414900000000001156716400000000000000009999123100000010000000000000BRMEALACNOR9105
012020011302MELI34      010MERCADOLIBREDRN          R$  000000002823000000000282300000000028230000000002823000000000282300000000028400000000000000000001000000000000000100000000000002823000000000000000009999123100000010000000000000BRMELIBDR006100
012020011302MERC4       010MERC FINANC PN           R$  000000000124900000000012490000000001249000000000124900000000012490000000001051000000000124900001000000000000000100000000000000124900000000000000009999123100000010000000000000BRMERCACNPR9172
012020011302MGEL4       010MANGELS INDLPN           R$  000000000083000000000008300000000000825000000000082900000000008250000000000811000000000082500016000000000000005900000000000004896000000000000000009999123100000010000000000000BRMGELACNPR3147
012020011302MGLU3       010MAGAZ LUIZA ON  EJ  NM   R$  000000000522000000000054230000000005215000000000532400000000054230000000005420000000000542325547000000000008576800000000045666276700000000000000009999123100000010000000000000BRMGLUACNOR2115
012020011302MILS3       010MILLS       ON      NM   R$  000000000109200000000011100000000001051000000000107300000000010670000000001059000000000106704717000000000001878800000000002017377100000000000000009999123100000010000000000000BRMILSACNOR2112
012020011302MNDL3       010MUNDIAL     ON           R$  000000000359900000000035990000000003599000000000359900000000035990000000003520000000000359900001000000000000000100000000000000359900000000000000009999123100000010000000000000BRMNDLACNOR4107
012020011302MNPR3       010MINUPAR     ON           R$  000000000057800000000006000000000000578000000000059700000000005930000000000593000000000060000019000000000000008100000000000004837600000000000000009999123100000010000000000000BRMNPRACNOR5122
012020011302MOVI3       010MOVIDA      ON  EJ  NM   R$  000000000204300000000020700000000002016000000000204100000000020550000000002049000000000205504209000000000000980800000000002002309000000000000000009999123100000010000000000000BRMOVIACNOR0111
012020011302MRCK34      010MERCK       DRN          R$  000000003702400000000370240000000037024000000003702400000000370240000000000000000000000000000001000000000000000200000000000007404800000000000000009999123100000010000000000000BRMRCKBDR003137
012020011302MRFG3       010MARFRIG     ON      NM   R$  000000000108500000000011050000000001080000000000109700000000011050000000001105000000000110627611000000000010355200000000011365248900000000000000009999123100000010000000000000BRMRFGACNOR0109
012020011302MRVE3       010MRV         ON      NM   R$  000000000213500000000021590000000002121000000000214100000000021570000000002149000000000215715381000000000005032000000000010776912600000000000000009999123100000010000000000000BRMRVEACNOR2120
012020011302MSCD34      010MASTERCARD  DRN ED       R$  000000013042900000001304290000000130429000000013042900000001304290000000000000000000000000000001000000000000000100000000000013042900000000000000009999123100000010000000000000BRMSCDBDR006135
012020011302MSFT34      010MICROSOFT   DRN          R$  000000006753100000000680270000000067531000000006766400000000677180000000000000000000006771800011000000000000002300000000000155627300000000000000009999123100000010000000000000BRMSFTBDR005136
012020011302MTSA4       010METISA      PN           R$  000000000245100000000025440000000002451000000000250000000000024650000000002465000000000253900052000000000000008100000000000020253800000000000000009999123100000010000000000000BRMTSAACNPR9055
012020011302MULT3       010MULTIPLAN   ON  EJ  N2   R$  000000000330800000000033670000000003308000000000335200000000033500000000003349000000000335219089000000000004083200000000013687868200000000000000009999123100000010000000000000BRMULTACNOR5127
012020011302MUTC34      010MICRON TECHNDRN          R$  000000002373900000000239190000000023739000000002381100000000239190000000000000000000000000000002000000000000000500000000000011905500000000000000009999123100000010000000000000BRMUTCBDR008100
012020011302MYPK3       010IOCHP-MAXIONON      NM   R$  000000000236500000000023980000000002365000000000238200000000023810000000002381000000000239805856000000000001015100000000002418190700000000000000009999123100000010000000000000BRMYPKACNOR7147
012020011302NEOE3       010NEOENERGIA  ON  EJ  NM   R$  000000000246000000000024860000000002450000000000246800000000024810000000002463000000000248105382000000000002136800000000005275716800000000000000009999123100000010000000000000BRNEOEACNOR3110
012020011302NFLX34      010NETFLIX     DRN          R$  000000014126100000001417000000000140336000000014109100000001413180000000000000000000000000000005000000000000000600000000000084655100000000000000009999123100000010000000000000BRNFLXBDR000101
012020011302NIKE34      010NIKE        DRN          R$  000000004245000000000424590000000042450000000004245300000000424590000000000000000000000000000002000000000000000300000000000012735900000000000000009999123100000010000000000000BRNIKEBDR006136
012020011302NORD3       010NORDON MET  ON           R$  000000000045600000000005070000000000456000000000049200000000004950000000000480000000000049500024000000000000003200000000000001577000000000000000009999123100000010000000000000BRNORDACNOR7135
012020011302NTCO3       010GRUPO NATURAON      NM   R$  000000000435000000000043830000000004322000000000435700000000043730000000004372000000000437323812000000000011517500000000050187897100000000000000009999123100000010000000000000BRNTCOACNOR5100
012020011302NVDC34      010NVIDIA CORP DRN          R$  000000002606700000000260670000000026067000000002606700000000260670000000000000000000000000000001000000000000000100000000000002606700000000000000009999123100000010000000000000BRNVDCBDR008103
012020011302ODPV3       010ODONTOPREV  ON      NM   R$  000000000166900000000016890000000001669000000000167900000000016850000000001682000000000168604331000000000000855000000000001435942500000000000000009999123100000010000000000000BRODPVACNOR4173
012020011302OFSA3       010OUROFINO S/AON      NM   R$  000000000445000000000044500000000004356000000000441000000000043900000000004376000000000439000114000000000000020300000000000089539700000000000000009999123100000010000000000000BROFSAACNOR7109
012020011302OMGE3       010OMEGA GER   ON      NM   R$  000000000399100000000041590000000003924000000000402000000000041100000000004098000000000411102734000000000001129500000000004540846700000000000000009999123100000010000000000000BROMGEACNOR0101
012020011302ORCL34      010ORACLE      DRN ED       R$  000000002273400000000227340000000022719000000002272000000000227190000000000000000000000000000003000000000000001500000000000034080000000000000000009999123100000010000000000000BRORCLBDR007132
012020011302PARD3       010IHPARDINI   ON      NM   R$  000000000293500000000030540000000002912000000000301300000000030540000000003023000000000305401793000000000000301700000000000909269000000000000000009999123100000010000000000000BRPARDACNOR1112
012020011302PCAR4       010P.ACUCAR-CBDPN      N1   R$  000000000914000000000091400000000008950000000000900400000000089590000000008959000000000896007989000000000001308800000000011785651300000000000000009999123100000010000000000000BRPCARACNPR0155
012020011302PEPB34      010PEPSICO INC DRN          R$  000000005633500000000568960000000056335000000005656700000000568960000000000000000000000000000003000000000000000600000000000033940600000000000000009999123100000010000000000000BRPEPBBDR005129
012020011302PETR3       010PETROBRAS   ON      N2   R$  000000000321500000000032260000000003189000000000320500000000032090000000003201000000000320911333000000000006666500000000021368565400000000000000009999123100000010000000000000BRPETRACNOR9190
012020011302PETR4       010PETROBRAS   PN      N2   R$  000000000303500000000030430000000003021000000000303200000000030330000000003032000000000303342071000000000030676800000000093038894000000000000000009999123100000010000000000000BRPETRACNPR6196
012020011302PFIZ34      010PFIZER      DRN          R$  000000001622000000000162200000000016220000000001622000000000162200000000000000000000000000000001000000000000000300000000000004866000000000000000009999123100000010000000000000BRPFIZBDR006137
012020011302PFRM3       010PROFARMA    ON      NM   R$  000000000070100000000007170000000000696000000000070900000000007100000000000709000000000071001719000000000000586700000000000415973100000000000000009999123100000010000000000000BRPFRMACNOR1112
012020011302PGCO34      010PG          DRN          R$  000000005181500000000518150000000051815000000005181500000000518150000000000000000000005181500001000000000000000100000000000005181500000000000000009999123100000010000000000000BRPGCOBDR001136
012020011302PIBB11      010IT NOW PIBB CI           R$  000000001957500000000197840000000019575000000001975200000000197840000000019648000000001978400234000000000000054670000000001079867540000000000000009999123100000010000000000000BRPIBBCTF005101
012020011302PINE4       010PINE        PN      N2   R$  000000000045000000000004610000000000445000000000045100000000004560000000000456000000000045700635000000000000415500000000000187767900000000000000009999123100000010000000000000BRPINEACNPR8144
012020011302PLAS3       010PLASCAR PARTON           R$  000000000074600000000007960000000000746000000000075700000000007960000000000790000000000079600043000000000000014500000000000010977600000000000000009999123100000010000000000000BRPLASACNOR2106
012020011302PMAM3       010PARANAPANEMAON      NM   R$  000000000272500000000027990000000002725000000000274900000000027990000000002740000000000279900126000000000000020900000000000057469300000000000000009999123100000010000000000000BRPMAMACNOR3037
012020011302POMO3       010MARCOPOLO   ON      N2   R$  000000000042000000000004210000000000414000000000041600000000004170000000000417000000000041900288000000000000093200000000000038851600000000000000009999123100000010000000000000BRPOMOACNOR0085
012020011302POMO4       010MARCOPOLO   PN      N2   R$  000000000044800000000004500000000000441000000000044500000000004460000000000445000000000044609139000000000008653500000000003851768300000000000000009999123100000010000000000000BRPOMOACNPR7085
012020011302POSI3       010POSITIVO TECON      NM   R$  000000000100000000000010090000000000990000000000099900000000010030000000000998000000000100302265000000000000666400000000000665935800000000000000009999123100000010000000000000BRPOSIACNOR9111
012020011302PPLA11      010PPLA        UNT          R$  000000000011000000000001110000000000108000000000010900000000001100000000000109000000000011000232000000000000369400000000000040460200000000000000009999123100000010000000000000BRPPLAUNT007100
012020011302PRIO3       010PETRORIO    ON      NM   R$  000000000372200000000039150000000003680000000000385100000000038820000000003882000000000388611842000000000002550100000000009822084400000000000000009999123100000010000000000000BRPRIOACNOR1102
012020011302PSSA3       010PORTO SEGUROON      NM   R$  000000000639900000000065330000000006360000000000643300000000063850000000006385000000000638904789000000000000672400000000004325870800000000000000009999123100000010000000000000BRPSSAACNOR7140
012020011302PTBL3       010PORTOBELLO  ON      NM   R$  000000000057700000000005860000000000570000000000057500000000005700000000000570000000000057101825000000000000928900000000000534539000000000000000009999123100000010000000000000BRPTBLACNOR8124
012020011302PTNT4       010PETTENATI   PN           R$  000000000052000000000005230000000000511000000000051800000000005230000000000520000000000052300109000000000000054200000000000028126100000000000000009999123100000010000000000000BRPTNTACNPR3044
012020011302PYPL34      010PAYPAL HOLD DRN          R$  000000002399400000000240630000000023994000000002403700000000240630000000000000000000000000000002000000000000001100000000000026441700000000000000009999123100000010000000000000BRPYPLBDR002101
012020011302QCOM34      010QUALCOMM    DRN          R$  000000003753200000000375320000000037532000000003753200000000375320000000000000000000000000000001000000000000000200000000000007506400000000000000009999123100000010000000000000BRQCOMBDR007132
012020011302QUAL3       010QUALICORP   ON      NM   R$  000000000409300000000041950000000004035000000000411700000000041950000000004183000000000419512671000000000002950000000000012145940400000000000000009999123100000010000000000000BRQUALACNOR6112
012020011302RADL3       010RAIADROGASILON      NM   R$  000000001097900000000112370000000010963000000001114500000000112370000000011237000000001123903621000000000000632800000000007052831900000000000000009999123100000010000000000000BRRADLACNOR0133
012020011302RAIL3       010RUMO S.A.   ON      NM   R$  000000000257800000000025980000000002531000000000257800000000025950000000002592000000000259513977000000000005130600000000013229305500000000000000009999123100000010000000000000BRRAILACNOR9101
012020011302RANI3       010CELUL IRANI ON           R$  000000000042200000000004300000000000400000000000042100000000004300000000000415000000000043000050000000000000018000000000000007586400000000000000009999123100000010000000000000BRRANIACNOR5051
012020011302RANI4       010CELUL IRANI PN           R$  000000000042700000000004390000000000427000000000043100000000004390000000000424000000000044400003000000000000000300000000000000129300000000000000009999123100000010000000000000BRRANIACNPR2052
012020011302RAPT3       010RANDON PART ON      N1   R$  000000000115900000000011700000000001129000000000115400000000011400000000001141000000000115000057000000000000022800000000000026330000000000000000009999123100000010000000000000BRRAPTACNOR7152
012020011302RAPT4       010RANDON PART PN      N1   R$  000000000146500000000014730000000001424000000000144900000000014400000000001437000000000144007297000000000003834400000000005558510300000000000000009999123100000010000000000000BRRAPTACNPR4152
012020011302RCSL3       010RECRUSUL    ON           R$  000000000022600000000002400000000000224000000000022900000000002290000000000226000000000022900227000000000000101400000000000023240000000000000000009999123100000010000000000000BRRCSLACNOR4130
012020011302RCSL4       010RECRUSUL    PN           R$  000000000022100000000002300000000000217000000000022300000000002210000000000220000000000022105104000000000002380900000000000531020200000000000000009999123100000010000000000000BRRCSLACNPR1130
012020011302RDNI3       010RNI         ON      NM   R$  000000000157500000000016000000000001575000000000158400000000015910000000001591000000000160500111000000000000060500000000000095868100000000000000009999123100000010000000000000BRRDNIACNOR9112
012020011302RDSA34      010RD SHELL    DRN          R$  000000002453000000000245300000000024530000000002453000000000245300000000000000000000000000000001000000000000000100000000000002453000000000000000009999123100000010000000000000BRRDSABDR009101
012020011302REDE3       010REDE ENERGIAON           R$  000000000089000000000008900000000000870000000000088900000000008900000000000880000000000089000046000000000000012500000000000011116600000000000000009999123100000010000000000000BRREDEACNOR7113
012020011302RENT3       010LOCALIZA    ON      NM   R$  000000000481100000000048390000000004773000000000479800000000048000000000004799000000000480224253000000000006274800000000030108751600000000000000009999123100000010000000000000BRRENTACNOR4176
012020011302RLOG3       010COSAN LOG   ON      NM   R$  000000000225400000000023500000000002241000000000229500000000023300000000002320000000000234403147000000000000645900000000001482480600000000000000009999123100000010000000000000BRRLOGACNOR4106
012020011302ROMI3       010INDS ROMI   ON      NM   R$  000000000178000000000018500000000001764000000000183300000000018460000000001830000000000184600993000000000000204000000000000373938900000000000000009999123100000010000000000000BRROMIACNOR8171
012020011302RPAD3       010ALFA HOLDINGON           R$  000000000064300000000007000000000000643000000000069000000000006950000000000670000000000069900022000000000000003200000000000002209800000000000000009999123100000010000000000000BRRPADACNOR1196
012020011302RPAD6       010ALFA HOLDINGPNB          R$  000000000096800000000009690000000000968000000000096800000000009690000000000603000000000096000003000000000000000400000000000000387300000000000000009999123100000010000000000000BRRPADACNPB2196
012020011302RSID3       010ROSSI RESID ON      NM   R$  000000000091000000000009300000000000901000000000091300000000009300000000000918000000000093000636000000000000309000000000000282211400000000000000009999123100000010000000000000BRRSIDACNOR8119
012020011302RSUL4       010RIOSULENSE  PN           R$  000000001360000000000136000000000013600000000001360000000000136000000000013100000000001500000001000000000000000100000000000001360000000000000000009999123100000010000000000000BRRSULACNPR3110
012020011302SANB3       010SANTANDER BRON  EDJ      R$  000000000245200000000024990000000002391000000000244200000000024850000000002450000000000248500071000000000000010700000000000026133700000000000000009999123100000010000000000000BRSANBACNOR8151
012020011302SANB4       010SANTANDER BRPN  EDJ      R$  000000000218900000000022240000000002180000000000219800000000022000000000002189000000000222100157000000000000029000000000000063751000000000000000009999123100000010000000000000BRSANBACNPR5151
012020011302SANB11      010SANTANDER BRUNT EDJ      R$  000000000462300000000046880000000004574000000000465200000000046540000000004653000000000465408087000000000002017000000000009383437500000000000000009999123100000010000000000000BRSANBCDAM13144
012020011302SAPP34      010SAP SE      DRN          R$  000000005697700000000569770000000056977000000005697700000000569770000000000000000000000000000001000000000000000100000000000005697700000000000000009999123100000010000000000000BRSAPPBDR007100
012020011302SAPR3       010SANEPAR     ON  EJ  N2   R$  000000000206000000000020980000000002047000000000207600000000020980000000002079000000000209800254000000000000037100000000000077042700000000000000009999123100000010000000000000BRSAPRACNOR9148
012020011302SAPR4       010SANEPAR     PN  EJ  N2   R$  000000000196800000000019810000000001948000000000196400000000019810000000001964000000000198103644000000000000812300000000001595718100000000000000009999123100000010000000000000BRSAPRACNPR6148
012020011302SAPR11      010SANEPAR     UNT EJ  N2   R$  000000000998600000000099990000000009870000000000996100000000099990000000009989000000001000001729000000000000270400000000002693614800000000000000009999123100000010000000000000BRSAPRCDAM13107
012020011302SBSP3       010SABESP      ON      NM   R$  000000000576500000000059910000000005765000000000594900000000059910000000005986000000000599219796000000000004281300000000025473081400000000000000009999123100000010000000000000BRSBSPACNOR5156
012020011302SBUB34      010STARBUCKS   DRN          R$  000000003790000000000380370000000037683000000003786200000000380370000000036000000000000000000003000000000000001000000000000037862300000000000000009999123100000010000000000000BRSBUBBDR005127
012020011302SCAR3       010SAO CARLOS  ON      NM   R$  000000000475600000000049690000000004732000000000483900000000049690000000004815000000000496900072000000000000012100000000000058561800000000000000009999123100000010000000000000BRSCARACNOR7127
012020011302SCHW34      010SCHWAB      DRN          R$  000000001996900000000200110000000019969000000001997200000000200110000000000000000000000000000002000000000000001400000000000027960800000000000000009999123100000010000000000000BRSCHWBDR006115
012020011302SEER3       010SER EDUCA   ON      NM   R$  000000000281200000000028750000000002794000000000284000000000028690000000002869000000000287002260000000000000331200000000000940880200000000000000009999123100000010000000000000BRSEERACNOR5114
012020011302SGPS3       010SPRINGS     ON      NM   R$  000000000139500000000014180000000001375000000000139200000000013980000000001382000000000139800326000000000000091500000000000127409900000000000000009999123100000010000000000000BRSGPSACNOR4104
012020011302SHOW3       010TIME FOR FUNON      NM   R$  000000000062000000000006400000000000618000000000062900000000006340000000000632000000000063401160000000000000420900000000000264942800000000000000009999123100000010000000000000BRSHOWACNOR7105
012020011302SHUL4       010SCHULZ      PN           R$  000000000109900000000011140000000001093000000000110600000000011090000000001105000000000110900695000000000000172900000000000191382000000000000000009999123100000010000000000000BRSHULACNPR4135
012020011302SIMN34      010SIMON PROP  DRN          R$  000000001495000000000149500000000014950000000001495000000000149500000000000000000000000000000001000000000000000200000000000002990000000000000000009999123100000010000000000000BRSIMNBDR002102
012020011302SLBG34      010SCHLUMBERGERDRN          R$  000000001636900000000163690000000016369000000001636900000000163690000000000000000000000000000001000000000000000100000000000001636900000000000000009999123100000010000000000000BRSLBGBDR003134
012020011302SLCE3       010SLC AGRICOLAON      NM   R$  000000000250000000000025280000000002452000000000247900000000024670000000002467000000000246804955000000000001000100000000002480202800000000000000009999123100000010000000000000BRSLCEACNOR2113
012020011302SMAL11      010ISHARES SMALCI           R$  000000001398100000000141900000000013981000000001413100000000141900000000014190000000001419501010000000000000564260000000007973713130000000000000009999123100000010000000000000BRSMALCTF002100
012020011302SMLS3       010SMILES      ON  EJ  NM   R$  000000000404000000000040700000000004014000000000405500000000040600000000004055000000000406002375000000000000387200000000001570146800000000000000009999123100000010000000000000BRSMLSACNOR1108
012020011302SMTO3       010SAO MARTINHOON      NM   R$  000000000251100000000025570000000002502000000000253300000000025230000000002523000000000253005519000000000001038300000000002630738600000000000000009999123100000010000000000000BRSMTOACNOR3116
012020011302SPRI3       010SPRINGER    ON           R$  000000000092100000000009210000000000921000000000092100000000009210000000000921000000000097700001000000000000000100000000000000092100000000000000009999123100000010000000000000BRSPRIACNOR2144
012020011302SPXI11      010IT NOW SPXI CI           R$  000000001419900000000142590000000014158000000001423000000000142590000000014187000000001425900017000000000000001280000000000018214930000000000000009999123100000010000000000000BRSPXICTF003100
012020011302SQIA3       010SINQIA      ON      NM   R$  000000000243000000000024500000000002415000000000243100000000024500000000002446000000000245002288000000000000542200000000001318471100000000000000009999123100000010000000000000BRSQIAACNOR6102
012020011302STBP3       010SANTOS BRP  ON      NM   R$  000000000082800000000008450000000000821000000000083500000000008450000000000844000000000084507083000000000002491500000000002080918200000000000000009999123100000010000000000000BRSTBPACNOR3116
012020011302SULA3       010SUL AMERICA ON      N2   R$  000000000247700000000026450000000002428000000000252900000000026110000000002490000000000264500017000000000000001800000000000004553000000000000000009999123100000010000000000000BRSULAACNOR2138
012020011302SULA4       010SUL AMERICA PN      N2   R$  000000000190200000000019300000000001850000000000189700000000018500000000001850000000000192500015000000000000002400000000000004553200000000000000009999123100000010000000000000BRSULAACNPR9138
012020011302SULA11      010SUL AMERICA UNT     N2   R$  000000000641700000000064320000000006248000000000631000000000062860000000006286000000000630025916000000000004101500000000025884364800000000000000009999123100000010000000000000BRSULACDAM12138
012020011302SUZB3       010SUZANO S.A. ON      NM   R$  000000000435000000000044910000000004326000000000441900000000044700000000004469000000000447021665000000000008944500000000039528586300000000000000009999123100000010000000000000BRSUZBACNOR0124
012020011302TAEE3       010TAESA       ON      N2   R$  000000000101800000000010290000000001010000000000102200000000010290000000001029000000000103000148000000000000026200000000000026780600000000000000009999123100000010000000000000BRTAEEACNOR9129
012020011302TAEE4       010TAESA       PN      N2   R$  000000000102000000000010240000000001010000000000101900000000010150000000001015000000000102400195000000000000041400000000000042212200000000000000009999123100000010000000000000BRTAEEACNPR6129
012020011302TAEE11      010TAESA       UNT     N2   R$  000000000304100000000030710000000003039000000000306200000000030710000000003064000000000307106812000000000001629200000000004989927800000000000000009999123100000010000000000000BRTAEECDAM10129
012020011302TAKP34      010TAKEDAPH    DRN          R$  000000000823000000000082300000000008230000000000823000000000082300000000000000000000000000000001000000000000000300000000000002469000000000000000009999123100000010000000000000BRTAKPBDR006100
012020011302TASA3       010TAURUS ARMASON      N2   R$  000000000054100000000005500000000000517000000000052500000000005190000000000519000000000052400430000000000000347100000000000182573200000000000000009999123100000010000000000000BRTASAACNOR7100
012020011302TASA4       010TAURUS ARMASPN      N2   R$  000000000062400000000006260000000000610000000000061600000000006170000000000615000000000061701454000000000000751000000000000463237200000000000000009999123100000010000000000000BRTASAACNPR4100
012020011302TCSA3       010TECNISA     ON      NM   R$  000000000019000000000001950000000000186000000000019100000000001900000000000189000000000019009901000000000029023300000000005544621300000000000000009999123100000010000000000000BRTCSAACNOR3111
012020011302TECN3       010TECHNOS     ON      NM   R$  000000000035400000000003540000000000330000000000034400000000003410000000000341000000000034600885000000000000602500000000000207320200000000000000009999123100000010000000000000BRTECNACNOR6106
012020011302TELB3       010TELEBRAS    ON           R$  000000000962000000000096200000000009602000000000961500000000096020000000009602000000000970000004000000000000000400000000000003846200000000000000009999123100000010000000000000BRTELBACNOR2139
012020011302TELB4       010TELEBRAS    PN           R$  000000000294500000000029450000000002840000000000285500000000028450000000002845000000000286000066000000000000016600000000000047407100000000000000009999123100000010000000000000BRTELBACNPR9139
012020011302TEND3       010TENDA       ON      NM   R$  000000000332600000000033980000000003278000000000332900000000033440000000003344000000000334812893000000000002285700000000007609231900000000000000009999123100000010000000000000BRTENDACNOR4107
012020011302TESA3       010TERRA SANTA ON      NM   R$  000000000234300000000024500000000002314000000000233100000000024500000000002315000000000245000143000000000000015900000000000037072500000000000000009999123100000010000000000000BRTESAACNOR9101
012020011302TEXA34      010TEXAS INC   DRN          R$  000000005398600000000539860000000053915000000005394100000000539150000000000000000000000000000002000000000000000800000000000043153300000000000000009999123100000010000000000000BRTEXABDR003117
012020011302TGMA3       010TEGMA       ON      NM   R$  000000000403900000000040630000000003964000000000400400000000040000000000004000000000000400502024000000000000303100000000001213830900000000000000009999123100000010000000000000BRTGMAACNOR7133
012020011302TIET3       010AES TIETE E ON      N2   R$  000000000037800000000003900000000000377000000000038500000000003880000000000387000000000038800794000000000000307500000000000118530100000000000000009999123100000010000000000000BRTIETACNOR0122
012020011302TIET4       010AES TIETE E PN      N2   R$  000000000028900000000002910000000000287000000000028900000000002900000000000290000000000029101001000000000000629400000000000182163300000000000000009999123100000010000000000000BRTIETACNPR7122
012020011302TIET11      010AES TIETE E UNT     N2   R$  000000000153500000000015570000000001530000000000154200000000015570000000001556000000000155807588000000000001787400000000002756553200000000000000009999123100000010000000000000BRTIETCDAM15122
012020011302TIMP3       010TIM PART S/AON      NM   R$  000000000163500000000016430000000001609000000000163000000000016330000000001633000000000163512900000000000006492300000000010585753100000000000000009999123100000010000000000000BRTIMPACNOR1113
012020011302TJXC34      010TJX COMPANIEDRN          R$  000000002601100000000260110000000026011000000002601100000000260110000000000000000000000000000001000000000000000100000000000002601100000000000000009999123100000010000000000000BRTJXCBDR008102
012020011302TLNC34      010TELEFONIC   DRN          R$  000000000282000000000028200000000002820000000000282000000000028200000000000000000000000000000001000000000000000100000000000000282000000000000000009999123100000010000000000000BRTLNCBDR005101
012020011302TMOS34      010THERMFISCHERDRN          R$  000000003420900000000344880000000034209000000003423600000000344880000000000000000000000000000002000000000000001000000000000034236900000000000000009999123100000010000000000000BRTMOSBDR007115
012020011302TOTS3       010TOTVS       ON      NM   R$  000000000692500000000069680000000006751000000000690900000000069650000000006963000000000696509314000000000001649100000000011394476300000000000000009999123100000010000000000000BRTOTSACNOR8133
012020011302TRIS3       010TRISUL      ON      NM   R$  000000000167500000000016960000000001656000000000168100000000016800000000001679000000000168004299000000000001409400000000002370381400000000000000009999123100000010000000000000BRTRISACNOR4112
012020011302TRPL3       010TRAN PAULISTON      N1   R$  000000000283600000000028850000000002755000000000282700000000027550000000002752000000000280000031000000000000010500000000000029690500000000000000009999123100000010000000000000BRTRPLACNOR4174
012020011302TRPL4       010TRAN PAULISTPN      N1   R$  000000000221100000000022400000000002205000000000223300000000022400000000002240000000000224107564000000000002674600000000005973590500000000000000009999123100000010000000000000BRTRPLACNPR1174
012020011302TSLA34      010TESLA INC   DRN          R$  000000005374900000000540000000000053749000000005395000000000539950000000048000000000000000000004000000000000001100000000000059345900000000000000009999123100000010000000000000BRTSLABDR008100
012020011302TSNF34      010TYSON FOODS DRN          R$  000000003894300000000389430000000038943000000003894300000000389430000000000000000000000000000001000000000000000200000000000007788600000000000000009999123100000010000000000000BRTSNFBDR003101
012020011302TUPY3       010TUPY        ON      NM   R$  000000000263000000000026800000000002607000000000262800000000026310000000002621000000000263203341000000000000598000000000001571891300000000000000009999123100000010000000000000BRTUPYACNOR1175
012020011302TWTR34      010TWITTER     DRN          R$  000000000676500000000067650000000006756000000000676100000000067560000000000000000000000000000002000000000000000900000000000006084900000000000000009999123100000010000000000000BRTWTRBDR007100
012020011302UCAS3       010UNICASA     ON      NM   R$  000000000060000000000006300000000000599000000000061500000000006140000000000612000000000061401796000000000000867200000000000533895000000000000000009999123100000010000000000000BRUCASACNOR1106
012020011302UGPA3       010ULTRAPAR    ON      NM   R$  000000000250700000000025320000000002491000000000251100000000025320000000002517000000000253218987000000000006026800000000015135621700000000000000009999123100000010000000000000BRUGPAACNOR8145
012020011302ULEV34      010UNILEVER    DRN          R$  000000002359300000000235930000000023593000000002359300000000235930000000000000000000000000000001000000000000000100000000000002359300000000000000009999123100000010000000000000BRULEVBDR002101
012020011302UNHH34      010UNITEDHEALTHDRN          R$  000000002376600000000237660000000023619000000002370400000000236190000000000000000000000000000002000000000000001900000000000045037800000000000000009999123100000010000000000000BRUNHHBDR000103
