00COTAHIST.2020BOVESPA 20200111                                                                                                                                                                                                                      
012020011002A1LX34      010ALEXION PHARDRN          R$  000000002248300000000224830000000022483000000002248300000000224830000000000000000000000000000001000000000000000900000000000020234700000000000000009999123100000010000000000000BRA1LXBDR002100
012020011002AALL34      010AMERICAN AIRDRN          R$  000000001124000000000112400000000011240000000001124000000000112400000000000000000000000000000001000000000000000100000000000001124000000000000000009999123100000010000000000000BRAALLBDR003114
012020011002AALR3       010ALLIAR      ON      NM   R$  000000000200000000000020990000000001998000000000205300000000020950000000002074000000000209504790000000000001498800000000003078323700000000000000009999123100000010000000000000BRAALRACNOR6101
012020011002AAPL34      010APPLE       DRN          R$  000000001271000000000127740000000012610000000001272200000000127740000000011900000000001277400015000000000000013100000000000166669700000000000000009999123100000010000000000000BRAAPLBDR004131
012020011002ABCB4       010ABC BRASIL  PN  EJ  N2   R$  000000000204000000000020450000000002018000000000202900000000020280000000002025000000000202804762000000000000820200000000001664430700000000000000009999123100000010000000000000BRABCBACNPR4133
012020011002ABEV3       010AMBEV S/A   ON           R$  000000000188200000000019040000000001877000000000189300000000018890000000001886000000000188919703000000000011697800000000022144915600000000000000009999123100000010000000000000BRABEVACNOR1122
012020011002ABTT34      010ABBOTT      DRN          R$  000000000883600000000088360000000008836000000000883600000000088360000000000000000000000000000001000000000000000200000000000001767200000000000000009999123100000010000000000000BRABTTBDR007132
012020011002ABUD34      010AB INBEV    DRN          R$  000000003353100000000335580000000033531000000003353800000000335580000000000000000000000000000002000000000000000700000000000023477100000000000000009999123100000010000000000000BRABUDBDR009101
012020011002ADBE34      010ADOBE INC   DRN          R$  000000002787600000000278760000000027876000000002787600000000278760000000000000000000000000000002000000000000001300000000000036238800000000000000009999123100000010000000000000BRADBEBDR003100
012020011002ADHM3       010ADVANCED-DH ON           R$  000000000022400000000003450000000000224000000000029700000000003300000000000327000000000033002538000000000001602000000000000476487600000000000000009999123100000010000000000000BRADHMACNOR9101
012020011002AFLT3       010AFLUENTE T  ON           R$  000000000111300000000011190000000001090000000000110700000000011190000000001095000000000111900019000000000000003700000000000004096600000000000000009999123100000010000000000000BRAFLTACNOR1114
012020011002AGRO3       010BRASILAGRO  ON      NM   R$  000000000196400000000020070000000001931000000000198400000000019310000000001931000000000199500664000000000000114700000000000227614800000000000000009999123100000010000000000000BRAGROACNOR7109
012020011002ALPA3       010ALPARGATAS  ON      N1   R$  000000000275000000000027500000000002700000000000270600000000027000000000002694000000000270000035000000000000010900000000000029495600000000000000009999123100000010000000000000BRALPAACNOR0228
012020011002ALPA4       010ALPARGATAS  PN      N1   R$  000000000341300000000034450000000003365000000000338800000000033710000000003370000000000337106731000000000001175400000000003982811100000000000000009999123100000010000000000000BRALPAACNPR7228
012020011002ALSO3       010ALIANSCSONAEON      NM   R$  000000000525200000000053200000000005190000000000527600000000052490000000005239000000000524906548000000000001267900000000006689537700000000000000009999123100000010000000000000BRALSOACNOR5100
012020011002ALUP3       010ALUPAR      ON      N2   R$  000000000116200000000011860000000001122000000000115400000000011220000000001110000000000112200062000000000000024200000000000027945000000000000000009999123100000010000000000000BRALUPACNOR8110
012020011002ALUP4       010ALUPAR      PN      N2   R$  000000000081800000000008470000000000818000000000083200000000008350000000000824000000000084700037000000000000006900000000000005746500000000000000009999123100000010000000000000BRALUPACNPR5110
012020011002ALUP11      010ALUPAR      UNT     N2   R$  000000000279800000000028650000000002783000000000281100000000028240000000002812000000000282404898000000000000875300000000002461283700000000000000009999123100000010000000000000BRALUPCDAM15110
012020011002AMAR3       010LOJAS MARISAON      NM   R$  000000000143700000000014640000000001395000000000142600000000014290000000001425000000000142906490000000000001946300000000002775988900000000000000009999123100000010000000000000BRAMARACNOR4112
012020011002AMZO34      010AMAZON      DRN          R$  000000038592000000003869860000000385607000000038610800000003856070000000000000000000000000000003000000000000000400000000000154443300000000000000009999123100000010000000000000BRAMZOBDR002101
012020011002ANIM3       010ANIMA       ON      NM   R$  000000000325000000000032760000000003173000000000321300000000031730000000003173000000000319902523000000000000410800000000001319963800000000000000009999123100000010000000000000BRANIMACNOR6106
012020011002APER3       010ALPER S.A.  ON      NM   R$  000000000305100000000031570000000003020000000000308700000000030320000000003032000000000311000219000000000000050600000000000156208300000000000000009999123100000010000000000000BRAPERACNOR9101
012020011002ARMT34      010ARCELOR     DRN          R$  000000000338900000000033890000000003389000000000338900000000033890000000000000000000000000000001000000000000001400000000000004744600000000000000009999123100000010000000000000BRARMTBDR008117
012020011002ARZZ3       010AREZZO CO   ON      NM   R$  000000000615900000000062350000000006025000000000611400000000060860000000006081000000000608604390000000000000623900000000003814937400000000000000009999123100000010000000000000BRARZZACNOR3137
012020011002ATOM3       010ATOMPAR     ON           R$  000000000023000000000002340000000000193000000000020800000000001930000000000193000000000019601273000000000001122100000000000234463900000000000000009999123100000010000000000000BRATOMACNOR1103
012020011002ATTB34      010ATT INC     DRN ED       R$  000000001588800000000159110000000015888000000001589500000000159110000000000000000000001591100002000000000000001500000000000023843500000000000000009999123100000010000000000000BRATTBBDR007130
012020011002AVGO34      010BROADCOM INCDRN          R$  000000002456900000000245690000000024569000000002456900000000245690000000000000000000000000000001000000000000000400000000000009827600000000000000009999123100000010000000000000BRAVGOBDR003103
012020011002AXPB34      010AMERICAN EXPDRN ED       R$  000000005230300000000523030000000052303000000005230300000000523030000000000000000000000000000001000000000000000600000000000031381800000000000000009999123100000010000000000000BRAXPBBDR007131
012020011002AZUL4       010AZUL        PN      N2   R$  000000000575200000000058090000000005695000000000575700000000057500000000005725000000000575308249000000000001661600000000009566466600000000000000009999123100000010000000000000BRAZULACNPR4100
012020011002B3SA3       010B3          ON  EDJ NM   R$  000000000447100000000045200000000004366000000000445600000000044300000000004426000000000443030674000000000015174500000000067630456000000000000000009999123100000010000000000000BRB3SAACNOR6109
012020011002BABA34      010ALIBABAGR   DRN          R$  000000009162800000000917780000000091628000000009171800000000917780000000000000000000000000000002000000000000000500000000000045859000000000000000009999123100000010000000000000BRBABABDR005100
012020011002BAHI3       010BAHEMA      ON      MA   R$  000000000998500000000099850000000009985000000000998500000000099850000000009600000000000999900001000000000000000100000000000000998500000000000000009999123100000010000000000000BRBAHIACNOR1071
012020011002BALM4       010BAUMER      PN           R$  000000000099000000000010150000000000990000000000099800000000010000000000000990000000000102900018000000000000005800000000000005793000000000000000009999123100000010000000000000BRBALMACNPR2050
012020011002BAUH4       010EXCELSIOR   PN           R$  000000000733100000000073400000000007331000000000733700000000073400000000006000000000000753000004000000000000000400000000000002935100000000000000009999123100000010000000000000BRBAUHACNPR3114
012020011002BAZA3       010AMAZONIA    ON           R$  000000000395000000000039500000000003950000000000395000000000039500000000003940000000000399000001000000000000000100000000000000395000000000000000009999123100000010000000000000BRBAZAACNOR0173
012020011002BBAS3       010BRASIL      ON      NM   R$  000000000511600000000051440000000004956000000000504400000000049860000000004986000000000498940221000000000015348200000000077422524000000000000000009999123100000010000000000000BRBBASACNOR3289
012020011002BBDC3       010BRADESCO    ON  EJ  N1   R$  000000000332500000000033460000000003240000000000328800000000032650000000003251000000000326508401000000000001908300000000006274767600000000000000009999123100000010000000000000BRBBDCACNOR1705
012020011002BBDC4       010BRADESCO    PN  EJ  N1   R$  000000000351100000000035380000000003435000000000348100000000034430000000003441000000000344444194000000000019870000000000069179875800000000000000009999123100000010000000000000BRBBDCACNPR8705
012020011002BBRK3       010BR BROKERS  ON      NM   R$  000000000053500000000005500000000000531000000000053800000000005320000000000532000000000053600280000000000000098100000000000052847200000000000000009999123100000010000000000000BRBBRKACNOR4113
012020011002BBSD11      010BB ETF SP DVCI           R$  000000000937900000000095800000000009379000000000956300000000095180000000000000000000000000000013000000000000034410000000000329077410000000000000009999123100000010000000000000BRBBSDCTF000100
012020011002BBSE3       010BBSEGURIDADEON  ER  NM   R$  000000000369300000000037150000000003613000000000365700000000036400000000003639000000000364013265000000000003212800000000011750392800000000000000009999123100000010000000000000BRBBSEACNOR5115
012020011002BCSA34      010SANTANDER   DRN          R$  000000000169400000000016940000000001678000000000168500000000016780000000000000000000000000000003000000000000000900000000000001517000000000000000009999123100000010000000000000BRBCSABDR005101
012020011002BEEF3       010MINERVA     ON      NM   R$  000000000134500000000013640000000001331000000000134900000000013360000000001336000000000133710103000000000003617100000000004881320700000000000000009999123100000010000000000000BRBEEFACNOR6108
012020011002BEES3       010BANESTES    ON  EJ       R$  000000000066900000000006950000000000665000000000067300000000006920000000000673000000000069400151000000000000042500000000000028627700000000000000009999123100000010000000000000BRBEESACNOR9333
012020011002BEES4       010BANESTES    PN  EJ       R$  000000000069500000000006950000000000680000000000068700000000006890000000000673000000000069000011000000000000002100000000000001443700000000000000009999123100000010000000000000BRBEESACNPR6258
012020011002BERK34      010BERKSHIRE   DRN          R$  000000009330000000000934550000000093278000000009332700000000934550000000075100000000000000000003000000000000000400000000000037331100000000000000009999123100000010000000000000BRBERKBDR002100
012020011002BGIP4       010BANESE      PN           R$  000000000380000000000038390000000003800000000000381500000000038000000000003300000000000384000005000000000000000500000000000001907800000000000000009999123100000010000000000000BRBGIPACNPR8197
012020011002BHPG34      010BHP GROUP   DRN          R$  000000002236500000000223650000000022365000000002236500000000223650000000000000000000000000000001000000000000000200000000000004473000000000000000009999123100000010000000000000BRBHPGBDR007100
012020011002BIDI3       010BANCO INTER ON  EJ  N2   R$  000000000171700000000018150000000001711000000000178000000000017960000000001785000000000179601712000000000000344000000000000612332000000000000000009999123100000010000000000000BRBIDIACNOR3104
012020011002BIDI4       010BANCO INTER PN  EJ  N2   R$  000000000177000000000018350000000001766000000000180700000000017800000000001777000000000178011193000000000004627500000000008363200700000000000000009999123100000010000000000000BRBIDIACNPR0108
012020011002BIDI11      010BANCO INTER UNT EJ  N2   R$  000000000521000000000054910000000005210000000000541500000000054300000000005430000000000543606865000000000001068600000000005787394100000000000000009999123100000010000000000000BRBIDICDAXX3103
012020011002BIOM3       010BIOMM       ON      MA   R$  000000000169800000000017350000000001601000000000168100000000016650000000001660000000000166500582000000000000102900000000000173052300000000000000009999123100000010000000000000BRBIOMACNOR2107
012020011002BKBR3       010BK BRASIL   ON      NM   R$  000000000171600000000017470000000001701000000000173100000000017420000000001728000000000174202670000000000000624800000000001081866900000000000000009999123100000010000000000000BRBKBRACNOR4102
012020011002BKNG34      010BOOKING     DRN          R$  000000003427600000000343840000000034276000000003430000000000343840000000030000000000000000000002000000000000000900000000000030870000000000000000009999123100000010000000000000BRBKNGBDR006100
012020011002BLAK34      010BLACKROCK   DRN          R$  000000003501200000000351770000000035012000000003505900000000351770000000020000000000000000000002000000000000000700000000000024541400000000000000009999123100000010000000000000BRBLAKBDR003115
012020011002BMEB3       010MERC BRASIL ON           R$  000000000130700000000013100000000001307000000000130900000000013100000000001305000000000135000003000000000000001700000000000002226700000000000000009999123100000010000000000000BRBMEBACNOR8195
012020011002BMEB4       010MERC BRASIL PN           R$  000000000136700000000013690000000001345000000000135900000000013500000000001350000000000136500027000000000000007300000000000009921400000000000000009999123100000010000000000000BRBMEBACNPR5200
012020011002BMGB4       010BANCO BMG   PN      N1   R$  000000000092700000000009390000000000914000000000092900000000009300000000000929000000000093102266000000000001134000000000001053861000000000000000009999123100000010000000000000BRBMGBACNPR0101
012020011002BMIN4       010MERC INVEST PN           R$  000000000195400000000020000000000001954000000000196000000000019540000000001954000000000200000005000000000000000700000000000001372400000000000000009999123100000010000000000000BRBMINACNPR1170
012020011002BMKS3       010BIC MONARK  ON           R$  000000002699900000000278000000000026100000000002660000000000278000000000026100000000002830000007000000000000000020000000000000532002000000000000009999123100000010000000000000BRBMKSACNOR9161
012020011002BMYB34      010BRISTOLMYERSDRN ED       R$  000000002670100000000267010000000026701000000002670100000000267010000000000000000000000000000001000000000000000100000000000002670100000000000000009999123100000010000000000000BRBMYBBDR000125
012020011002BOAC34      010BANK AMERICADRN          R$  000000001431200000000143200000000014312000000001431300000000143200000000000000000000001432000002000000000000001600000000000022901600000000000000009999123100000010000000000000BRBOACBDR004137
012020011002BOBR4       010BOMBRIL     PN           R$  000000000022600000000002290000000000220000000000022500000000002290000000000227000000000022900253000000000000251200000000000056756100000000000000009999123100000010000000000000BRBOBRACNPR3128
012020011002BOEI34      010BOEING      DRN          R$  000000013634100000001363410000000136341000000013634100000001363410000000000000000000000000000001000000000000000200000000000027268200000000000000009999123100000010000000000000BRBOEIBDR003131
012020011002BOVA11      010ISHARES BOVACI           R$  000000001124000000000112510000000011070000000001116900000000111280000000011128000000001113221554000000000006103030000000068167706010000000000000009999123100000010000000000000BRBOVACTF003104
012020011002BOVB11      010ETF BRAD BOVCI           R$  000000001158500000000116710000000011489000000001158800000000115550000000011502000000001155500535000000000000191060000000002214161520000000000000009999123100000010000000000000BRBOVBCTF001100
012020011002BOVV11      010IT NOW IBOV CI           R$  000000001167900000000117330000000011545000000001161200000000116120000000011575000000001161200959000000000001800610000000020909060990000000000000009999123100000010000000000000BRBOVVCTF009100
012020011002BOXP34      010BOSTON PROP DRN          R$  000000000548100000000054810000000005481000000000548100000000054810000000000000000000000000000001000000000000001000000000000005481000000000000000009999123100000010000000000000BRBOXPBDR008118
012020011002BPAC3       010BTGP BANCO  ON  EJ  N2   R$  000000000390000000000039000000000003890000000000389600000000038900000000003880000000000400000006000000000000000800000000000003116800000000000000009999123100000010000000000000BRBPACACNOR7121
012020011002BPAC11      010BTGP BANCO  UNT EJ  N2   R$  000000000760000000000078200000000007514000000000764200000000075890000000007571000000000758911760000000000002659000000000020322388000000000000000009999123100000010000000000000BRBPACUNT006106
012020011002BPAN4       010BANCO PAN   PN      N1   R$  000000000115200000000011910000000001128000000000116200000000011420000000001141000000000114206596000000000003254000000000003783202600000000000000009999123100000010000000000000BRBPANACNPR1107
012020011002BRAP3       010BRADESPAR   ON  EJ  N1   R$  000000000357700000000035830000000003516000000000356600000000035200000000003520000000000355000028000000000000005400000000000019261100000000000000009999123100000010000000000000BRBRAPACNOR5136
012020011002BRAP4       010BRADESPAR   PN  EJ  N1   R$  000000000384300000000038920000000003815000000000385400000000038290000000003826000000000382906863000000000001132000000000004363823200000000000000009999123100000010000000000000BRBRAPACNPR2136
012020011002BRAX11      010ISHARES BRAXCI           R$  000000000965800000000096720000000009534000000000965200000000095370000000009481000000000970000071000000000000030910000000000298370940000000000000009999123100000010000000000000BRBRAXCTF002100
012020011002BRDT3       010PETROBRAS BRON      NM   R$  000000000283000000000028640000000002785000000000281900000000028200000000002812000000000282021602000000000010909600000000030761127100000000000000009999123100000010000000000000BRBRDTACNOR1119
012020011002BRFS3       010BRF SA      ON      NM   R$  000000000368500000000037230000000003618000000000365800000000036340000000003631000000000363412382000000000004803800000000017576747600000000000000009999123100000010000000000000BRBRFSACNOR8119
012020011002BRGE3       010ALFA CONSORCON           R$  000000000128900000000012920000000001250000000000128700000000012500000000000940000000000124800025000000000000005600000000000007212600000000000000009999123100000010000000000000BRBRGEACNOR6202
012020011002BRGE12      010ALFA CONSORCPNF          R$  000000000060200000000006150000000000600000000000060800000000006110000000000611000000000063500010000000000000001300000000000000790500000000000000009999123100000010000000000000BRBRGEACNPF8096
012020011002BRIV3       010ALFA INVEST ON           R$  000000000090900000000009090000000000909000000000090900000000009090000000000851000000000091000001000000000000000100000000000000090900000000000000009999123100000010000000000000BRBRIVACNOR6205
012020011002BRIV4       010ALFA INVEST PN           R$  000000000109800000000010980000000001006000000000106300000000010200000000001008000000000109700005000000000000000500000000000000531800000000000000009999123100000010000000000000BRBRIVACNPR3209
012020011002BRKM3       010BRASKEM     ON      N1   R$  000000000370100000000038300000000003701000000000378200000000037850000000003770000000000378500098000000000000016600000000000062791200000000000000009999123100000010000000000000BRBRKMACNOR1117
012020011002BRKM5       010BRASKEM     PNA     N1   R$  000000000353800000000035690000000003435000000000349000000000034450000000003445000000000344913565000000000003682400000000012854266900000000000000009999123100000010000000000000BRBRKMACNPA4117
012020011002BRKM6       010BRASKEM     PNB     N1   R$  000000000260000000000026000000000002600000000000260000000000026000000000002550000000000267000001000000000000000100000000000000260000000000000000009999123100000010000000000000BRBRKMACNPB2113
012020011002BRML3       010BR MALLS PARON      NM   R$  000000000185300000000018720000000001837000000000186100000000018640000000001862000000000186418506000000000006088500000000011336426100000000000000009999123100000010000000000000BRBRMLACNOR9115
012020011002BRPR3       010BR PROPERT  ON      NM   R$  000000000153000000000015680000000001515000000000153800000000015300000000001529000000000153706417000000000002537700000000003903862800000000000000009999123100000010000000000000BRBRPRACNOR9118
012020011002BRSR3       010BANRISUL    ON      N1   R$  000000000230000000000023000000000002291000000000229500000000023000000000002295000000000230000017000000000000003100000000000007117100000000000000009999123100000010000000000000BRBRSRACNOR3166
012020011002BRSR6       010BANRISUL    PNB     N1   R$  000000000214800000000021560000000002086000000000211200000000020920000000002092000000000209307914000000000002031900000000004292468000000000000000009999123100000010000000000000BRBRSRACNPB4169
012020011002BSEV3       010BIOSEV      ON      NM   R$  000000000038700000000004040000000000352000000000037300000000003600000000000358000000000036000496000000000000206000000000000076987200000000000000009999123100000010000000000000BRBSEVACNOR3102
012020011002BTOW3       010B2W DIGITAL ON      NM   R$  000000000681000000000068200000000006582000000000670900000000066780000000006667000000000667805262000000000001364900000000009157694500000000000000009999123100000010000000000000BRBTOWACNOR8110
012020011002CAMB3       010CAMBUCI     ON           R$  000000000068900000000006890000000000645000000000066300000000006880000000000688000000000069000123000000000000225900000000000149934300000000000000009999123100000010000000000000BRCAMBACNOR4119
012020011002CAML3       010CAMIL       ON      NM   R$  000000000089400000000009420000000000890000000000092600000000009310000000000929000000000093113975000000000003282800000000003042767400000000000000009999123100000010000000000000BRCAMLACNOR3108
012020011002CARD3       010CSU CARDSYSTON      NM   R$  000000000147400000000014740000000001370000000000142400000000014250000000001425000000000143602899000000000000821800000000001170919100000000000000009999123100000010000000000000BRCARDACNOR9116
012020011002CBEE3       010AMPLA ENERG ON           R$  000000000195000000000019500000000001950000000000195000000000019500000000001946000000000200000003000000000000000600000000000001170000000000000000009999123100000010000000000000BRCBEEACNOR3154
012020011002CCPR3       010CYRE COM-CCPON      NM   R$  000000000256500000000025930000000002524000000000255800000000025930000000002590000000000259302210000000000000417200000000001067439300000000000000009999123100000010000000000000BRCCPRACNOR9113
012020011002CCRO3       010CCR SA      ON      NM   R$  000000000181800000000018450000000001802000000000182400000000018170000000001815000000000181820203000000000005861400000000010691815000000000000000009999123100000010000000000000BRCCROACNOR2136
012020011002CEAB3       010CEA MODAS   ON  EJ  NM   R$  000000000159000000000016460000000001577000000000161400000000016180000000001618000000000161905185000000000002521000000000004070192500000000000000009999123100000010000000000000BRCEABACNOR1101
012020011002CEBR3       010CEB         ON           R$  000000000567000000000056700000000005670000000000567000000000056700000000005200000000000567900001000000000000000100000000000000567000000000000000009999123100000010000000000000BRCEBRACNOR5117
012020011002CEDO3       010CEDRO       ON      N1   R$  000000000090000000000009000000000000900000000000090000000000009000000000000900000000000099600001000000000000000300000000000000270000000000000000009999123100000010000000000000BRCEDOACNOR8096
012020011002CEDO4       010CEDRO       PN      N1   R$  000000000086900000000008690000000000869000000000086900000000008690000000000821000000000086900003000000000000000400000000000000347600000000000000009999123100000010000000000000BRCEDOACNPR5128
012020011002CESP3       010CESP        ON      N1   R$  000000000317000000000031740000000003116000000000315600000000031730000000003129000000000317400064000000000000015100000000000047656500000000000000009999123100000010000000000000BRCESPACNOR3168
012020011002CESP6       010CESP        PNB     N1   R$  000000000315500000000032030000000003118000000000315900000000031730000000003170000000000317306209000000000001187600000000003752354900000000000000009999123100000010000000000000BRCESPACNPB4127
012020011002CGAS3       010COMGAS      ON           R$  000000001730000000000228000000000017300000000001981100000000228000000000021300000000003300000007000000000000000700000000000013868300000000000000009999123100000010000000000000BRCGASACNOR0150
012020011002CGAS5       010COMGAS      PNA          R$  000000001819800000000220000000000017300000000001973600000000217000000000021240000000002180000181000000000000022300000000000440134200000000000000009999123100000010000000000000BRCGASACNPA3147
012020011002CGRA3       010GRAZZIOTIN  ON           R$  000000000281600000000028160000000002816000000000281600000000028160000000002818000000000288000001000000000000000100000000000000281600000000000000009999123100000010000000000000BRCGRAACNOR2070
012020011002CGRA4       010GRAZZIOTIN  PN           R$  000000000289000000000029690000000002876000000000292400000000029220000000002921000000000297000054000000000000007200000000000021053500000000000000009999123100000010000000000000BRCGRAACNPR9070
012020011002CHCM34      010CHARTER COMMDRN          R$  000000004169900000000416990000000041699000000004169900000000416990000000000000000000000000000001000000000000000100000000000004169900000000000000009999123100000010000000000000BRCHCMBDR001100
012020011002CHME34      010CME GROUP   DRN          R$  000000002119400000000211940000000021194000000002119400000000211940000000000000000000000000000001000000000000000200000000000004238800000000000000009999123100000010000000000000BRCHMEBDR007103
012020011002CHVX34      010CHEVRON     DRN          R$  000000002394900000000240230000000023949000000002397800000000240230000000000000000000002402300002000000000000000500000000000011989300000000000000009999123100000010000000000000BRCHVXBDR008135
012020011002CIEL3       010CIELO       ON  EJ  NM   R$  000000000073700000000007530000000000731000000000074300000000007400000000000739000000000074014773000000000014090800000000010477869600000000000000009999123100000010000000000000BRCIELACNOR3141
012020011002CLSC4       010CELESC      PN  EJ  N2   R$  000000000514900000000052100000000005100000000000515700000000051030000000005050000000000522000043000000000000016000000000000082517200000000000000009999123100000010000000000000BRCLSCACNPR3114
012020011002CMCS34      010COMCAST     DRN ED       R$  000000001848400000000185510000000018465000000001848100000000185510000000000000000000001855100004000000000000004700000000000086861900000000000000009999123100000010000000000000BRCMCSBDR008133
012020011002CMIG3       010CEMIG       ON      N1   R$  000000000165300000000017010000000001641000000000167400000000016650000000001663000000000166603734000000000000772400000000001293450400000000000000009999123100000010000000000000BRCMIGACNOR6223
012020011002CMIG4       010CEMIG       PN      N1   R$  000000000147600000000015280000000001459000000000150200000000014930000000001491000000000149426167000000000008412000000000012635078700000000000000009999123100000010000000000000BRCMIGACNPR3224
012020011002CNTO3       010CENTAURO    ON      NM   R$  000000000389000000000039200000000003882000000000390800000000039150000000003908000000000391504430000000000000919400000000003593569600000000000000009999123100000010000000000000BRCNTOACNOR5100
012020011002COCA34      010COCA COLA   DRN          R$  000000002276500000000227650000000022765000000002276500000000227650000000000000000000000000000001000000000000000200000000000004553000000000000000009999123100000010000000000000BRCOCABDR002133
012020011002COCE5       010COELCE      PNA          R$  000000000644300000000064430000000006399000000000643500000000064000000000006363000000000640000136000000000000026000000000000167329200000000000000009999123100000010000000000000BRCOCEACNPA3139
012020011002COGN3       010COGNA ON    ON      NM   R$  000000000121500000000012500000000001207000000000122800000000012200000000001219000000000122019819000000000009522100000000011697500100000000000000009999123100000010000000000000BRCOGNACNOR2101
012020011002COLG34      010COLGATE     DRN          R$  000000002874100000000287410000000028741000000002874100000000287410000000000000000000000000000002000000000000001000000000000028741000000000000000009999123100000010000000000000BRCOLGBDR000134
012020011002COPH34      010COPHILLIPS  DRN          R$  000000000672400000000067240000000006724000000000672400000000067240000000000000000000000000000001000000000000000400000000000002689600000000000000009999123100000010000000000000BRCOPHBDR009132
012020011002COWC34      010COSTCO      DRN          R$  000000003051000000000305990000000030464000000003050100000000304640000000000000000000000000000003000000000000002900000000000088455100000000000000009999123100000010000000000000BRCOWCBDR006116
012020011002CPFE3       010CPFL ENERGIAON      NM   R$  000000000354600000000036080000000003534000000000358300000000035990000000003585000000000359911028000000000004070000000000014586149200000000000000009999123100000010000000000000BRCPFEACNOR0129
012020011002CPLE3       010COPEL       ON      N1   R$  000000000732900000000075150000000007329000000000744700000000074750000000007475000000000747900878000000000000152900000000001138662400000000000000009999123100000010000000000000BRCPLEACNOR8139
012020011002CPLE6       010COPEL       PNB     N1   R$  000000000700300000000072240000000007003000000000715700000000071950000000007158000000000719508440000000000001668900000000011945285000000000000000009999123100000010000000000000BRCPLEACNPB9136
012020011002CRDE3       010CR2         ON      NM   R$  000000000389800000000039500000000003898000000000392200000000039500000000003750000000000394900003000000000000000300000000000001176800000000000000009999123100000010000000000000BRCRDEACNOR1110
012020011002CRFB3       010CARREFOUR BRON      NM   R$  000000000236200000000023840000000002329000000000236300000000023640000000002356000000000236407339000000000001996200000000004718433300000000000000009999123100000010000000000000BRCRFBACNOR2105
012020011002CRIV3       010ALFA FINANC ON           R$  000000000063400000000006340000000000600000000000060800000000006230000000000590000000000062300017000000000000003200000000000001947400000000000000009999123100000010000000000000BRCRIVACNOR4193
012020011002CRIV4       010ALFA FINANC PN           R$  000000000070500000000007050000000000697000000000069800000000006970000000000697000000000070000006000000000000001300000000000000907400000000000000009999123100000010000000000000BRCRIVACNPR1202
012020011002CRPG3       010CRISTAL     ON           R$  000000000320000000000032000000000003200000000000320000000000032000000000002750000000000350000001000000000000000100000000000000320000000000000000009999123100000010000000000000BRCRPGACNOR0107
012020011002CRPG5       010CRISTAL     PNA          R$  000000000254000000000025850000000002522000000000255600000000025800000000002580000000000258200087000000000000032000000000000081818800000000000000009999123100000010000000000000BRCRPGACNPA3107
012020011002CRPG6       010CRISTAL     PNB          R$  000000000252600000000025460000000002525000000000252900000000025460000000002530000000000254600012000000000000002700000000000006829400000000000000009999123100000010000000000000BRCRPGACNPB1107
012020011002CSAB4       010SEG AL BAHIAPN           R$  000000000494500000000049450000000004945000000000494500000000049450000000004000000000000494500001000000000000000100000000000000494500000000000000009999123100000010000000000000BRCSABACNPR8057
012020011002CSAN3       010COSAN       ON      NM   R$  000000000719900000000073050000000007162000000000722800000000073050000000007290000000000730608784000000000001748200000000012637497300000000000000009999123100000010000000000000BRCSANACNOR6119
012020011002CSCO34      010CISCO       DRN ED       R$  000000001946000000000194600000000019460000000001946000000000194600000000000000000000000000000001000000000000000700000000000013622000000000000000009999123100000010000000000000BRCSCOBDR004136
012020011002CSMG3       010COPASA      ON      NM   R$  000000000661800000000067100000000006602000000000666400000000066750000000006675000000000667603294000000000000562200000000003746911600000000000000009999123100000010000000000000BRCSMGACNOR5154
012020011002CSNA3       010SID NACIONALON           R$  000000000141000000000014390000000001404000000000142700000000014210000000001421000000000142209877000000000007552500000000010778736500000000000000009999123100000010000000000000BRCSNAACNOR6251
012020011002CSRN3       010COSERN      ON  EJ       R$  000000000205000000000020500000000002050000000000205000000000020500000000000000000000000205000001000000000000000100000000000000205000000000000000009999123100000010000000000000BRCSRNACNOR0171
012020011002CSXC34      010CSX CORP    DRN          R$  000000001508100000000150810000000015081000000001508100000000150810000000000000000000000000000001000000000000000200000000000003016200000000000000009999123100000010000000000000BRCSXCBDR005102
012020011002CTGP34      010CITIGROUP   DRN          R$  000000003264400000000326440000000032644000000003264400000000326440000000000000000000003264400001000000000000000100000000000003264400000000000000009999123100000010000000000000BRCTGPBDR000136
012020011002CTKA4       010KARSTEN     PN           R$  000000000124000000000013490000000001240000000000129900000000013400000000001324000000000134000015000000000000006700000000000008705500000000000000009999123100000010000000000000BRCTKAACNPR7043
012020011002CTNM3       010COTEMINAS   ON           R$  000000000130000000000018000000000001300000000000150800000000017590000000001500000000000175000062000000000000013000000000000019613300000000000000009999123100000010000000000000BRCTNMACNOR9130
012020011002CTNM4       010COTEMINAS   PN           R$  000000000107100000000011000000000001066000000000108200000000010850000000001085000000000108600127000000000000041000000000000044394900000000000000009999123100000010000000000000BRCTNMACNPR6129
012020011002CTSA3       010SANTANENSE  ON           R$  000000000062800000000007000000000000627000000000067000000000006960000000000639000000000069600065000000000000013400000000000008985500000000000000009999123100000010000000000000BRCTSAACNOR3059
012020011002CTSA4       010SANTANENSE  PN           R$  000000000065700000000006880000000000657000000000067700000000006860000000000655000000000068600006000000000000001000000000000000677700000000000000009999123100000010000000000000BRCTSAACNPR0059
012020011002CVCB3       010CVC BRASIL  ON      NM   R$  000000000435600000000043700000000004170000000000425700000000042040000000004204000000000420715269000000000002947400000000012548568700000000000000009999123100000010000000000000BRCVCBACNOR1112
012020011002CVSH34      010CVS HEALTH  DRN          R$  000000001490000000000149180000000014900000000001491000000000149180000000000000000000000000000002000000000000000500000000000007455400000000000000009999123100000010000000000000BRCVSHBDR008114
012020011002CYRE3       010CYRELA REALTON      NM   R$  000000000314400000000031800000000003131000000000316000000000031650000000003165000000000316719435000000000005039600000000015929668400000000000000009999123100000010000000000000BRCYREACNOR7133
012020011002DDNB34      010DUPONT N INCDRN          R$  000000002469600000000246960000000024696000000002469600000000246960000000000000000000000000000001000000000000000400000000000009878400000000000000009999123100000010000000000000BRDDNBBDR008102
012020011002DEEC34      010DEERE CO    DRN ED       R$  000000003581200000000358120000000035812000000003581200000000358120000000000000000000000000000001000000000000000100000000000003581200000000000000009999123100000010000000000000BRDEECBDR003103
012020011002DHER34      010DANAHER CORPDRN          R$  000000001624500000000162450000000016245000000001624500000000162450000000000000000000000000000001000000000000000100000000000001624500000000000000009999123100000010000000000000BRDHERBDR004119
012020011002DIRR3       010DIRECIONAL  ON      NM   R$  000000000155000000000015990000000001545000000000158200000000015830000000001580000000000158304225000000000000848600000000001342924900000000000000009999123100000010000000000000BRDIRRACNOR0112
012020011002DISB34      010WALT DISNEY DRN          R$  000000005910000000000592260000000059073000000005915600000000591370000000053000000000007000000008000000000000001800000000000106481600000000000000009999123100000010000000000000BRDISBBDR006114
012020011002DIVO11      010IT NOW IDIV CI           R$  000000000682800000000069230000000006828000000000690600000000068900000000006850000000000689000094000000000000017190000000000118716830000000000000009999123100000010000000000000BRDIVOCTF002100
012020011002DMMO3       010DOMMO       ON           R$  000000000024500000000002480000000000236000000000024200000000002380000000000238000000000023904256000000000003240500000000000785069100000000000000009999123100000010000000000000BRDMMOACNOR0102
012020011002DOHL4       010DOHLER      PN           R$  000000000071000000000007500000000000696000000000070500000000007500000000000697000000000076000010000000000000002200000000000001551200000000000000009999123100000010000000000000BRDOHLACNPR9060
012020011002DTEX3       010DURATEX     ON      NM   R$  000000000173500000000017750000000001727000000000175900000000017600000000001759000000000176012133000000000002836800000000004991501900000000000000009999123100000010000000000000BRDTEXACNOR3128
012020011002EALT3       010ACO ALTONA  ON           R$  000000000131100000000013110000000001310000000000131000000000013100000000001300000000000131000002000000000000000200000000000000262100000000000000009999123100000010000000000000BREALTACNOR4132
012020011002EALT4       010ACO ALTONA  PN           R$  000000000069900000000007040000000000643000000000069500000000006920000000000672000000000069200358000000000000198400000000000138001200000000000000009999123100000010000000000000BREALTACNPR1132
012020011002ECOO11      010ISHARES ECOOCI           R$  000000001206400000000120640000000011940000000001202300000000119400000000011795000000001194400005000000000000000550000000000006612770000000000000009999123100000010000000000000BRECOOCTF008100
012020011002ECOR3       010ECORODOVIAS ON      NM   R$  000000000164500000000016780000000001620000000000164700000000016370000000001634000000000163712101000000000002586900000000004261950200000000000000009999123100000010000000000000BRECORACNOR8116
012020011002EGIE3       010ENGIE BRASILON      NM   R$  000000000520000000000052730000000005164000000000523400000000052370000000005233000000000523704631000000000000822100000000004303665500000000000000009999123100000010000000000000BREGIEACNOR9112
012020011002ELEK4       010ELEKEIROZ   PN           R$  000000000176000000000017650000000001760000000000176100000000017650000000001765000000000180000004000000000000000900000000000001585500000000000000009999123100000010000000000000BRELEKACNPR2124
012020011002ELET3       010ELETROBRAS  ON      N1   R$  000000000393000000000040400000000003916000000000400500000000040100000000004009000000000401016721000000000005752200000000023039842100000000000000009999123100000010000000000000BRELETACNOR6154
012020011002ELET6       010ELETROBRAS  PNB     N1   R$  000000000400200000000040820000000003980000000000404800000000040650000000004060000000000406612295000000000002594900000000010504910400000000000000009999123100000010000000000000BRELETACNPB7071
012020011002EMAE4       010EMAE        PN           R$  000000000368800000000036940000000003662000000000369000000000036940000000003691000000000369400078000000000000019500000000000071966000000000000000009999123100000010000000000000BREMAEACNPR1113
012020011002EMBR3       010EMBRAER     ON      NM   R$  000000000202900000000020320000000002006000000000201700000000020110000000002009000000000201109497000000000002065900000000004168293500000000000000009999123100000010000000000000BREMBRACNOR4189
012020011002ENAT3       010ENAUTA PART ON      NM   R$  000000000163500000000017400000000001613000000000170200000000016730000000001672000000000167906838000000000001912800000000003256340700000000000000009999123100000010000000000000BRENATACNOR0100
012020011002ENBR3       010ENERGIAS BR ON  EJ  NM   R$  000000000222600000000022920000000002218000000000225800000000022670000000002263000000000226813195000000000003723100000000008408775600000000000000009999123100000010000000000000BRENBRACNOR2128
012020011002ENEV3       010ENEVA       ON      NM   R$  000000000458000000000046010000000004522000000000455800000000045680000000004564000000000456807551000000000001281600000000005842789200000000000000009999123100000010000000000000BRENEVACNOR8104
012020011002ENGI3       010ENERGISA    ON      N2   R$  000000000133600000000013490000000001319000000000133200000000013260000000001320000000000132600037000000000000005300000000000007064700000000000000009999123100000010000000000000BRENGIACNOR0136
012020011002ENGI4       010ENERGISA    PN      N2   R$  000000000103800000000010500000000001038000000000104100000000010470000000001046000000000105000017000000000000005400000000000005621500000000000000009999123100000010000000000000BRENGIACNPR7132
012020011002ENGI11      010ENERGISA    UNT     N2   R$  000000000548000000000055400000000005468000000000551000000000055400000000005540000000000554404884000000000001039900000000005730544600000000000000009999123100000010000000000000BRENGICDAM16126
012020011002ENMT3       010ENERGISA MT ON           R$  000000000299900000000030490000000002970000000000299800000000029990000000002915000000000299900010000000000000001200000000000003598200000000000000009999123100000010000000000000BRENMTACNOR5110
012020011002ENMT4       010ENERGISA MT PN           R$  000000000291400000000029990000000002914000000000294700000000029990000000002800000000000300000005000000000000000500000000000001473900000000000000009999123100000010000000000000BRENMTACNPR2113
012020011002EQIX34      010EQUINIX INC DRN          R$  000000004865300000000486530000000048653000000004865300000000486530000000000000000000000000000001000000000000000400000000000019461200000000000000009999123100000010000000000000BREQIXBDR002103
012020011002EQPA3       010EQTL PARA   ON           R$  000000000035800000000003590000000000348000000000035200000000003480000000000348000000000035000112000000000000041400000000000014589600000000000000009999123100000010000000000000BREQPAACNOR1100
012020011002EQPA5       010EQTL PARA   PNA          R$  000000000062700000000006590000000000627000000000063200000000006310000000000628000000000066000006000000000000000800000000000000505800000000000000009999123100000010000000000000BREQPAACNPA4100
012020011002EQTL3       010EQUATORIAL  ON      NM   R$  000000000238900000000023920000000002352000000000237900000000023900000000002373000000000239012015000000000010573000000000025161836000000000000000009999123100000010000000000000BREQTLACNOR0125
012020011002EUCA3       010EUCATEX     ON      N1   R$  000000000417500000000041750000000003410000000000372100000000036990000000003400000000000370000032000000000000003700000000000013768100000000000000009999123100000010000000000000BREUCAACNOR1151
012020011002EUCA4       010EUCATEX     PN      N1   R$  000000000085200000000008520000000000818000000000083700000000008300000000000830000000000083800254000000000000094000000000000078722800000000000000009999123100000010000000000000BREUCAACNPR8038
012020011002EVEN3       010EVEN        ON      NM   R$  000000000167300000000016730000000001615000000000164600000000016490000000001637000000000164908508000000000001648000000000002712863800000000000000009999123100000010000000000000BREVENACNOR8111
012020011002EXXO34      010EXXON MOBIL DRN          R$  000000000716000000000071600000000007115000000000712400000000071370000000000000000000000713700003000000000000002700000000000019234800000000000000009999123100000010000000000000BREXXOBDR006137
012020011002EZTC3       010EZTEC       ON      NM   R$  000000000556100000000056840000000005530000000000562300000000056000000000005592000000000560011437000000000001947100000000010949254200000000000000009999123100000010000000000000BREZTCACNOR0113
012020011002F1NI34      010FIDELITY NATDRN          R$  000000001454200000000145420000000014542000000001454200000000145420000000000000000000000000000001000000000000001300000000000018904600000000000000009999123100000010000000000000BRF1NIBDR004100
012020011002FBOK34      010FACEBOOK    DRN          R$  000000004455000000000448460000000044473000000004471900000000447000000000044400000000004500000011000000000000005800000000000259371700000000000000009999123100000010000000000000BRFBOKBDR006100
012020011002FCCQ11      010FIP CONQUESTCI           R$  000000000063000000000007990000000000600000000000063700000000007990000000000625000000000079900009000000000000000424000000000000270398000000000000009999123100000010000000000000BRFCCQCTF005100
012020011002FESA4       010FERBASA     PN  EJ  N1   R$  000000000196900000000020160000000001949000000000199500000000019860000000001986000000000199001477000000000000309300000000000617337400000000000000009999123100000010000000000000BRFESAACNPR5066
012020011002FIND11      010IT NOW IFNC CI           R$  000000001264800000000126480000000012480000000001251800000000124800000000012351000000001243600006000000000000000170000000000002128060000000000000009999123100000010000000000000BRFINDCTF007100
012020011002FLRY3       010FLEURY      ON  EJ  NM   R$  000000000320000000000032000000000003095000000000314900000000031150000000003114000000000311509856000000000001648700000000005193368700000000000000009999123100000010000000000000BRFLRYACNOR5126
012020011002FNAM11      010FINAM       CI *         R$  000000000001600000000000160000000000015000000000001500000000000150000000000015000000000001600310000000000488756000000000000007465745000000000000009999123100010000000000000000BRFNAMCTF013002
012020011002FNOR11      010FINOR       CI *         R$  000000000002200000000000240000000000021000000000002200000000000230000000000022000000000002300172000000000234423000000000000005288263000000000000009999123100010000000000000000BRFNORCTF013002
012020011002FRAS3       010FRAS-LE     ON      N1   R$  000000000067400000000006830000000000660000000000067500000000006750000000000675000000000067900705000000000000292800000000000197841200000000000000009999123100000010000000000000BRFRASACNOR0149
012020011002FRIO3       010METALFRIO   ON      NM   R$  000000000610000000000061000000000006100000000000610000000000061000000000006000000000000650000003000000000000003800000000000023180000000000000000009999123100000010000000000000BRFRIOACNOR2110
012020011002FSPE11      010FISET PESCA CI           R$  000000000005700000000000630000000000050000000000005300000000000560000000000053000000000005500041000000000000076000000000000004037000000000000000009999123100000010000000000000BRFSPECTF017002
012020011002FSRF11      010FISET FL REFCI           R$  000000000003100000000000320000000000028000000000003000000000000280000000000028000000000002900137000000000000753000000000000022624000000000000000009999123100000010000000000000BRFSRFCTF010002
012020011002FSTU11      010FISET TUR   CI           R$  000000000004200000000000430000000000041000000000004200000000000410000000000041000000000004200020000000000000040000000000000001680000000000000000009999123100000010000000000000BRFSTUCTF015002
012020011002GBIO33      010BIOTOSCANA  DR3          R$  000000000099500000000009950000000000990000000000099200000000009930000000000990000000000099300571000000000000097200000000000096426100000000000000009999123100000010000000000000BRGBIOBDR008100
012020011002GEOO34      010GE          DRN          R$  000000000481800000000048180000000004815000000000481700000000048160000000004300000000000481600003000000000000002200000000000010597500000000000000009999123100000010000000000000BRGEOOBDR000138
012020011002GEPA3       010GER PARANAP ON           R$  000000000450100000000048030000000004500000000000463300000000045590000000004559000000000500000005000000000000000500000000000002316600000000000000009999123100000010000000000000BRGEPAACNOR2145
012020011002GEPA4       010GER PARANAP PN           R$  000000000507000000000050700000000005070000000000507000000000050700000000004890000000000512500001000000000000000100000000000000507000000000000000009999123100000010000000000000BRGEPAACNPR9152
012020011002GFSA3       010GAFISA      ON      NM   R$  000000000091800000000009320000000000903000000000091600000000009160000000000914000000000091615130000000000007377900000000006763884800000000000000009999123100000010000000000000BRGFSAACNOR3117
012020011002GGBR3       010GERDAU      ON      N1   R$  000000000177500000000017970000000001756000000000177600000000017760000000001767000000000178100194000000000000038600000000000068587600000000000000009999123100000010000000000000BRGGBRACNOR1172
012020011002GGBR4       010GERDAU      PN      N1   R$  000000000207100000000021210000000002067000000000210100000000020940000000002092000000000209414631000000000009157300000000019248070200000000000000009999123100000010000000000000BRGGBRACNPR8172
012020011002GILD34      010GILEAD      DRN          R$  000000001342000000000134530000000013420000000001342700000000134530000000000000000000000000000002000000000000002200000000000029540500000000000000009999123100000010000000000000BRGILDBDR000115
012020011002GMCO34      010GENERAL MOT DRN          R$  000000001415000000000141500000000014150000000001415000000000141500000000000000000000000000000001000000000000000200000000000002830000000000000000009999123100000010000000000000BRGMCOBDR008114
012020011002GNDI3       010INTERMEDICA ON      NM   R$  000000000687800000000070430000000006668000000000690700000000068780000000006852000000000690017400000000000003199500000000022100980900000000000000009999123100000010000000000000BRGNDIACNOR2101
012020011002GOAU3       010GERDAU MET  ON      N1   R$  000000000089500000000009100000000000892000000000090400000000009030000000000900000000000090300173000000000000058300000000000052711100000000000000009999123100000010000000000000BRGOAUACNOR1249
012020011002GOAU4       010GERDAU MET  PN      N1   R$  000000000097100000000009980000000000968000000000098700000000009880000000000987000000000098811326000000000009389400000000009273127200000000000000009999123100000010000000000000BRGOAUACNPR8250
012020011002GOGL34      010ALPHABET    DRN A        R$  000000002348900000000235800000000023290000000002336200000000235480000000023320000000002354800021000000000000008300000000000193912400000000000000009999123100000010000000000000BRGOGLBDR001100
012020011002GOGL35      010ALPHABET    DRN C        R$  000000002310100000000235630000000023101000000002340300000000235630000000000000000000002356300005000000000000001700000000000039785600000000000000009999123100000010000000000000BRGOGLBDR019100
012020011002GOLL4       010GOL         PN      N2   R$  000000000367300000000037500000000003670000000000372600000000037240000000003724000000000372713458000000000004187300000000015604929900000000000000009999123100000010000000000000BRGOLLACNPR4125
012020011002GOVE11      010IT NOW IGCT CI           R$  000000000510900000000051220000000005109000000000512100000000051190000000005000000000000516500007000000000000004960000000000025402630000000000000009999123100000010000000000000BRGOVECTF004100
012020011002GPIV33      010GP INVEST   DR3          R$  000000000066800000000006690000000000657000000000066700000000006690000000000658000000000067000036000000000000018400000000000012275700000000000000009999123100000010000000000000BRGPIVBDR003104
012020011002GRND3       010GRENDENE    ON      NM   R$  000000000124500000000012540000000001219000000000124000000000012400000000001235000000000124006280000000000001408300000000001746647500000000000000009999123100000010000000000000BRGRNDACNOR3157
012020011002GSGI34      010GOLDMANSACHSDRN          R$  000000000988900000000098890000000009889000000000988900000000098890000000000000000000000000000002000000000000000600000000000005933400000000000000009999123100000010000000000000BRGSGIBDR008137
012020011002GSHP3       010GENERALSHOPPON      NM   R$  000000000027800000000002830000000000257000000000026600000000002620000000000262000000000026401287000000000000973000000000000259729300000000000000009999123100000010000000000000BRGSHPACNOR7101
012020011002GUAR3       010GUARARAPES  ON  EJ       R$  000000000261000000000026710000000002595000000000264100000000026710000000002645000000000267104011000000000001261000000000003330337700000000000000009999123100000010000000000000BRGUARACNOR4165
012020011002HAGA3       010HAGA S/A    ON           R$  000000000049900000000004990000000000485000000000049200000000004900000000000470000000000049000014000000000000003700000000000001823000000000000000009999123100000010000000000000BRHAGAACNOR7103
012020011002HAGA4       010HAGA S/A    PN           R$  000000000024500000000002620000000000244000000000025200000000002550000000000247000000000025500571000000000000377800000000000095219600000000000000009999123100000010000000000000BRHAGAACNPR4103
012020011002HAPV3       010HAPVIDA     ON  EJ  NM   R$  000000000639900000000063990000000006120000000000621800000000062050000000006199000000000620510419000000000001969000000000012245024400000000000000009999123100000010000000000000BRHAPVACNOR4104
012020011002HBOR3       010HELBOR      ON      NM   R$  000000000047100000000004880000000000466000000000047700000000004670000000000467000000000047008057000000000007636100000000003643070100000000000000009999123100000010000000000000BRHBORACNOR3113
012020011002HBTS5       010HABITASUL   PNA          R$  000000000125000000000012500000000001249000000000124900000000012500000000001101000000000124900020000000000000003000000000000003749800000000000000009999123100000010000000000000BRHBTSACNPA3123
012020011002HETA4       010HERCULES    PN           R$  000000000083100000000008950000000000831000000000085600000000008790000000000820000000000087900010000000000000001600000000000001369800000000000000009999123100000010000000000000BRHETAACNPR9136
012020011002HGTX3       010CIA HERING  ON      NM   R$  000000000322700000000032270000000003139000000000319600000000032080000000003205000000000320808997000000000002044900000000006536415900000000000000009999123100000010000000000000BRHGTXACNOR9150
012020011002HOME34      010HOME DEPOT  DRN          R$  000000004604800000000462110000000046048000000004609300000000460530000000000000000000000000000004000000000000001100000000000050703200000000000000009999123100000010000000000000BRHOMEBDR002131
012020011002HONB34      010HONEYWELL   DRN          R$  000000007325600000000732560000000073256000000007325600000000732560000000000000000000000000000001000000000000000500000000000036628000000000000000009999123100000010000000000000BRHONBBDR006124
012020011002HOND34      010HONDA MO    DRN          R$  000000001143500000000114350000000011435000000001143500000000114350000000000000000000000000000001000000000000000200000000000002287000000000000000009999123100000010000000000000BRHONDBDR002101
012020011002HYPE3       010HYPERA      ON      NM   R$  000000000359800000000036290000000003570000000000359600000000036030000000003602000000000360407605000000000001834200000000006595856300000000000000009999123100000010000000000000BRHYPEACNOR0120
012020011002IBMB34      010IBM         DRN          R$  000000005632100000000563210000000056321000000005632100000000563210000000000000000000005632100001000000000000000100000000000005632100000000000000009999123100000010000000000000BRIBMBBDR003132
012020011002IDNT3       010IDEIASNET   ON           R$  000000000033700000000003440000000000332000000000033600000000003340000000000332000000000033400121000000000000127300000000000042892400000000000000009999123100000010000000000000BRIDNTACNOR5113
012020011002IDVL3       010INDUSVAL    ON      N2   R$  000000000034500000000003570000000000343000000000034800000000003450000000000344000000000034500085000000000000060900000000000021221000000000000000009999123100000010000000000000BRIDVLACNOR5130
012020011002IDVL4       010INDUSVAL    PN      N2   R$  000000000041000000000004100000000000400000000000040600000000004060000000000401000000000040600019000000000000009000000000000003662800000000000000009999123100000010000000000000BRIDVLACNPR2130
012020011002IGTA3       010IGUATEMI    ON      NM   R$  000000000547700000000055180000000005431000000000546900000000054740000000005448000000000547706933000000000001275100000000006974293300000000000000009999123100000010000000000000BRIGTAACNOR5122
012020011002INTU34      010INTUIT INC  DRN ED       R$  000000002828800000000282880000000028288000000002828800000000282880000000000000000000000000000001000000000000000100000000000002828800000000000000009999123100000010000000000000BRINTUBDR003103
012020011002IRBR3       010IRBBRASIL REON      NM   R$  000000000413000000000041390000000004080000000000411200000000041170000000004115000000000411719917000000000004825800000000019844692600000000000000009999123100000010000000000000BRIRBRACNOR4106
012020011002ISUS11      010IT NOW ISE  CI           R$  000000000419900000000042050000000004157000000000419000000000041800000000004100000000000418000013000000000000009800000000000041067570000000000000009999123100000010000000000000BRISUSCTF003100
012020011002ITLC34      010INTEL       DRN          R$  000000002436800000000243680000000024294000000002435300000000242940000000000000000000002429400002000000000000001000000000000024353200000000000000009999123100000010000000000000BRITLCBDR005136
012020011002ITSA3       010ITAUSA      ON      N1   R$  000000000135800000000013740000000001341000000000135800000000013520000000001348000000000135200849000000000000219700000000000298542600000000000000009999123100000010000000000000BRITSAACNOR0396
012020011002ITSA4       010ITAUSA      PN      N1   R$  000000000135000000000013660000000001328000000000134500000000013350000000001335000000000133635423000000000025066800000000033735175900000000000000009999123100000010000000000000BRITSAACNPR7396
012020011002ITUB3       010ITAUUNIBANCOON  ED  N1   R$  000000000310000000000031000000000003026000000000305200000000030400000000003040000000000304402559000000000000691500000000002110823700000000000000009999123100000010000000000000BRITUBACNOR4263
012020011002ITUB4       010ITAUUNIBANCOPN  ED  N1   R$  000000000350800000000035450000000003457000000000348700000000034600000000003460000000000346550880000000000025521600000000089002293100000000000000009999123100000010000000000000BRITUBACNPR1263
012020011002IVVB11      010ISHARE SP500CI           R$  000000001433900000000143610000000014283000000001432400000000143350000000014327000000001433500628000000000000133750000000001915949200000000000000009999123100000010000000000000BRIVVBCTF001100
012020011002JBDU3       010J B DUARTE  ON           R$  000000000036800000000003680000000000352000000000035500000000003520000000000351000000000035700029000000000000007500000000000002669900000000000000009999123100000010000000000000BRJBDUACNOR6142
012020011002JBDU4       010J B DUARTE  PN           R$  000000000024900000000002520000000000220000000000023300000000002200000000000220000000000023300212000000000000155800000000000036346100000000000000009999123100000010000000000000BRJBDUACNPR3142
012020011002JBSS3       010JBS         ON      NM   R$  000000000283400000000028630000000002773000000000282300000000028160000000002809000000000281628181000000000013468000000000038022846400000000000000009999123100000010000000000000BRJBSSACNOR8114
012020011002JDCO34      010JD COM      DRN          R$  000000001603800000000160380000000016038000000001603800000000160380000000000000000000000000000001000000000000000200000000000003207600000000000000009999123100000010000000000000BRJDCOBDR001100
012020011002JFEN3       010JOAO FORTES ON           R$  000000000041600000000004630000000000414000000000044400000000004480000000000434000000000044800711000000000000372700000000000165703800000000000000009999123100000010000000000000BRJFENACNOR0057
012020011002JHSF3       010JHSF PART   ON  ED  NM   R$  000000000082200000000008290000000000803000000000081800000000008160000000000811000000000081611749000000000006308100000000005162265800000000000000009999123100000010000000000000BRJHSFACNOR2115
012020011002JNJB34      010JOHNSON     DRN          R$  000000005952600000000597030000000059407000000005957300000000594070000000000000000000000000000003000000000000001000000000000059573000000000000000009999123100000010000000000000BRJNJBBDR002132
012020011002JPMC34      010JPMORGAN    DRN ED       R$  000000002801900000000280410000000027892000000002798700000000280410000000000000000000002804100003000000000000001800000000000050377300000000000000009999123100000010000000000000BRJPMCBDR009132
012020011002JPSA3       010JEREISSATI  ON           R$  000000000393000000000039950000000003921000000000397000000000039950000000003970000000000399501097000000000000268200000000001064873900000000000000009999123100000010000000000000BRJPSAACNOR6102
012020011002JSLG3       010JSL         ON  EJ  NM   R$  000000000307800000000032190000000003054000000000314700000000031310000000003130000000000313106258000000000001239100000000003899861100000000000000009999123100000010000000000000BRJSLGACNOR2113
012020011002KEPL3       010KEPLER WEBERON           R$  000000000299600000000030430000000002942000000000300600000000030200000000003000000000000302000301000000000000084700000000000254648200000000000000009999123100000010000000000000BRKEPLACNOR1048
012020011002KHCB34      010KRAFT HEINZ DRN          R$  000000001250000000000126800000000012500000000001252100000000126800000000012570000000000000000004000000000000001700000000000021286000000000000000009999123100000010000000000000BRKHCBBDR007118
012020011002KLBN3       010KLABIN S/A  ON      N2   R$  000000000042900000000004330000000000427000000000043000000000004280000000000428000000000043100521000000000000212100000000000091288800000000000000009999123100000010000000000000BRKLBNACNOR2155
012020011002KLBN4       010KLABIN S/A  PN      N2   R$  000000000037700000000003880000000000377000000000038400000000003810000000000381000000000038202389000000000000764200000000000293456000000000000000009999123100000010000000000000BRKLBNACNPR9155
012020011002KLBN11      010KLABIN S/A  UNT     N2   R$  000000000195500000000019830000000001944000000000196500000000019520000000001952000000000195510764000000000002901100000000005702104800000000000000009999123100000010000000000000BRKLBNCDAM18127
012020011002LAME3       010LOJAS AMERICON      N1   R$  000000000203400000000020440000000002018000000000203300000000020340000000002018000000000203402885000000000000632800000000001286703000000000000000009999123100000010000000000000BRLAMEACNOR9201
012020011002LAME4       010LOJAS AMERICPN      N1   R$  000000000266500000000026770000000002620000000000265400000000026470000000002636000000000264710004000000000005628600000000014942999900000000000000009999123100000010000000000000BRLAMEACNPR6201
012020011002LCAM3       010LOCAMERICA  ON  EJ  NM   R$  000000000247000000000025160000000002400000000000245700000000024440000000002433000000000244412943000000000003617200000000008890290600000000000000009999123100000010000000000000BRLCAMACNOR3131
012020011002LEVE3       010METAL LEVE  ON  EJ  NM   R$  000000000290800000000030000000000002893000000000296000000000029830000000002982000000000299502519000000000000378400000000001120259700000000000000009999123100000010000000000000BRLEVEACNOR2187
012020011002LIGT3       010LIGHT S/A   ON      NM   R$  000000000233500000000023600000000002322000000000234200000000023440000000002337000000000234408770000000000001826500000000004279477700000000000000009999123100000010000000000000BRLIGTACNOR2120
012020011002LILY34      010LILLY       DRN          R$  000000002808000000000280800000000028080000000002808000000000280800000000000000000000000000000001000000000000000100000000000002808000000000000000009999123100000010000000000000BRLILYBDR006131
012020011002LINX3       010LINX        ON      NM   R$  000000000345200000000034880000000003391000000000341600000000034360000000003405000000000343607571000000000001627200000000005558813100000000000000009999123100000010000000000000BRLINXACNOR0117
012020011002LIPR3       010ELETROPAR   ON           R$  000000000756200000000075640000000007562000000000756300000000075640000000007562000000001150000002000000000000000200000000000001512600000000000000009999123100000010000000000000BRLIPRACNOR7117
012020011002LLIS3       010LE LIS BLANCON      NM   R$  000000000170100000000017150000000001641000000000167100000000016600000000001645000000000166000899000000000000250600000000000418895600000000000000009999123100000010000000000000BRLLISACNOR4113
012020011002LOGG3       010LOG COM PROPON      NM   R$  000000000320500000000032050000000003173000000000318800000000031900000000003184000000000319001485000000000000247700000000000789863500000000000000009999123100000010000000000000BRLOGGACNOR7102
012020011002LOGN3       010LOG-IN      ON      NM   R$  000000000236400000000024450000000002343000000000238700000000023700000000002357000000000237004474000000000001273900000000003041158800000000000000009999123100000010000000000000BRLOGNACNOR3104
012020011002LOWC34      010LOWES COMPA DRN          R$  000000002491300000000249130000000024913000000002491300000000249130000000000000000000000000000001000000000000000100000000000002491300000000000000009999123100000010000000000000BRLOWCBDR007102
012020011002LPSB3       010LOPES BRASILON      NM   R$  000000000097600000000010290000000000976000000000099700000000009800000000000980000000000099105623000000000002397100000000002391962400000000000000009999123100000010000000000000BRLPSBACNOR0111
012020011002LREN3       010LOJAS RENNERON      NM   R$  000000000569600000000057980000000005680000000000575000000000057130000000005713000000000571915060000000000005044800000000029008765400000000000000009999123100000010000000000000BRLRENACNOR1200
012020011002MACY34      010MACY S      DRN          R$  000000000722000000000072200000000007220000000000722000000000072200000000000000000000000000000003000000000000000500000000000003610000000000000000009999123100000010000000000000BRMACYBDR000115
012020011002MAPT4       010CEMEPE      PN           R$  000000000360000000000036000000000003600000000000360000000000036000000000000550000000000360000002000000000000000200000000000000720000000000000000009999123100000010000000000000BRMAPTACNPR5106
012020011002MATB11      010IT NOW IMAT CI           R$  000000000370000000000037990000000003700000000000378200000000037630000000003760000000000385000022000000000000004800000000000018158100000000000000009999123100000010000000000000BRMATBCTF001100
012020011002MCDC34      010MCDONALDS   DRN          R$  000000002124800000000213650000000021217000000002130700000000213240000000019500000000000000000004000000000000001500000000000031961700000000000000009999123100000010000000000000BRMCDCBDR000137
012020011002MDIA3       010M.DIASBRANCOON  EJ  NM   R$  000000000397000000000040570000000003927000000000400300000000039870000000003980000000000399010311000000000002396700000000009595396600000000000000009999123100000010000000000000BRMDIAACNOR7118
012020011002MDLZ34      010MONDELEZ INTDRN          R$  000000001117100000000111710000000011171000000001117100000000111710000000000000000000000000000001000000000000000400000000000004468400000000000000009999123100000010000000000000BRMDLZBDR002118
012020011002MEAL3       010IMC S/A     ON      NM   R$  000000000085500000000008550000000000807000000000081600000000008180000000000815000000000081812231000000000005955600000000004862955500000000000000009999123100000010000000000000BRMEALACNOR9105
012020011002MELI34      010MERCADOLIBREDRN          R$  000000002703000000000274620000000026800000000002736600000000274620000000026800000000002900000003000000000000001600000000000043786600000000000000009999123100000010000000000000BRMELIBDR006100
012020011002MERC4       010MERC FINANC PN           R$  000000000124800000000012480000000001248000000000124800000000012480000000001220000000000132100002000000000000000200000000000000249600000000000000009999123100000010000000000000BRMERCACNPR9172
012020011002MGEL4       010MANGELS INDLPN           R$  000000000082900000000008300000000000810000000000082900000000008100000000000791000000000083000026000000000000014700000000000012194700000000000000009999123100000010000000000000BRMGELACNPR3147
012020011002MGLU3       010MAGAZ LUIZA ON  EJ  NM   R$  000000000520900000000053050000000005105000000000523600000000051800000000005179000000000518027155000000000009371100000000049070130300000000000000009999123100000010000000000000BRMGLUACNOR2115
012020011002MILS3       010MILLS       ON      NM   R$  000000000103100000000010910000000001031000000000106800000000010850000000001084000000000108605859000000000002482400000000002652883000000000000000009999123100000010000000000000BRMILSACNOR2112
012020011002MMMC34      0103M          DRN          R$  000000001856100000000185610000000018561000000001856100000000185610000000000000000000000000000001000000000000000500000000000009280500000000000000009999123100000010000000000000BRMMMCBDR000131
012020011002MNDL3       010MUNDIAL     ON           R$  000000000352600000000035600000000003526000000000354600000000035500000000003525000000000368500008000000000000001800000000000006383400000000000000009999123100000010000000000000BRMNDLACNOR4107
012020011002MNPR3       010MINUPAR     ON           R$  000000000059000000000006160000000000570000000000060300000000006000000000000590000000000059900034000000000000007600000000000004586800000000000000009999123100000010000000000000BRMNPRACNOR5122
012020011002MOVI3       010MOVIDA      ON  EJ  NM   R$  000000000204500000000020820000000002021000000000205400000000020330000000002033000000000203605176000000000001085500000000002230123400000000000000009999123100000010000000000000BRMOVIACNOR0111
012020011002MRCK34      010MERCK       DRN          R$  000000003682300000000368230000000036823000000003682300000000368230000000000000000000000000000001000000000000000300000000000011046900000000000000009999123100000010000000000000BRMRCKBDR003137
012020011002MRFG3       010MARFRIG     ON      NM   R$  000000000110200000000011120000000001063000000000108600000000010750000000001074000000000107526295000000000013771200000000014968616500000000000000009999123100000010000000000000BRMRFGACNOR0109
012020011002MRVE3       010MRV         ON      NM   R$  000000000215000000000021630000000002110000000000213800000000021250000000002124000000000212517646000000000004110000000000008788268900000000000000009999123100000010000000000000BRMRVEACNOR2120
012020011002MSCD34      010MASTERCARD  DRN ED       R$  000000012686000000001274250000000126860000000012694000000001274250000000000000000000000000000003000000000000000700000000000088858500000000000000009999123100000010000000000000BRMSCDBDR006135
012020011002MSFT34      010MICROSOFT   DRN          R$  000000006665900000000666590000000066292000000006654800000000665500000000000000000000006655000013000000000000006100000000000405944800000000000000009999123100000010000000000000BRMSFTBDR005136
012020011002MTSA4       010METISA      PN           R$  000000000253900000000025390000000002410000000000244900000000024500000000002450000000000249900082000000000000015200000000000037232400000000000000009999123100000010000000000000BRMTSAACNPR9055
012020011002MULT3       010MULTIPLAN   ON  EJ  N2   R$  000000000336400000000033710000000003307000000000333800000000033150000000003315000000000331820957000000000003979800000000013286538900000000000000009999123100000010000000000000BRMULTACNOR5127
012020011002MUTC34      010MICRON TECHNDRN          R$  000000002336900000000233690000000023369000000002336900000000233690000000000000000000000000000001000000000000000200000000000004673800000000000000009999123100000010000000000000BRMUTCBDR008100
012020011002MYPK3       010IOCHP-MAXIONON      NM   R$  000000000239700000000024050000000002362000000000238800000000023660000000002365000000000237605626000000000001188600000000002838756300000000000000009999123100000010000000000000BRMYPKACNOR7147
012020011002NEOE3       010NEOENERGIA  ON  EJ  NM   R$  000000000246000000000025120000000002438000000000246400000000024380000000002438000000000244908507000000000002425700000000005978320900000000000000009999123100000010000000000000BRNEOEACNOR3110
012020011002NEXT34      010NEXTERA ENERDRN          R$  000000002499700000000249970000000024997000000002499700000000249970000000000000000000000000000001000000000000000100000000000002499700000000000000009999123100000010000000000000BRNEXTBDR006102
012020011002NFLX34      010NETFLIX     DRN          R$  000000013779900000001377990000000134908000000013664200000001349080000000000000000000000000000002000000000000000500000000000068321300000000000000009999123100000010000000000000BRNFLXBDR000101
012020011002NIKE34      010NIKE        DRN          R$  000000004148100000000414810000000041481000000004148100000000414810000000000000000000000000000001000000000000000300000000000012444300000000000000009999123100000010000000000000BRNIKEBDR006136
012020011002NOCG34      010NORTHROP GRUDRN          R$  000000003064500000000306450000000030645000000003064500000000306450000000000000000000000000000001000000000000000100000000000003064500000000000000009999123100000010000000000000BRNOCGBDR006102
012020011002NORD3       010NORDON MET  ON           R$  000000000045500000000004550000000000455000000000045500000000004550000000000451000000000047000001000000000000000100000000000000045500000000000000009999123100000010000000000000BRNORDACNOR7135
012020011002NTCO3       010GRUPO NATURAON      NM   R$  000000000419800000000043530000000004159000000000429000000000042890000000004250000000000428931194000000000014962600000000064196472800000000000000009999123100000010000000000000BRNTCOACNOR5100
012020011002NVDC34      010NVIDIA CORP DRN          R$  000000002510000000000251410000000025100000000002510500000000251410000000000000000000000000000003000000000000001400000000000035148200000000000000009999123100000010000000000000BRNVDCBDR008103
012020011002ODPV3       010ODONTOPREV  ON      NM   R$  000000000170000000000017010000000001661000000000168000000000016700000000001670000000000167207393000000000001718100000000002888044400000000000000009999123100000010000000000000BRODPVACNOR4173
012020011002OFSA3       010OUROFINO S/AON      NM   R$  000000000441500000000044690000000004402000000000445200000000044500000000004450000000000447000091000000000000019600000000000087270700000000000000009999123100000010000000000000BROFSAACNOR7109
012020011002OMGE3       010OMEGA GER   ON      NM   R$  000000000399700000000040000000000003940000000000396300000000039630000000003958000000000396302116000000000000333200000000001320753600000000000000009999123100000010000000000000BROMGEACNOR0101
012020011002ORCL34      010ORACLE      DRN ED       R$  000000002230700000000223680000000022307000000002231100000000223680000000000000000000000000000002000000000000001300000000000029005200000000000000009999123100000010000000000000BRORCLBDR007132
012020011002PARD3       010IHPARDINI   ON      NM   R$  000000000294000000000030070000000002895000000000295400000000029310000000002917000000000293102258000000000000421800000000001246346000000000000000009999123100000010000000000000BRPARDACNOR1112
012020011002PCAR3       010P.ACUCAR-CBDON      N1   R$  000000000850000000000095000000000008500000000000914500000000090900000000008500000000000000000007000000000000000700000000000006402000000000000000009999123100000010000000000000BRPCARACNOR3162
012020011002PCAR4       010P.ACUCAR-CBDPN      N1   R$  000000000920400000000092180000000008963000000000910200000000090580000000009054000000000905905926000000000001027600000000009354010300000000000000009999123100000010000000000000BRPCARACNPR0155
012020011002PEAB3       010PAR AL BAHIAON           R$  000000000499900000000050000000000004999000000000499900000000050000000000004408000000000520000003000000000000000500000000000002499700000000000000009999123100000010000000000000BRPEABACNOR3123
012020011002PEAB4       010PAR AL BAHIAPN           R$  000000000500200000000050020000000005002000000000500200000000050020000000005002000000000000000001000000000000000100000000000000500200000000000000009999123100000010000000000000BRPEABACNPR0123
012020011002PEPB34      010PEPSICO INC DRN          R$  000000005541900000000554190000000055419000000005541900000000554190000000000000000000000000000001000000000000000200000000000011083800000000000000009999123100000010000000000000BRPEPBBDR005129
012020011002PETR3       010PETROBRAS   ON      N2   R$  000000000322600000000032310000000003197000000000321600000000032100000000003206000000000321009630000000000003867200000000012439809500000000000000009999123100000010000000000000BRPETRACNOR9190
012020011002PETR4       010PETROBRAS   PN      N2   R$  000000000303900000000030440000000003013000000000303100000000030270000000003026000000000302728206000000000025397500000000076980937000000000000000009999123100000010000000000000BRPETRACNPR6196
012020011002PFIZ34      010PFIZER      DRN          R$  000000001616500000000162640000000016120000000001616300000000162640000000000000000000001626400003000000000000001500000000000024244800000000000000009999123100000010000000000000BRPFIZBDR006137
012020011002PFRM3       010PROFARMA    ON      NM   R$  000000000071200000000007230000000000696000000000071100000000006960000000000695000000000069601597000000000000658000000000000468017400000000000000009999123100000010000000000000BRPFRMACNOR1112
012020011002PGCO34      010PG          DRN          R$  000000005097300000000509730000000050973000000005097300000000509730000000000000000000000000000001000000000000000300000000000015291900000000000000009999123100000010000000000000BRPGCOBDR001136
012020011002PIBB11      010IT NOW PIBB CI           R$  000000001954600000000196520000000019313000000001957200000000194300000000019430000000001959900437000000000000064820000000001268681260000000000000009999123100000010000000000000BRPIBBCTF005101
012020011002PINE4       010PINE        PN      N2   R$  000000000045900000000004600000000000439000000000044900000000004400000000000440000000000044300701000000000000390500000000000175342700000000000000009999123100000010000000000000BRPINEACNPR8144
012020011002PLAS3       010PLASCAR PARTON           R$  000000000075000000000007500000000000725000000000072600000000007480000000000724000000000074800006000000000000004300000000000003123400000000000000009999123100000010000000000000BRPLASACNOR2106
012020011002PMAM3       010PARANAPANEMAON      NM   R$  000000000279000000000028540000000002717000000000276800000000027170000000002717000000000273200374000000000000089900000000000248853800000000000000009999123100000010000000000000BRPMAMACNOR3037
012020011002PNVL3       010DIMED       ON           R$  000000006000000000000600000000000059923000000005994900000000599230000000057000000000006000000003000000000000000300000000000017984700000000000000009999123100000010000000000000BRPNVLACNOR9195
012020011002PNVL4       010DIMED       PN           R$  000000004650000000000467000000000046500000000004651800000000465000000000042500000000004690000004000000000000001100000000000051170000000000000000009999123100000010000000000000BRPNVLACNPR6195
012020011002POMO3       010MARCOPOLO   ON      N2   R$  000000000042000000000004270000000000413000000000041800000000004140000000000414000000000041500500000000000000131000000000000054820700000000000000009999123100000010000000000000BRPOMOACNOR0085
012020011002POMO4       010MARCOPOLO   PN      N2   R$  000000000044700000000004520000000000443000000000044600000000004430000000000442000000000044305598000000000004539100000000002027672300000000000000009999123100000010000000000000BRPOMOACNPR7085
012020011002POSI3       010POSITIVO TECON      NM   R$  000000000098300000000009960000000000970000000000098500000000009870000000000985000000000098803428000000000000926500000000000912746500000000000000009999123100000010000000000000BRPOSIACNOR9111
012020011002PPLA11      010PPLA        UNT          R$  000000000010900000000001110000000000108000000000010900000000001080000000000108000000000010900269000000000000468500000000000051315800000000000000009999123100000010000000000000BRPPLAUNT007100
012020011002PRIO3       010PETRORIO    ON      NM   R$  000000000363000000000037970000000003538000000000372000000000037220000000003722000000000372311691000000000002734400000000010173261000000000000000009999123100000010000000000000BRPRIOACNOR1102
012020011002PSSA3       010PORTO SEGUROON      NM   R$  000000000634000000000063940000000006292000000000634500000000063940000000006348000000000639402698000000000000433200000000002749014900000000000000009999123100000010000000000000BRPSSAACNOR7140
012020011002PTBL3       010PORTOBELLO  ON      NM   R$  000000000058300000000005830000000000564000000000057400000000005800000000000566000000000058001808000000000000956300000000000549054100000000000000009999123100000010000000000000BRPTBLACNOR8124
012020011002PTNT4       010PETTENATI   PN           R$  000000000052000000000005310000000000500000000000051100000000005110000000000511000000000051400156000000000000099800000000000051050400000000000000009999123100000010000000000000BRPTNTACNPR3044
012020011002QCOM34      010QUALCOMM    DRN          R$  000000003762700000000376560000000037116000000003728700000000372820000000000000000000000000000004000000000000002100000000000078303200000000000000009999123100000010000000000000BRQCOMBDR007132
012020011002QUAL3       010QUALICORP   ON      NM   R$  000000000405000000000041100000000004010000000000406700000000040650000000004063000000000406614894000000000004246500000000017273710600000000000000009999123100000010000000000000BRQUALACNOR6112
012020011002RADL3       010RAIADROGASILON      NM   R$  000000001128600000000113540000000010910000000001110200000000109800000000010980000000001100805763000000000000844900000000009380395200000000000000009999123100000010000000000000BRRADLACNOR0133
012020011002RAIL3       010RUMO S.A.   ON      NM   R$  000000000259700000000026270000000002546000000000258900000000025670000000002567000000000256817662000000000006990500000000018103030300000000000000009999123100000010000000000000BRRAILACNOR9101
012020011002RANI3       010CELUL IRANI ON           R$  000000000041500000000004300000000000405000000000041500000000004110000000000411000000000041400038000000000000015100000000000006279400000000000000009999123100000010000000000000BRRANIACNOR5051
012020011002RANI4       010CELUL IRANI PN           R$  000000000043900000000004440000000000425000000000042900000000004250000000000424000000000043900008000000000000002100000000000000902700000000000000009999123100000010000000000000BRRANIACNPR2052
012020011002RAPT3       010RANDON PART ON      N1   R$  000000000116100000000011700000000001161000000000116400000000011650000000001159000000000116500008000000000000000900000000000001048200000000000000009999123100000010000000000000BRRAPTACNOR7152
012020011002RAPT4       010RANDON PART PN      N1   R$  000000000148300000000014840000000001435000000000145500000000014530000000001447000000000145405755000000000001880300000000002736875500000000000000009999123100000010000000000000BRRAPTACNPR4152
012020011002RCSL3       010RECRUSUL    ON           R$  000000000021800000000002310000000000202000000000022000000000002180000000000218000000000021900337000000000000150800000000000033223500000000000000009999123100000010000000000000BRRCSLACNOR4130
012020011002RCSL4       010RECRUSUL    PN           R$  000000000019900000000002200000000000198000000000021000000000002100000000000210000000000021307826000000000003981400000000000838376800000000000000009999123100000010000000000000BRRCSLACNPR1130
012020011002RDNI3       010RNI         ON      NM   R$  000000000157500000000016150000000001575000000000158700000000015770000000001576000000000157800053000000000000014900000000000023650100000000000000009999123100000010000000000000BRRDNIACNOR9112
012020011002RDSA34      010RD SHELL    DRN          R$  000000002428100000000242810000000024281000000002428100000000242810000000000000000000000000000001000000000000000200000000000004856200000000000000009999123100000010000000000000BRRDSABDR009101
012020011002REDE3       010REDE ENERGIAON           R$  000000000087000000000008890000000000864000000000088200000000008890000000000864000000000088800020000000000000010500000000000009262400000000000000009999123100000010000000000000BRREDEACNOR7113
012020011002RENT3       010LOCALIZA    ON      NM   R$  000000000488800000000049300000000004760000000000483000000000047850000000004785000000000478814854000000000004512000000000021794815000000000000000009999123100000010000000000000BRRENTACNOR4176
012020011002RIOT34      010RIO TINTO   DRN          R$  000000002413800000000241380000000024138000000002413800000000241380000000000000000000000000000001000000000000000200000000000004827600000000000000009999123100000010000000000000BRRIOTBDR007100
012020011002RLOG3       010COSAN LOG   ON      NM   R$  000000000226100000000022950000000002231000000000227000000000022540000000002244000000000225903660000000000000837700000000001902258900000000000000009999123100000010000000000000BRRLOGACNOR4106
012020011002ROMI3       010INDS ROMI   ON      NM   R$  000000000172600000000017800000000001726000000000176100000000017780000000001743000000000177800949000000000000202200000000000356215200000000000000009999123100000010000000000000BRROMIACNOR8171
012020011002RPAD3       010ALFA HOLDINGON           R$  000000000062000000000006700000000000620000000000062800000000006690000000000630000000000067500011000000000000001800000000000001131400000000000000009999123100000010000000000000BRRPADACNOR1196
012020011002RPAD6       010ALFA HOLDINGPNB          R$  000000000096800000000009680000000000968000000000096800000000009680000000000605000000000096800001000000000000000100000000000000096800000000000000009999123100000010000000000000BRRPADACNPB2196
012020011002RSID3       010ROSSI RESID ON      NM   R$  000000000091600000000009380000000000905000000000091800000000009150000000000915000000000092000681000000000000240200000000000220724200000000000000009999123100000010000000000000BRRSIDACNOR8119
012020011002SANB3       010SANTANDER BRON  EDJ      R$  000000000243400000000024600000000002391000000000242400000000024000000000002391000000000245200165000000000000021200000000000051409900000000000000009999123100000010000000000000BRSANBACNOR8151
012020011002SANB4       010SANTANDER BRPN  EDJ      R$  000000000218200000000022180000000002170000000000219400000000021810000000002181000000000219800239000000000000030800000000000067602100000000000000009999123100000010000000000000BRSANBACNPR5151
012020011002SANB11      010SANTANDER BRUNT EDJ      R$  000000000464000000000046770000000004559000000000461200000000045730000000004573000000000458006478000000000001240900000000005724073000000000000000009999123100000010000000000000BRSANBCDAM13144
012020011002SAPR3       010SANEPAR     ON  EJ  N2   R$  000000000206900000000020900000000002043000000000207900000000020600000000002042000000000206000306000000000000046300000000000096298900000000000000009999123100000010000000000000BRSAPRACNOR9148
012020011002SAPR4       010SANEPAR     PN  EJ  N2   R$  000000000194900000000019640000000001930000000000195000000000019500000000001938000000000195005069000000000001011200000000001972102800000000000000009999123100000010000000000000BRSAPRACNPR6148
012020011002SAPR11      010SANEPAR     UNT EJ  N2   R$  000000000989900000000099570000000009811000000000990900000000099000000000009851000000000990002215000000000000451400000000004473134000000000000000009999123100000010000000000000BRSAPRCDAM13107
012020011002SBSP3       010SABESP      ON      NM   R$  000000000578500000000058200000000005702000000000576700000000057410000000005738000000000574212496000000000002176700000000012553280100000000000000009999123100000010000000000000BRSBSPACNOR5156
012020011002SBUB34      010STARBUCKS   DRN          R$  000000003685100000000370320000000036792000000003684100000000367920000000036000000000000000000003000000000000001800000000000066314900000000000000009999123100000010000000000000BRSBUBBDR005127
012020011002SCAR3       010SAO CARLOS  ON      NM   R$  000000000487600000000049490000000004701000000000477600000000047550000000004755000000000480000340000000000000044500000000000212534900000000000000009999123100000010000000000000BRSCARACNOR7127
012020011002SCHW34      010SCHWAB      DRN          R$  000000001958400000000196000000000019584000000001958400000000196000000000000000000000000000000002000000000000001700000000000033294400000000000000009999123100000010000000000000BRSCHWBDR006115
012020011002SEER3       010SER EDUCA   ON      NM   R$  000000000284500000000028960000000002772000000000281300000000028010000000002800000000000280104166000000000000826200000000002324353800000000000000009999123100000010000000000000BRSEERACNOR5114
012020011002SGPS3       010SPRINGS     ON      NM   R$  000000000136400000000014100000000001364000000000139600000000013950000000001377000000000139501058000000000000304000000000000424552200000000000000009999123100000010000000000000BRSGPSACNOR4104
012020011002SHOW3       010TIME FOR FUNON      NM   R$  000000000059700000000006160000000000594000000000060700000000006120000000000604000000000061200911000000000000318000000000000193108200000000000000009999123100000010000000000000BRSHOWACNOR7105
012020011002SHUL4       010SCHULZ      PN           R$  000000000109800000000011090000000001089000000000109800000000010890000000001089000000000110000509000000000000189200000000000207851100000000000000009999123100000010000000000000BRSHULACNPR4135
012020011002SLBG34      010SCHLUMBERGERDRN          R$  000000001635800000000163580000000016358000000001635800000000163580000000000000000000000000000001000000000000000100000000000001635800000000000000009999123100000010000000000000BRSLBGBDR003134
012020011002SLCE3       010SLC AGRICOLAON      NM   R$  000000000250400000000025730000000002450000000000250700000000024820000000002475000000000248205154000000000001042500000000002613622800000000000000009999123100000010000000000000BRSLCEACNOR2113
012020011002SMAL11      010ISHARES SMALCI           R$  000000001399900000000140910000000013895000000001402200000000139400000000013940000000001395401959000000000001023080000000014345921190000000000000009999123100000010000000000000BRSMALCTF002100
012020011002SMLS3       010SMILES      ON  EJ  NM   R$  000000000403300000000040440000000003998000000000403000000000040240000000004012000000000402502541000000000000490400000000001976391800000000000000009999123100000010000000000000BRSMLSACNOR1108
012020011002SMTO3       010SAO MARTINHOON      NM   R$  000000000249800000000025410000000002477000000000250400000000025010000000002500000000000250205445000000000001255400000000003143855500000000000000009999123100000010000000000000BRSMTOACNOR3116
012020011002SPGI34      010SP GLOBAL   DRN          R$  000000002960900000000296090000000029609000000002960900000000296090000000000000000000000000000001000000000000000200000000000005921800000000000000009999123100000010000000000000BRSPGIBDR009102
012020011002SPRI3       010SPRINGER    ON           R$  000000000095000000000009500000000000950000000000095000000000009500000000000907000000000097900001000000000000000100000000000000095000000000000000009999123100000010000000000000BRSPRIACNOR2144
012020011002SPXI11      010IT NOW SPXI CI           R$  000000001401200000000140210000000013965000000001400300000000140210000000013970000000001410000013000000000000000840000000000011762640000000000000009999123100000010000000000000BRSPXICTF003100
012020011002SQIA3       010SINQIA      ON      NM   R$  000000000241200000000024610000000002381000000000242300000000024150000000002410000000000241502054000000000000541500000000001312563900000000000000009999123100000010000000000000BRSQIAACNOR6102
012020011002SSFO34      010SALESFORCE  DRN          R$  000000003677500000000369700000000036775000000003681400000000369700000000000000000000000000000003000000000000001000000000000036814000000000000000009999123100000010000000000000BRSSFOBDR003100
012020011002STBP3       010SANTOS BRP  ON      NM   R$  000000000081900000000008330000000000813000000000082600000000008260000000000824000000000082607202000000000002332000000000001926558700000000000000009999123100000010000000000000BRSTBPACNOR3116
012020011002SULA3       010SUL AMERICA ON      N2   R$  000000000255400000000026550000000002554000000000258900000000026550000000002560000000000264500011000000000000001100000000000002848400000000000000009999123100000010000000000000BRSULAACNOR2138
012020011002SULA4       010SUL AMERICA PN      N2   R$  000000000194700000000019470000000001900000000000192100000000019000000000001900000000000249900011000000000000001300000000000002497900000000000000009999123100000010000000000000BRSULAACNPR9138
012020011002SULA11      010SUL AMERICA UNT     N2   R$  000000000649900000000065180000000006376000000000643000000000064320000000006428000000000643521862000000000003909700000000025143158000000000000000009999123100000010000000000000BRSULACDAM12138
012020011002SUZB3       010SUZANO S.A. ON      NM   R$  000000000431000000000043500000000004295000000000432100000000043110000000004308000000000431116153000000000004514300000000019508842100000000000000009999123100000010000000000000BRSUZBACNOR0124
012020011002TAEE3       010TAESA       ON      N2   R$  000000000101200000000010290000000001011000000000101900000000010180000000001018000000000102200141000000000000020500000000000020905800000000000000009999123100000010000000000000BRTAEEACNOR9129
012020011002TAEE4       010TAESA       PN      N2   R$  000000000101400000000010210000000001007000000000101600000000010140000000001010000000000102000190000000000000035700000000000036271500000000000000009999123100000010000000000000BRTAEEACNPR6129
012020011002TAEE11      010TAESA       UNT     N2   R$  000000000303900000000030620000000003022000000000304700000000030370000000003036000000000303807515000000000001376800000000004196058900000000000000009999123100000010000000000000BRTAEECDAM10129
012020011002TASA3       010TAURUS ARMASON      N2   R$  000000000054500000000005540000000000541000000000054400000000005420000000000542000000000054400147000000000000070800000000000038540400000000000000009999123100000010000000000000BRTASAACNOR7100
012020011002TASA4       010TAURUS ARMASPN      N2   R$  000000000062900000000006400000000000617000000000062500000000006190000000000619000000000062201789000000000000893800000000000559432200000000000000009999123100000010000000000000BRTASAACNPR4100
012020011002TCSA3       010TECNISA     ON      NM   R$  000000000018200000000001900000000000178000000000018400000000001870000000000187000000000018810851000000000032919400000000006059450000000000000000009999123100000010000000000000BRTCSAACNOR3111
012020011002TECN3       010TECHNOS     ON      NM   R$  000000000036300000000003780000000000334000000000036300000000003370000000000337000000000034001960000000000001475700000000000536318300000000000000009999123100000010000000000000BRTECNACNOR6106
012020011002TELB3       010TELEBRAS    ON           R$  000000000960300000000098900000000009603000000000974600000000098900000000009625000000000989000002000000000000000200000000000001949300000000000000009999123100000010000000000000BRTELBACNOR2139
012020011002TELB4       010TELEBRAS    PN           R$  000000000290000000000029190000000002830000000000286600000000028980000000002869000000000289900034000000000000006000000000000017201700000000000000009999123100000010000000000000BRTELBACNPR9139
012020011002TEND3       010TENDA       ON      NM   R$  000000000325800000000033390000000003242000000000331600000000033150000000003313000000000331506717000000000002876000000000009537470400000000000000009999123100000010000000000000BRTENDACNOR4107
012020011002TESA3       010TERRA SANTA ON      NM   R$  000000000238100000000024030000000002300000000000237500000000023000000000002300000000000234400146000000000000016600000000000039427200000000000000009999123100000010000000000000BRTESAACNOR9101
012020011002TEXA34      010TEXAS INC   DRN          R$  000000005327600000000535370000000053183000000005325300000000531830000000000000000000000000000003000000000000000900000000000047928000000000000000009999123100000010000000000000BRTEXABDR003117
012020011002TGMA3       010TEGMA       ON      NM   R$  000000000393700000000040520000000003937000000000402700000000040090000000004006000000000403001361000000000000377600000000001520782000000000000000009999123100000010000000000000BRTGMAACNOR7133
012020011002TIET3       010AES TIETE E ON      N2   R$  000000000036200000000003800000000000362000000000037400000000003740000000000374000000000037500717000000000000247000000000000092398900000000000000009999123100000010000000000000BRTIETACNOR0122
012020011002TIET4       010AES TIETE E PN      N2   R$  000000000028700000000002910000000000287000000000028800000000002890000000000289000000000029000846000000000000677900000000000195900100000000000000009999123100000010000000000000BRTIETACNPR7122
012020011002TIET11      010AES TIETE E UNT     N2   R$  000000000151200000000015400000000001511000000000152700000000015290000000001524000000000152906005000000000001725900000000002635869300000000000000009999123100000010000000000000BRTIETCDAM15122
012020011002TIMP3       010TIM PART S/AON      NM   R$  000000000160400000000016330000000001599000000000161900000000016320000000001630000000000163214295000000000006002800000000009724454000000000000000009999123100000010000000000000BRTIMPACNOR1113
012020011002TJXC34      010TJX COMPANIEDRN          R$  000000002567900000000256790000000025679000000002567900000000256790000000000000000000000000000001000000000000000100000000000002567900000000000000009999123100000010000000000000BRTJXCBDR008102
012020011002TMCO34      010TOYOTAMO    DRN          R$  000000005760300000000576030000000057603000000005760300000000576030000000000000000000000000000001000000000000000100000000000005760300000000000000009999123100000010000000000000BRTMCOBDR001100
012020011002TMOS34      010THERMFISCHERDRN          R$  000000003370600000000338490000000033706000000003373400000000338490000000000000000000000000000002000000000000001500000000000050601900000000000000009999123100000010000000000000BRTMOSBDR007115
012020011002TOTS3       010TOTVS       ON      NM   R$  000000000696000000000069980000000006735000000000692400000000068980000000006848000000000689812288000000000001939700000000013431553700000000000000009999123100000010000000000000BRTOTSACNOR8133
012020011002TRIS3       010TRISUL      ON      NM   R$  000000000165800000000016790000000001633000000000165700000000016560000000001652000000000165604086000000000000970100000000001608140400000000000000009999123100000010000000000000BRTRISACNOR4112
